{
  "address": "0x19ba7df61960ecb07a24E5ABD5227374eCA9Ce2d",
  "abi": [
    {
      "inputs": [
        {
          "internalType": "address",
          "name": "_lzEndpoint",
          "type": "address"
        }
      ],
      "stateMutability": "nonpayable",
      "type": "constructor"
    },
    {
      "anonymous": false,
      "inputs": [
        {
          "indexed": true,
          "internalType": "address",
          "name": "previousOwner",
          "type": "address"
        },
        {
          "indexed": true,
          "internalType": "address",
          "name": "newOwner",
          "type": "address"
        }
      ],
      "name": "OwnershipTransferred",
      "type": "event"
    },
    {
      "anonymous": false,
      "inputs": [
        {
          "indexed": false,
          "internalType": "uint16",
          "name": "_dstChainId",
          "type": "uint16"
        },
        {
          "indexed": false,
          "internalType": "uint16",
          "name": "_type",
          "type": "uint16"
        },
        {
          "indexed": false,
          "internalType": "uint256",
          "name": "_minDstGas",
          "type": "uint256"
        }
      ],
      "name": "SetMinDstGas",
      "type": "event"
    },
    {
      "anonymous": false,
      "inputs": [
        {
          "indexed": false,
          "internalType": "address",
          "name": "precrime",
          "type": "address"
        }
      ],
      "name": "SetPrecrime",
      "type": "event"
    },
    {
      "anonymous": false,
      "inputs": [
        {
          "indexed": false,
          "internalType": "uint16",
          "name": "_remoteChainId",
          "type": "uint16"
        },
        {
          "indexed": false,
          "internalType": "bytes",
          "name": "_path",
          "type": "bytes"
        }
      ],
      "name": "SetTrustedRemote",
      "type": "event"
    },
    {
      "anonymous": false,
      "inputs": [
        {
          "indexed": false,
          "internalType": "uint16",
          "name": "_remoteChainId",
          "type": "uint16"
        },
        {
          "indexed": false,
          "internalType": "bytes",
          "name": "_remoteAddress",
          "type": "bytes"
        }
      ],
      "name": "SetTrustedRemoteAddress",
      "type": "event"
    },
    {
      "inputs": [],
      "name": "DEFAULT_PAYLOAD_SIZE_LIMIT",
      "outputs": [
        {
          "internalType": "uint256",
          "name": "",
          "type": "uint256"
        }
      ],
      "stateMutability": "view",
      "type": "function"
    },
    {
      "inputs": [
        {
          "internalType": "uint16",
          "name": "_srcChainId",
          "type": "uint16"
        },
        {
          "internalType": "bytes",
          "name": "_srcAddress",
          "type": "bytes"
        }
      ],
      "name": "forceResumeReceive",
      "outputs": [],
      "stateMutability": "nonpayable",
      "type": "function"
    },
    {
      "inputs": [
        {
          "internalType": "uint16",
          "name": "",
          "type": "uint16"
        },
        {
          "internalType": "uint8",
          "name": "",
          "type": "uint8"
        }
      ],
      "name": "gasLookup",
      "outputs": [
        {
          "internalType": "uint256",
          "name": "",
          "type": "uint256"
        }
      ],
      "stateMutability": "view",
      "type": "function"
    },
    {
      "inputs": [
        {
          "internalType": "uint16",
          "name": "_version",
          "type": "uint16"
        },
        {
          "internalType": "uint16",
          "name": "_chainId",
          "type": "uint16"
        },
        {
          "internalType": "address",
          "name": "",
          "type": "address"
        },
        {
          "internalType": "uint256",
          "name": "_configType",
          "type": "uint256"
        }
      ],
      "name": "getConfig",
      "outputs": [
        {
          "internalType": "bytes",
          "name": "",
          "type": "bytes"
        }
      ],
      "stateMutability": "view",
      "type": "function"
    },
    {
      "inputs": [
        {
          "internalType": "uint16",
          "name": "_remoteChainId",
          "type": "uint16"
        }
      ],
      "name": "getTrustedRemoteAddress",
      "outputs": [
        {
          "internalType": "bytes",
          "name": "",
          "type": "bytes"
        }
      ],
      "stateMutability": "view",
      "type": "function"
    },
    {
      "inputs": [
        {
          "internalType": "uint16",
          "name": "_srcChainId",
          "type": "uint16"
        },
        {
          "internalType": "bytes",
          "name": "_srcAddress",
          "type": "bytes"
        }
      ],
      "name": "isTrustedRemote",
      "outputs": [
        {
          "internalType": "bool",
          "name": "",
          "type": "bool"
        }
      ],
      "stateMutability": "view",
      "type": "function"
    },
    {
      "inputs": [],
      "name": "lzEndpoint",
      "outputs": [
        {
          "internalType": "contract ILayerZeroEndpoint",
          "name": "",
          "type": "address"
        }
      ],
      "stateMutability": "view",
      "type": "function"
    },
    {
      "inputs": [
        {
          "internalType": "uint16",
          "name": "_srcChainId",
          "type": "uint16"
        },
        {
          "internalType": "bytes",
          "name": "_srcAddress",
          "type": "bytes"
        },
        {
          "internalType": "uint64",
          "name": "_nonce",
          "type": "uint64"
        },
        {
          "internalType": "bytes",
          "name": "_payload",
          "type": "bytes"
        }
      ],
      "name": "lzReceive",
      "outputs": [],
      "stateMutability": "nonpayable",
      "type": "function"
    },
    {
      "inputs": [
        {
          "internalType": "uint16",
          "name": "",
          "type": "uint16"
        },
        {
          "internalType": "uint16",
          "name": "",
          "type": "uint16"
        }
      ],
      "name": "minDstGasLookup",
      "outputs": [
        {
          "internalType": "uint256",
          "name": "",
          "type": "uint256"
        }
      ],
      "stateMutability": "view",
      "type": "function"
    },
    {
      "inputs": [
        {
          "internalType": "uint16",
          "name": "_remoteChainId",
          "type": "uint16"
        },
        {
          "internalType": "address payable",
          "name": "_refundAddress",
          "type": "address"
        },
        {
          "internalType": "uint8",
          "name": "_type",
          "type": "uint8"
        },
        {
          "components": [
            {
              "internalType": "address",
              "name": "srcToken",
              "type": "address"
            },
            {
              "internalType": "uint256",
              "name": "amount",
              "type": "uint256"
            },
            {
              "internalType": "address",
              "name": "to",
              "type": "address"
            },
            {
              "internalType": "string",
              "name": "name",
              "type": "string"
            },
            {
              "internalType": "string",
              "name": "symbol",
              "type": "string"
            }
          ],
          "internalType": "struct Structs.MintObj",
          "name": "_mintParams",
          "type": "tuple"
        },
        {
          "internalType": "bytes",
          "name": "_payload",
          "type": "bytes"
        },
        {
          "components": [
            {
              "internalType": "uint256",
              "name": "dstGasForCall",
              "type": "uint256"
            },
            {
              "internalType": "uint256",
              "name": "dstNativeAmount",
              "type": "uint256"
            },
            {
              "internalType": "bytes",
              "name": "dstNativeAddr",
              "type": "bytes"
            }
          ],
          "internalType": "struct Structs.LzTxObj",
          "name": "_lzTxParams",
          "type": "tuple"
        }
      ],
      "name": "omniMint",
      "outputs": [],
      "stateMutability": "payable",
      "type": "function"
    },
    {
      "inputs": [],
      "name": "owner",
      "outputs": [
        {
          "internalType": "address",
          "name": "",
          "type": "address"
        }
      ],
      "stateMutability": "view",
      "type": "function"
    },
    {
      "inputs": [
        {
          "internalType": "uint16",
          "name": "",
          "type": "uint16"
        }
      ],
      "name": "payloadSizeLimitLookup",
      "outputs": [
        {
          "internalType": "uint256",
          "name": "",
          "type": "uint256"
        }
      ],
      "stateMutability": "view",
      "type": "function"
    },
    {
      "inputs": [],
      "name": "precrime",
      "outputs": [
        {
          "internalType": "address",
          "name": "",
          "type": "address"
        }
      ],
      "stateMutability": "view",
      "type": "function"
    },
    {
      "inputs": [
        {
          "internalType": "uint16",
          "name": "_remoteChainId",
          "type": "uint16"
        },
        {
          "internalType": "uint8",
          "name": "_type",
          "type": "uint8"
        },
        {
          "internalType": "bytes",
          "name": "_userPayload",
          "type": "bytes"
        },
        {
          "components": [
            {
              "internalType": "uint256",
              "name": "dstGasForCall",
              "type": "uint256"
            },
            {
              "internalType": "uint256",
              "name": "dstNativeAmount",
              "type": "uint256"
            },
            {
              "internalType": "bytes",
              "name": "dstNativeAddr",
              "type": "bytes"
            }
          ],
          "internalType": "struct Structs.LzTxObj",
          "name": "_lzTxParams",
          "type": "tuple"
        }
      ],
      "name": "quoteLayerZeroFee",
      "outputs": [
        {
          "internalType": "uint256",
          "name": "",
          "type": "uint256"
        },
        {
          "internalType": "uint256",
          "name": "",
          "type": "uint256"
        }
      ],
      "stateMutability": "view",
      "type": "function"
    },
    {
      "inputs": [],
      "name": "renounceOwnership",
      "outputs": [],
      "stateMutability": "nonpayable",
      "type": "function"
    },
    {
      "inputs": [],
      "name": "router",
      "outputs": [
        {
          "internalType": "contract IOCPRouter",
          "name": "",
          "type": "address"
        }
      ],
      "stateMutability": "view",
      "type": "function"
    },
    {
      "inputs": [
        {
          "internalType": "uint16",
          "name": "_version",
          "type": "uint16"
        },
        {
          "internalType": "uint16",
          "name": "_chainId",
          "type": "uint16"
        },
        {
          "internalType": "uint256",
          "name": "_configType",
          "type": "uint256"
        },
        {
          "internalType": "bytes",
          "name": "_config",
          "type": "bytes"
        }
      ],
      "name": "setConfig",
      "outputs": [],
      "stateMutability": "nonpayable",
      "type": "function"
    },
    {
      "inputs": [
        {
          "internalType": "uint16",
          "name": "_dstChainId",
          "type": "uint16"
        },
        {
          "internalType": "uint16",
          "name": "_packetType",
          "type": "uint16"
        },
        {
          "internalType": "uint256",
          "name": "_minGas",
          "type": "uint256"
        }
      ],
      "name": "setMinDstGas",
      "outputs": [],
      "stateMutability": "nonpayable",
      "type": "function"
    },
    {
      "inputs": [
        {
          "internalType": "uint16",
          "name": "_dstChainId",
          "type": "uint16"
        },
        {
          "internalType": "uint256",
          "name": "_size",
          "type": "uint256"
        }
      ],
      "name": "setPayloadSizeLimit",
      "outputs": [],
      "stateMutability": "nonpayable",
      "type": "function"
    },
    {
      "inputs": [
        {
          "internalType": "address",
          "name": "_precrime",
          "type": "address"
        }
      ],
      "name": "setPrecrime",
      "outputs": [],
      "stateMutability": "nonpayable",
      "type": "function"
    },
    {
      "inputs": [
        {
          "internalType": "uint16",
          "name": "_version",
          "type": "uint16"
        }
      ],
      "name": "setReceiveVersion",
      "outputs": [],
      "stateMutability": "nonpayable",
      "type": "function"
    },
    {
      "inputs": [
        {
          "internalType": "uint16",
          "name": "_version",
          "type": "uint16"
        }
      ],
      "name": "setSendVersion",
      "outputs": [],
      "stateMutability": "nonpayable",
      "type": "function"
    },
    {
      "inputs": [
        {
          "internalType": "uint16",
          "name": "_remoteChainId",
          "type": "uint16"
        },
        {
          "internalType": "bytes",
          "name": "_path",
          "type": "bytes"
        }
      ],
      "name": "setTrustedRemote",
      "outputs": [],
      "stateMutability": "nonpayable",
      "type": "function"
    },
    {
      "inputs": [
        {
          "internalType": "uint16",
          "name": "_remoteChainId",
          "type": "uint16"
        },
        {
          "internalType": "bytes",
          "name": "_remoteAddress",
          "type": "bytes"
        }
      ],
      "name": "setTrustedRemoteAddress",
      "outputs": [],
      "stateMutability": "nonpayable",
      "type": "function"
    },
    {
      "inputs": [
        {
          "internalType": "address",
          "name": "newOwner",
          "type": "address"
        }
      ],
      "name": "transferOwnership",
      "outputs": [],
      "stateMutability": "nonpayable",
      "type": "function"
    },
    {
      "inputs": [
        {
          "internalType": "uint16",
          "name": "",
          "type": "uint16"
        }
      ],
      "name": "trustedRemoteLookup",
      "outputs": [
        {
          "internalType": "bytes",
          "name": "",
          "type": "bytes"
        }
      ],
      "stateMutability": "view",
      "type": "function"
    },
    {
      "inputs": [
        {
          "internalType": "uint16[]",
          "name": "_chainIds",
          "type": "uint16[]"
        },
        {
          "internalType": "uint8[]",
          "name": "_types",
          "type": "uint8[]"
        },
        {
          "internalType": "uint256[]",
          "name": "_gas",
          "type": "uint256[]"
        }
      ],
      "name": "updateGasLookup",
      "outputs": [],
      "stateMutability": "nonpayable",
      "type": "function"
    },
    {
      "inputs": [
        {
          "internalType": "address",
          "name": "_router",
          "type": "address"
        }
      ],
      "name": "updateRouter",
      "outputs": [],
      "stateMutability": "nonpayable",
      "type": "function"
    },
    {
      "inputs": [],
      "name": "useLzToken",
      "outputs": [
        {
          "internalType": "bool",
          "name": "",
          "type": "bool"
        }
      ],
      "stateMutability": "view",
      "type": "function"
    }
  ],
  "transactionHash": "0xcf912bb2ab79599d5cadd149de3fe8fcb03d7576fe840c37091739e1aba6ede9",
  "args": [
    "0x6aB5Ae6822647046626e83ee6dB8187151E1d5ab"
  ],
  "numDeployments": 1,
  "solcInputHash": "7dac2e5858b9ec398e69beb47a180f6e",
  "bytecode": "0x60a06040523480156200001157600080fd5b5060405162002a0138038062002a018339810160408190526200003491620000a3565b80620000403362000053565b6001600160a01b031660805250620000d5565b600080546001600160a01b038381166001600160a01b0319831681178455604051919092169283917f8be0079c531659141344cd1fd0a4f28419497f9722a3daafe3b4186f6b6457e09190a35050565b600060208284031215620000b657600080fd5b81516001600160a01b0381168114620000ce57600080fd5b9392505050565b6080516128d16200013060003960008181610450015281816105ab015281816107fa015281816108a2015281816109c401528181610b3501528181610efa0152818161122f0152818161133e01526115f401526128d16000f3fe6080604052600436106101815760003560e01c80638da5cb5b116100d7578063c851cc3211610085578063c851cc32146104a8578063cbed8b9c146104c8578063cc6b6f73146104e8578063df2a5b3b14610508578063eb8d72b714610528578063f2fde38b14610548578063f5ecbdbc14610568578063f887ea401461058857600080fd5b80638da5cb5b146103ac578063950c8a74146103de5780639f38369a146103fe578063a6c3d1651461041e578063b353aaa71461043e578063baf3292d14610472578063c44618341461049257600080fd5b80633f1f4fa4116101345780633f1f4fa41461029d57806342d65a8d146102ca57806350df239b146102ea57806371210d251461031f578063715018a6146103325780637533d788146103475780638cfd8f5c1461037457600080fd5b80621d35671461018657806302422054146101a857806307e0db17146101f35780630df374831461021357806310ddb1371461023357806325b04e46146102535780633d8b38f61461027d575b600080fd5b34801561019257600080fd5b506101a66101a13660046118ee565b6105a8565b005b3480156101b457600080fd5b506101e06101c3366004611996565b600660209081526000928352604080842090915290825290205481565b6040519081526020015b60405180910390f35b3480156101ff57600080fd5b506101a661020e3660046119cd565b6107d9565b34801561021f57600080fd5b506101a661022e3660046119e8565b610862565b34801561023f57600080fd5b506101a661024e3660046119cd565b610881565b34801561025f57600080fd5b5060075461026d9060ff1681565b60405190151581526020016101ea565b34801561028957600080fd5b5061026d610298366004611a12565b6108d9565b3480156102a957600080fd5b506101e06102b83660046119cd565b60036020526000908152604090205481565b3480156102d657600080fd5b506101a66102e5366004611a12565b6109a5565b3480156102f657600080fd5b5061030a610305366004611bc7565b610a2b565b604080519283526020830191909152016101ea565b6101a661032d366004611c68565b610bc4565b34801561033e57600080fd5b506101a6610c08565b34801561035357600080fd5b506103676103623660046119cd565b610c1c565b6040516101ea9190611df8565b34801561038057600080fd5b506101e061038f366004611e0b565b600260209081526000928352604080842090915290825290205481565b3480156103b857600080fd5b506000546001600160a01b03165b6040516001600160a01b0390911681526020016101ea565b3480156103ea57600080fd5b506004546103c6906001600160a01b031681565b34801561040a57600080fd5b506103676104193660046119cd565b610cb6565b34801561042a57600080fd5b506101a6610439366004611a12565b610dcc565b34801561044a57600080fd5b506103c67f000000000000000000000000000000000000000000000000000000000000000081565b34801561047e57600080fd5b506101a661048d366004611e3e565b610e55565b34801561049e57600080fd5b506101e061271081565b3480156104b457600080fd5b506101a66104c3366004611e3e565b610eb1565b3480156104d457600080fd5b506101a66104e3366004611e5b565b610edb565b3480156104f457600080fd5b506101a6610503366004611fb6565b610f70565b34801561051457600080fd5b506101a6610523366004612099565b611079565b34801561053457600080fd5b506101a6610543366004611a12565b61112b565b34801561055457600080fd5b506101a6610563366004611e3e565b611185565b34801561057457600080fd5b506103676105833660046120d5565b6111fe565b34801561059457600080fd5b506005546103c6906001600160a01b031681565b337f00000000000000000000000000000000000000000000000000000000000000006001600160a01b0316146106255760405162461bcd60e51b815260206004820152601e60248201527f4c7a4170703a20696e76616c696420656e64706f696e742063616c6c6572000060448201526064015b60405180910390fd5b61ffff86166000908152600160205260408120805461064390612122565b80601f016020809104026020016040519081016040528092919081815260200182805461066f90612122565b80156106bc5780601f10610691576101008083540402835291602001916106bc565b820191906000526020600020905b81548152906001019060200180831161069f57829003601f168201915b505050505090508051868690501480156106d7575060008151115b80156106ff5750805160208201206040516106f5908890889061215c565b6040518091039020145b61075a5760405162461bcd60e51b815260206004820152602660248201527f4c7a4170703a20696e76616c696420736f757263652073656e64696e6720636f6044820152651b9d1c9858dd60d21b606482015260840161061c565b6107d08787878080601f01602080910402602001604051908101604052809392919081815260200183838082843760009201919091525050604080516020601f8a018190048102820181019092528881528a9350915088908890819084018382808284376000920191909152506112af92505050565b50505050505050565b6107e16113a6565b6040516307e0db1760e01b815261ffff821660048201527f00000000000000000000000000000000000000000000000000000000000000006001600160a01b0316906307e0db17906024015b600060405180830381600087803b15801561084757600080fd5b505af115801561085b573d6000803e3d6000fd5b5050505050565b61086a6113a6565b61ffff909116600090815260036020526040902055565b6108896113a6565b6040516310ddb13760e01b815261ffff821660048201527f00000000000000000000000000000000000000000000000000000000000000006001600160a01b0316906310ddb1379060240161082d565b61ffff8316600090815260016020526040812080548291906108fa90612122565b80601f016020809104026020016040519081016040528092919081815260200182805461092690612122565b80156109735780601f1061094857610100808354040283529160200191610973565b820191906000526020600020905b81548152906001019060200180831161095657829003601f168201915b50505050509050838360405161098a92919061215c565b60405180910390208180519060200120149150509392505050565b6109ad6113a6565b6040516342d65a8d60e01b81526001600160a01b037f000000000000000000000000000000000000000000000000000000000000000016906342d65a8d906109fd90869086908690600401612195565b600060405180830381600087803b158015610a1757600080fd5b505af11580156107d0573d6000803e3d6000fd5b600080606060001960ff881601610ac3576040805160a08101825260018082526020808301829052828401919091528251808401845260048152634e616d6560e01b81830152606083015282518084018452600681526514de5b589bdb60d21b818301526080830152865192519192610aac928b9285928c928c920161220b565b604051602081830303815290604052915050610b0b565b60405162461bcd60e51b815260206004820152601d60248201527f4f43504272696467653a20696e76616c69642071756f74652074797065000000604482015260640161061c565b6000610b18898987611400565b60075460405163040a7bb160e41b81529192506001600160a01b037f000000000000000000000000000000000000000000000000000000000000000016916340a7bb1091610b74918d913091889160ff1690889060040161224d565b6040805180830381865afa158015610b90573d6000803e3d6000fd5b505050506040513d601f19601f82011682018060405250810190610bb491906122a1565b9350935050509550959350505050565b8051604051600091610bdf91879187918791906020016122c5565b60405160208183030381529060405290506107d087828830610c028c8b89611400565b346114cb565b610c106113a6565b610c1a600061164e565b565b60016020526000908152604090208054610c3590612122565b80601f0160208091040260200160405190810160405280929190818152602001828054610c6190612122565b8015610cae5780601f10610c8357610100808354040283529160200191610cae565b820191906000526020600020905b815481529060010190602001808311610c9157829003601f168201915b505050505081565b61ffff8116600090815260016020526040812080546060929190610cd990612122565b80601f0160208091040260200160405190810160405280929190818152602001828054610d0590612122565b8015610d525780601f10610d2757610100808354040283529160200191610d52565b820191906000526020600020905b815481529060010190602001808311610d3557829003601f168201915b505050505090508051600003610daa5760405162461bcd60e51b815260206004820152601d60248201527f4c7a4170703a206e6f20747275737465642070617468207265636f7264000000604482015260640161061c565b610dc5600060148351610dbd919061231b565b83919061169e565b9392505050565b610dd46113a6565b818130604051602001610de993929190612334565b60408051601f1981840301815291815261ffff8516600090815260016020522090610e1490826123bd565b507f8c0400cfe2d1199b1a725c78960bcc2a344d869b80590d0f2bd005db15a572ce838383604051610e4893929190612195565b60405180910390a1505050565b610e5d6113a6565b600480546001600160a01b0319166001600160a01b0383169081179091556040519081527f5db758e995a17ec1ad84bdef7e8c3293a0bd6179bcce400dff5d4c3d87db726b9060200160405180910390a150565b610eb96113a6565b600580546001600160a01b0319166001600160a01b0392909216919091179055565b610ee36113a6565b6040516332fb62e760e21b81526001600160a01b037f0000000000000000000000000000000000000000000000000000000000000000169063cbed8b9c90610f379088908890889088908890600401612476565b600060405180830381600087803b158015610f5157600080fd5b505af1158015610f65573d6000803e3d6000fd5b505050505050505050565b610f786113a6565b81518351148015610f8a575080518351145b610fd25760405162461bcd60e51b81526020600482015260196024820152784f43504272696467653a20696e76616c696420706172616d7360381b604482015260640161061c565b60005b835181101561107357818181518110610ff057610ff06124af565b60200260200101516006600086848151811061100e5761100e6124af565b602002602001015161ffff1661ffff1681526020019081526020016000206000858481518110611040576110406124af565b602002602001015160ff1660ff16815260200190815260200160002081905550808061106b906124c5565b915050610fd5565b50505050565b6110816113a6565b600081116110c95760405162461bcd60e51b81526020600482015260156024820152744c7a4170703a20696e76616c6964206d696e47617360581b604482015260640161061c565b61ffff83811660008181526002602090815260408083209487168084529482529182902085905581519283528201929092529081018290527f9d5c7c0b934da8fefa9c7760c98383778a12dfbfc0c3b3106518f43fb9508ac090606001610e48565b6111336113a6565b61ffff831660009081526001602052604090206111518284836124de565b507ffa41487ad5d6728f0b19276fa1eddc16558578f5109fc39d2dc33c3230470dab838383604051610e4893929190612195565b61118d6113a6565b6001600160a01b0381166111f25760405162461bcd60e51b815260206004820152602660248201527f4f776e61626c653a206e6577206f776e657220697320746865207a65726f206160448201526564647265737360d01b606482015260840161061c565b6111fb8161164e565b50565b604051633d7b2f6f60e21b815261ffff808616600483015284166024820152306044820152606481018290526060907f00000000000000000000000000000000000000000000000000000000000000006001600160a01b03169063f5ecbdbc90608401600060405180830381865afa15801561127e573d6000803e3d6000fd5b505050506040513d6000823e601f3d908101601f191682016040526112a691908101906125e4565b95945050505050565b602081015160001960ff82160161085b576000806000848060200190518101906112d99190612618565b935093509350506113066040518060600160405280602381526020016128796023913984606001516117ab565b60055460405163388027ed60e21b81526001600160a01b039091169063e2009fb49061136a908b908b908b9060ff8b16600114908a907f0000000000000000000000000000000000000000000000000000000000000000908a908c90600401612719565b600060405180830381600087803b15801561138457600080fd5b505af1158015611398573d6000803e3d6000fd5b505050505050505050505050565b6000546001600160a01b03163314610c1a5760405162461bcd60e51b815260206004820181905260248201527f4f776e61626c653a2063616c6c6572206973206e6f7420746865206f776e6572604482015260640161061c565b60408082015160140151825161ffff861660009081526006602090815284822060ff88168352905292832054606093849392909161143e919061279b565b90506000856020015111801561145c57506001600160a01b03821615155b15611497576002818660200151876040015160405160200161148194939291906127ae565b60405160208183030381529060405292506114c0565b604051600160f01b60208201526022810182905260420160405160208183030381529060405292505b509095945050505050565b61ffff8616600090815260016020526040812080546114e990612122565b80601f016020809104026020016040519081016040528092919081815260200182805461151590612122565b80156115625780601f1061153757610100808354040283529160200191611562565b820191906000526020600020905b81548152906001019060200180831161154557829003601f168201915b5050505050905080516000036115d35760405162461bcd60e51b815260206004820152603060248201527f4c7a4170703a2064657374696e6174696f6e20636861696e206973206e6f742060448201526f61207472757374656420736f7572636560801b606482015260840161061c565b6115de8787516117f4565b60405162c5803160e81b81526001600160a01b037f0000000000000000000000000000000000000000000000000000000000000000169063c5803100908490611635908b9086908c908c908c908c906004016127ec565b6000604051808303818588803b15801561138457600080fd5b600080546001600160a01b038381166001600160a01b0319831681178455604051919092169283917f8be0079c531659141344cd1fd0a4f28419497f9722a3daafe3b4186f6b6457e09190a35050565b6060816116ac81601f61279b565b10156116eb5760405162461bcd60e51b815260206004820152600e60248201526d736c6963655f6f766572666c6f7760901b604482015260640161061c565b6116f5828461279b565b845110156117395760405162461bcd60e51b8152602060048201526011602482015270736c6963655f6f75744f66426f756e647360781b604482015260640161061c565b60608215801561175857604051915060008252602082016040526117a2565b6040519150601f8416801560200281840101858101878315602002848b0101015b81831015611791578051835260209283019201611779565b5050858452601f01601f1916604052505b50949350505050565b6117f082826040516024016117c1929190612853565b60408051601f198184030181529190526020810180516001600160e01b0316634b5c427760e01b17905261186a565b5050565b61ffff82166000908152600360205260408120549081900361181557506127105b808211156118655760405162461bcd60e51b815260206004820181905260248201527f4c7a4170703a207061796c6f61642073697a6520697320746f6f206c61726765604482015260640161061c565b505050565b6111fb8160006a636f6e736f6c652e6c6f679050600080835160208501845afa505050565b803561ffff811681146118a157600080fd5b919050565b60008083601f8401126118b857600080fd5b5081356001600160401b038111156118cf57600080fd5b6020830191508360208285010111156118e757600080fd5b9250929050565b6000806000806000806080878903121561190757600080fd5b6119108761188f565b955060208701356001600160401b038082111561192c57600080fd5b6119388a838b016118a6565b909750955060408901359150808216821461195257600080fd5b9093506060880135908082111561196857600080fd5b5061197589828a016118a6565b979a9699509497509295939492505050565b60ff811681146111fb57600080fd5b600080604083850312156119a957600080fd5b6119b28361188f565b915060208301356119c281611987565b809150509250929050565b6000602082840312156119df57600080fd5b610dc58261188f565b600080604083850312156119fb57600080fd5b611a048361188f565b946020939093013593505050565b600080600060408486031215611a2757600080fd5b611a308461188f565b925060208401356001600160401b03811115611a4b57600080fd5b611a57868287016118a6565b9497909650939450505050565b634e487b7160e01b600052604160045260246000fd5b60405160a081016001600160401b0381118282101715611a9c57611a9c611a64565b60405290565b604051601f8201601f191681016001600160401b0381118282101715611aca57611aca611a64565b604052919050565b60006001600160401b03821115611aeb57611aeb611a64565b50601f01601f191660200190565b600082601f830112611b0a57600080fd5b8135611b1d611b1882611ad2565b611aa2565b818152846020838601011115611b3257600080fd5b816020850160208301376000918101602001919091529392505050565b600060608284031215611b6157600080fd5b604051606081016001600160401b038282108183111715611b8457611b84611a64565b8160405282935084358352602085013560208401526040850135915080821115611bad57600080fd5b50611bba85828601611af9565b6040830152505092915050565b600080600080600060808688031215611bdf57600080fd5b611be88661188f565b94506020860135611bf881611987565b935060408601356001600160401b0380821115611c1457600080fd5b611c2089838a016118a6565b90955093506060880135915080821115611c3957600080fd5b50611c4688828901611b4f565b9150509295509295909350565b6001600160a01b03811681146111fb57600080fd5b60008060008060008060c08789031215611c8157600080fd5b611c8a8761188f565b95506020870135611c9a81611c53565b94506040870135611caa81611987565b935060608701356001600160401b0380821115611cc657600080fd5b9088019060a0828b031215611cda57600080fd5b611ce2611a7a565b8235611ced81611c53565b8152602083810135908201526040830135611d0781611c53565b6040820152606083013582811115611d1e57600080fd5b611d2a8c828601611af9565b606083015250608083013582811115611d4257600080fd5b611d4e8c828601611af9565b608083015250809550506080890135915080821115611d6c57600080fd5b611d788a838b01611af9565b935060a0890135915080821115611d8e57600080fd5b50611d9b89828a01611b4f565b9150509295509295509295565b60005b83811015611dc3578181015183820152602001611dab565b50506000910152565b60008151808452611de4816020860160208601611da8565b601f01601f19169290920160200192915050565b602081526000610dc56020830184611dcc565b60008060408385031215611e1e57600080fd5b611e278361188f565b9150611e356020840161188f565b90509250929050565b600060208284031215611e5057600080fd5b8135610dc581611c53565b600080600080600060808688031215611e7357600080fd5b611e7c8661188f565b9450611e8a6020870161188f565b93506040860135925060608601356001600160401b03811115611eac57600080fd5b611eb8888289016118a6565b969995985093965092949392505050565b60006001600160401b03821115611ee257611ee2611a64565b5060051b60200190565b600082601f830112611efd57600080fd5b81356020611f0d611b1883611ec9565b82815260059290921b84018101918181019086841115611f2c57600080fd5b8286015b84811015611f50578035611f4381611987565b8352918301918301611f30565b509695505050505050565b600082601f830112611f6c57600080fd5b81356020611f7c611b1883611ec9565b82815260059290921b84018101918181019086841115611f9b57600080fd5b8286015b84811015611f505780358352918301918301611f9f565b600080600060608486031215611fcb57600080fd5b83356001600160401b0380821115611fe257600080fd5b818601915086601f830112611ff657600080fd5b81356020612006611b1883611ec9565b82815260059290921b8401810191818101908a84111561202557600080fd5b948201945b8386101561204a5761203b8661188f565b8252948201949082019061202a565b9750508701359250508082111561206057600080fd5b61206c87838801611eec565b9350604086013591508082111561208257600080fd5b5061208f86828701611f5b565b9150509250925092565b6000806000606084860312156120ae57600080fd5b6120b78461188f565b92506120c56020850161188f565b9150604084013590509250925092565b600080600080608085870312156120eb57600080fd5b6120f48561188f565b93506121026020860161188f565b9250604085013561211281611c53565b9396929550929360600135925050565b600181811c9082168061213657607f821691505b60208210810361215657634e487b7160e01b600052602260045260246000fd5b50919050565b8183823760009101908152919050565b81835281816020850137506000828201602090810191909152601f909101601f19169091010190565b61ffff841681526040602082015260006112a660408301848661216c565b600060018060a01b038083511684526020830151602085015280604084015116604085015250606082015160a060608501526121f260a0850182611dcc565b9050608083015184820360808601526112a68282611dcc565b60ff8616815260806020820152600061222760808301876121b3565b828103604084015261223a81868861216c565b9150508260608301529695505050505050565b61ffff861681526001600160a01b038516602082015260a06040820181905260009061227b90830186611dcc565b841515606084015282810360808401526122958185611dcc565b98975050505050505050565b600080604083850312156122b457600080fd5b505080516020909101519092909150565b60ff851681526080602082015260006122e160808301866121b3565b82810360408401526122f38186611dcc565b91505082606083015295945050505050565b634e487b7160e01b600052601160045260246000fd5b8181038181111561232e5761232e612305565b92915050565b8284823760609190911b6bffffffffffffffffffffffff19169101908152601401919050565b601f82111561186557600081815260208120601f850160051c810160208610156123815750805b601f850160051c820191505b818110156123a05782815560010161238d565b505050505050565b600019600383901b1c191660019190911b1790565b81516001600160401b038111156123d6576123d6611a64565b6123ea816123e48454612122565b8461235a565b602080601f83116001811461241957600084156124075750858301515b61241185826123a8565b8655506123a0565b600085815260208120601f198616915b8281101561244857888601518255948401946001909101908401612429565b50858210156124665787850151600019600388901b60f8161c191681555b5050505050600190811b01905550565b600061ffff8088168352808716602084015250846040830152608060608301526124a460808301848661216c565b979650505050505050565b634e487b7160e01b600052603260045260246000fd5b6000600182016124d7576124d7612305565b5060010190565b6001600160401b038311156124f5576124f5611a64565b612509836125038354612122565b8361235a565b6000601f84116001811461253757600085156125255750838201355b61252f86826123a8565b84555061085b565b600083815260209020601f19861690835b828110156125685786850135825560209485019460019092019101612548565b50868210156125855760001960f88860031b161c19848701351681555b505060018560011b0183555050505050565b600082601f8301126125a857600080fd5b81516125b6611b1882611ad2565b8181528460208386010111156125cb57600080fd5b6125dc826020830160208701611da8565b949350505050565b6000602082840312156125f657600080fd5b81516001600160401b0381111561260c57600080fd5b6125dc84828501612597565b6000806000806080858703121561262e57600080fd5b845161263981611987565b60208601519094506001600160401b038082111561265657600080fd5b9086019060a0828903121561266a57600080fd5b612672611a7a565b825161267d81611c53565b815260208381015190820152604083015161269781611c53565b60408201526060830151828111156126ae57600080fd5b6126ba8a828601612597565b6060830152506080830151828111156126d257600080fd5b6126de8a828601612597565b60808301525060408801519095509150808211156126fb57600080fd5b5061270887828801612597565b606096909601519497939650505050565b600061010061ffff8b1683528060208401526127378184018b611dcc565b90506001600160401b03891660408401528715156060840152828103608084015261276281886121b3565b6001600160a01b03871660a085015260c0840186905283810360e0850152905061278c8185611dcc565b9b9a5050505050505050505050565b8082018082111561232e5761232e612305565b61ffff60f01b8560f01b168152836002820152826022820152600082516127dc816042850160208701611da8565b9190910160420195945050505050565b61ffff8716815260c06020820152600061280960c0830188611dcc565b828103604084015261281b8188611dcc565b6001600160a01b0387811660608601528616608085015283810360a085015290506128468185611dcc565b9998505050505050505050565b6040815260006128666040830185611dcc565b82810360208401526112a68185611dcc56fe23205479706531205265636569766564205375632c204465706c6f7920546f6b656e3aa26469706673582212209563070b742930ae4f9d149d8bbfeb2295915cb9f30fe7cb1701f14d8c93dc3264736f6c63430008110033",
  "devdoc": {
    "kind": "dev",
    "methods": {
      "omniMint(uint16,address,uint8,(address,uint256,address,string,string),bytes,(uint256,uint256,bytes))": {
        "details": "mint token on remote chain Requirements: - onlyRouter - _remoteChainId must be valid - _refundAddress must be valid - _type must be valid - _lzTxParams must be valid - _payload must be valid - _mintParams must be valid - _lzTxParams must be valid",
        "params": {
          "_lzTxParams": "layer zero tx params",
          "_mintParams": "mint params",
          "_payload": "user payload",
          "_refundAddress": "address to refund",
          "_remoteChainId": "remote chain id",
          "_type": "mint type"
        }
      },
      "owner()": {
        "details": "Returns the address of the current owner."
      },
      "quoteLayerZeroFee(uint16,uint8,bytes,(uint256,uint256,bytes))": {
        "details": "quote mint token on remote chain `quoteLayerZeroFee` is a helper function to estimate the fees for minting a token on a remote chain. `_type` is the type of minting operation to be performed on the remote chain. If `_type` is `TYPE_DEPLOY_AND_MINT`, then `_userPayload` is the payload to be sent to the remote chain. `_userPayload` is the payload to be sent to the remote chain. Requirements: - _remoteChainId must be valid - _type must be valid - _lzTxParams must be valid - _payload must be valid",
        "params": {
          "_lzTxParams": "layer zero tx params",
          "_remoteChainId": "remote chain id",
          "_type": "mint type",
          "_userPayload": "user payload"
        }
      },
      "renounceOwnership()": {
        "details": "Leaves the contract without owner. It will not be possible to call `onlyOwner` functions. Can only be called by the current owner. NOTE: Renouncing ownership will leave the contract without an owner, thereby disabling any functionality that is only available to the owner."
      },
      "transferOwnership(address)": {
        "details": "Transfers ownership of the contract to a new account (`newOwner`). Can only be called by the current owner."
      },
      "updateGasLookup(uint16[],uint8[],uint256[])": {
        "details": "update gas lookup `updateGasLookup` is a helper function to update the gas lookup table. `_chainIds` is the chain ids to be updated. `_types` is the types to be updated. The length of `_chainIds`, `_types` and `_gas` must be the same. Requirements: - onlyOwner - _chainIds, _types, _gas must be valid",
        "params": {
          "_chainIds": "remote chain ids",
          "_gas": "gas",
          "_types": "mint types"
        }
      },
      "updateRouter(address)": {
        "details": "update router `updateRouter` is a helper function to update the router contract. `_router` is the new router contract address. Requirements: - onlyOwner - _router must be valid",
        "params": {
          "_router": "router address"
        }
      }
    },
    "version": 1
  },
  "userdoc": {
    "kind": "user",
    "methods": {},
    "version": 1
  },
  "storageLayout": {
    "storage": [
      {
        "astId": 1079,
        "contract": "contracts/OCPBridge.sol:OCPBridge",
        "label": "_owner",
        "offset": 0,
        "slot": "0",
        "type": "t_address"
      },
      {
        "astId": 215,
        "contract": "contracts/OCPBridge.sol:OCPBridge",
        "label": "trustedRemoteLookup",
        "offset": 0,
        "slot": "1",
        "type": "t_mapping(t_uint16,t_bytes_storage)"
      },
      {
        "astId": 221,
        "contract": "contracts/OCPBridge.sol:OCPBridge",
        "label": "minDstGasLookup",
        "offset": 0,
        "slot": "2",
        "type": "t_mapping(t_uint16,t_mapping(t_uint16,t_uint256))"
      },
      {
        "astId": 225,
        "contract": "contracts/OCPBridge.sol:OCPBridge",
        "label": "payloadSizeLimitLookup",
        "offset": 0,
        "slot": "3",
        "type": "t_mapping(t_uint16,t_uint256)"
      },
      {
        "astId": 227,
        "contract": "contracts/OCPBridge.sol:OCPBridge",
        "label": "precrime",
        "offset": 0,
        "slot": "4",
        "type": "t_address"
      },
      {
        "astId": 1221,
        "contract": "contracts/OCPBridge.sol:OCPBridge",
        "label": "router",
        "offset": 0,
        "slot": "5",
        "type": "t_contract(IOCPRouter)1676"
      },
      {
        "astId": 1227,
        "contract": "contracts/OCPBridge.sol:OCPBridge",
        "label": "gasLookup",
        "offset": 0,
        "slot": "6",
        "type": "t_mapping(t_uint16,t_mapping(t_uint8,t_uint256))"
      },
      {
        "astId": 1229,
        "contract": "contracts/OCPBridge.sol:OCPBridge",
        "label": "useLzToken",
        "offset": 0,
        "slot": "7",
        "type": "t_bool"
      }
    ],
    "types": {
      "t_address": {
        "encoding": "inplace",
        "label": "address",
        "numberOfBytes": "20"
      },
      "t_bool": {
        "encoding": "inplace",
        "label": "bool",
        "numberOfBytes": "1"
      },
      "t_bytes_storage": {
        "encoding": "bytes",
        "label": "bytes",
        "numberOfBytes": "32"
      },
      "t_contract(IOCPRouter)1676": {
        "encoding": "inplace",
        "label": "contract IOCPRouter",
        "numberOfBytes": "20"
      },
      "t_mapping(t_uint16,t_bytes_storage)": {
        "encoding": "mapping",
        "key": "t_uint16",
        "label": "mapping(uint16 => bytes)",
        "numberOfBytes": "32",
        "value": "t_bytes_storage"
      },
      "t_mapping(t_uint16,t_mapping(t_uint16,t_uint256))": {
        "encoding": "mapping",
        "key": "t_uint16",
        "label": "mapping(uint16 => mapping(uint16 => uint256))",
        "numberOfBytes": "32",
        "value": "t_mapping(t_uint16,t_uint256)"
      },
      "t_mapping(t_uint16,t_mapping(t_uint8,t_uint256))": {
        "encoding": "mapping",
        "key": "t_uint16",
        "label": "mapping(uint16 => mapping(uint8 => uint256))",
        "numberOfBytes": "32",
        "value": "t_mapping(t_uint8,t_uint256)"
      },
      "t_mapping(t_uint16,t_uint256)": {
        "encoding": "mapping",
        "key": "t_uint16",
        "label": "mapping(uint16 => uint256)",
        "numberOfBytes": "32",
        "value": "t_uint256"
      },
      "t_mapping(t_uint8,t_uint256)": {
        "encoding": "mapping",
        "key": "t_uint8",
        "label": "mapping(uint8 => uint256)",
        "numberOfBytes": "32",
        "value": "t_uint256"
      },
      "t_uint16": {
        "encoding": "inplace",
        "label": "uint16",
        "numberOfBytes": "2"
      },
      "t_uint256": {
        "encoding": "inplace",
        "label": "uint256",
        "numberOfBytes": "32"
      },
      "t_uint8": {
        "encoding": "inplace",
        "label": "uint8",
        "numberOfBytes": "1"
      }
    }
  }
}