{
  "address": "0x16F1564b8167d76aDA45211eCF365b7C08A12272",
  "abi": [
    {
      "inputs": [
        {
          "internalType": "address",
          "name": "_lzEndpoint",
          "type": "address"
        }
      ],
      "stateMutability": "nonpayable",
      "type": "constructor"
    },
    {
      "anonymous": false,
      "inputs": [
        {
          "indexed": true,
          "internalType": "address",
          "name": "previousOwner",
          "type": "address"
        },
        {
          "indexed": true,
          "internalType": "address",
          "name": "newOwner",
          "type": "address"
        }
      ],
      "name": "OwnershipTransferred",
      "type": "event"
    },
    {
      "anonymous": false,
      "inputs": [
        {
          "indexed": false,
          "internalType": "uint16",
          "name": "_dstChainId",
          "type": "uint16"
        },
        {
          "indexed": false,
          "internalType": "uint16",
          "name": "_type",
          "type": "uint16"
        },
        {
          "indexed": false,
          "internalType": "uint256",
          "name": "_minDstGas",
          "type": "uint256"
        }
      ],
      "name": "SetMinDstGas",
      "type": "event"
    },
    {
      "anonymous": false,
      "inputs": [
        {
          "indexed": false,
          "internalType": "address",
          "name": "precrime",
          "type": "address"
        }
      ],
      "name": "SetPrecrime",
      "type": "event"
    },
    {
      "anonymous": false,
      "inputs": [
        {
          "indexed": false,
          "internalType": "uint16",
          "name": "_remoteChainId",
          "type": "uint16"
        },
        {
          "indexed": false,
          "internalType": "bytes",
          "name": "_path",
          "type": "bytes"
        }
      ],
      "name": "SetTrustedRemote",
      "type": "event"
    },
    {
      "anonymous": false,
      "inputs": [
        {
          "indexed": false,
          "internalType": "uint16",
          "name": "_remoteChainId",
          "type": "uint16"
        },
        {
          "indexed": false,
          "internalType": "bytes",
          "name": "_remoteAddress",
          "type": "bytes"
        }
      ],
      "name": "SetTrustedRemoteAddress",
      "type": "event"
    },
    {
      "inputs": [],
      "name": "DEFAULT_PAYLOAD_SIZE_LIMIT",
      "outputs": [
        {
          "internalType": "uint256",
          "name": "",
          "type": "uint256"
        }
      ],
      "stateMutability": "view",
      "type": "function"
    },
    {
      "inputs": [
        {
          "internalType": "uint16",
          "name": "_srcChainId",
          "type": "uint16"
        },
        {
          "internalType": "bytes",
          "name": "_srcAddress",
          "type": "bytes"
        }
      ],
      "name": "forceResumeReceive",
      "outputs": [],
      "stateMutability": "nonpayable",
      "type": "function"
    },
    {
      "inputs": [
        {
          "internalType": "uint16",
          "name": "",
          "type": "uint16"
        },
        {
          "internalType": "uint8",
          "name": "",
          "type": "uint8"
        }
      ],
      "name": "gasLookup",
      "outputs": [
        {
          "internalType": "uint256",
          "name": "",
          "type": "uint256"
        }
      ],
      "stateMutability": "view",
      "type": "function"
    },
    {
      "inputs": [
        {
          "internalType": "uint16",
          "name": "_version",
          "type": "uint16"
        },
        {
          "internalType": "uint16",
          "name": "_chainId",
          "type": "uint16"
        },
        {
          "internalType": "address",
          "name": "",
          "type": "address"
        },
        {
          "internalType": "uint256",
          "name": "_configType",
          "type": "uint256"
        }
      ],
      "name": "getConfig",
      "outputs": [
        {
          "internalType": "bytes",
          "name": "",
          "type": "bytes"
        }
      ],
      "stateMutability": "view",
      "type": "function"
    },
    {
      "inputs": [
        {
          "internalType": "uint16",
          "name": "_remoteChainId",
          "type": "uint16"
        }
      ],
      "name": "getTrustedRemoteAddress",
      "outputs": [
        {
          "internalType": "bytes",
          "name": "",
          "type": "bytes"
        }
      ],
      "stateMutability": "view",
      "type": "function"
    },
    {
      "inputs": [
        {
          "internalType": "uint16",
          "name": "_srcChainId",
          "type": "uint16"
        },
        {
          "internalType": "bytes",
          "name": "_srcAddress",
          "type": "bytes"
        }
      ],
      "name": "isTrustedRemote",
      "outputs": [
        {
          "internalType": "bool",
          "name": "",
          "type": "bool"
        }
      ],
      "stateMutability": "view",
      "type": "function"
    },
    {
      "inputs": [],
      "name": "lzEndpoint",
      "outputs": [
        {
          "internalType": "contract ILayerZeroEndpoint",
          "name": "",
          "type": "address"
        }
      ],
      "stateMutability": "view",
      "type": "function"
    },
    {
      "inputs": [
        {
          "internalType": "uint16",
          "name": "_srcChainId",
          "type": "uint16"
        },
        {
          "internalType": "bytes",
          "name": "_srcAddress",
          "type": "bytes"
        },
        {
          "internalType": "uint64",
          "name": "_nonce",
          "type": "uint64"
        },
        {
          "internalType": "bytes",
          "name": "_payload",
          "type": "bytes"
        }
      ],
      "name": "lzReceive",
      "outputs": [],
      "stateMutability": "nonpayable",
      "type": "function"
    },
    {
      "inputs": [
        {
          "internalType": "uint16",
          "name": "",
          "type": "uint16"
        },
        {
          "internalType": "uint16",
          "name": "",
          "type": "uint16"
        }
      ],
      "name": "minDstGasLookup",
      "outputs": [
        {
          "internalType": "uint256",
          "name": "",
          "type": "uint256"
        }
      ],
      "stateMutability": "view",
      "type": "function"
    },
    {
      "inputs": [
        {
          "internalType": "uint16",
          "name": "_remoteChainId",
          "type": "uint16"
        },
        {
          "internalType": "address payable",
          "name": "_refundAddress",
          "type": "address"
        },
        {
          "internalType": "uint8",
          "name": "_type",
          "type": "uint8"
        },
        {
          "components": [
            {
              "internalType": "address",
              "name": "srcToken",
              "type": "address"
            },
            {
              "internalType": "uint256",
              "name": "amount",
              "type": "uint256"
            },
            {
              "internalType": "address",
              "name": "to",
              "type": "address"
            },
            {
              "internalType": "string",
              "name": "name",
              "type": "string"
            },
            {
              "internalType": "string",
              "name": "symbol",
              "type": "string"
            }
          ],
          "internalType": "struct Structs.MintObj",
          "name": "_mintParams",
          "type": "tuple"
        },
        {
          "internalType": "bytes",
          "name": "_payload",
          "type": "bytes"
        },
        {
          "components": [
            {
              "internalType": "uint256",
              "name": "dstGasForCall",
              "type": "uint256"
            },
            {
              "internalType": "uint256",
              "name": "dstNativeAmount",
              "type": "uint256"
            },
            {
              "internalType": "bytes",
              "name": "dstNativeAddr",
              "type": "bytes"
            }
          ],
          "internalType": "struct Structs.LzTxObj",
          "name": "_lzTxParams",
          "type": "tuple"
        }
      ],
      "name": "omniMint",
      "outputs": [],
      "stateMutability": "payable",
      "type": "function"
    },
    {
      "inputs": [],
      "name": "owner",
      "outputs": [
        {
          "internalType": "address",
          "name": "",
          "type": "address"
        }
      ],
      "stateMutability": "view",
      "type": "function"
    },
    {
      "inputs": [
        {
          "internalType": "uint16",
          "name": "",
          "type": "uint16"
        }
      ],
      "name": "payloadSizeLimitLookup",
      "outputs": [
        {
          "internalType": "uint256",
          "name": "",
          "type": "uint256"
        }
      ],
      "stateMutability": "view",
      "type": "function"
    },
    {
      "inputs": [],
      "name": "precrime",
      "outputs": [
        {
          "internalType": "address",
          "name": "",
          "type": "address"
        }
      ],
      "stateMutability": "view",
      "type": "function"
    },
    {
      "inputs": [
        {
          "internalType": "uint16",
          "name": "_remoteChainId",
          "type": "uint16"
        },
        {
          "internalType": "uint8",
          "name": "_type",
          "type": "uint8"
        },
        {
          "internalType": "bytes",
          "name": "_userPayload",
          "type": "bytes"
        },
        {
          "components": [
            {
              "internalType": "uint256",
              "name": "dstGasForCall",
              "type": "uint256"
            },
            {
              "internalType": "uint256",
              "name": "dstNativeAmount",
              "type": "uint256"
            },
            {
              "internalType": "bytes",
              "name": "dstNativeAddr",
              "type": "bytes"
            }
          ],
          "internalType": "struct Structs.LzTxObj",
          "name": "_lzTxParams",
          "type": "tuple"
        }
      ],
      "name": "quoteLayerZeroFee",
      "outputs": [
        {
          "internalType": "uint256",
          "name": "",
          "type": "uint256"
        },
        {
          "internalType": "uint256",
          "name": "",
          "type": "uint256"
        }
      ],
      "stateMutability": "view",
      "type": "function"
    },
    {
      "inputs": [],
      "name": "renounceOwnership",
      "outputs": [],
      "stateMutability": "nonpayable",
      "type": "function"
    },
    {
      "inputs": [],
      "name": "router",
      "outputs": [
        {
          "internalType": "contract IOCPRouter",
          "name": "",
          "type": "address"
        }
      ],
      "stateMutability": "view",
      "type": "function"
    },
    {
      "inputs": [
        {
          "internalType": "uint16",
          "name": "_version",
          "type": "uint16"
        },
        {
          "internalType": "uint16",
          "name": "_chainId",
          "type": "uint16"
        },
        {
          "internalType": "uint256",
          "name": "_configType",
          "type": "uint256"
        },
        {
          "internalType": "bytes",
          "name": "_config",
          "type": "bytes"
        }
      ],
      "name": "setConfig",
      "outputs": [],
      "stateMutability": "nonpayable",
      "type": "function"
    },
    {
      "inputs": [
        {
          "internalType": "uint16",
          "name": "_dstChainId",
          "type": "uint16"
        },
        {
          "internalType": "uint16",
          "name": "_packetType",
          "type": "uint16"
        },
        {
          "internalType": "uint256",
          "name": "_minGas",
          "type": "uint256"
        }
      ],
      "name": "setMinDstGas",
      "outputs": [],
      "stateMutability": "nonpayable",
      "type": "function"
    },
    {
      "inputs": [
        {
          "internalType": "uint16",
          "name": "_dstChainId",
          "type": "uint16"
        },
        {
          "internalType": "uint256",
          "name": "_size",
          "type": "uint256"
        }
      ],
      "name": "setPayloadSizeLimit",
      "outputs": [],
      "stateMutability": "nonpayable",
      "type": "function"
    },
    {
      "inputs": [
        {
          "internalType": "address",
          "name": "_precrime",
          "type": "address"
        }
      ],
      "name": "setPrecrime",
      "outputs": [],
      "stateMutability": "nonpayable",
      "type": "function"
    },
    {
      "inputs": [
        {
          "internalType": "uint16",
          "name": "_version",
          "type": "uint16"
        }
      ],
      "name": "setReceiveVersion",
      "outputs": [],
      "stateMutability": "nonpayable",
      "type": "function"
    },
    {
      "inputs": [
        {
          "internalType": "uint16",
          "name": "_version",
          "type": "uint16"
        }
      ],
      "name": "setSendVersion",
      "outputs": [],
      "stateMutability": "nonpayable",
      "type": "function"
    },
    {
      "inputs": [
        {
          "internalType": "uint16",
          "name": "_remoteChainId",
          "type": "uint16"
        },
        {
          "internalType": "bytes",
          "name": "_path",
          "type": "bytes"
        }
      ],
      "name": "setTrustedRemote",
      "outputs": [],
      "stateMutability": "nonpayable",
      "type": "function"
    },
    {
      "inputs": [
        {
          "internalType": "uint16",
          "name": "_remoteChainId",
          "type": "uint16"
        },
        {
          "internalType": "bytes",
          "name": "_remoteAddress",
          "type": "bytes"
        }
      ],
      "name": "setTrustedRemoteAddress",
      "outputs": [],
      "stateMutability": "nonpayable",
      "type": "function"
    },
    {
      "inputs": [
        {
          "internalType": "address",
          "name": "newOwner",
          "type": "address"
        }
      ],
      "name": "transferOwnership",
      "outputs": [],
      "stateMutability": "nonpayable",
      "type": "function"
    },
    {
      "inputs": [
        {
          "internalType": "uint16",
          "name": "",
          "type": "uint16"
        }
      ],
      "name": "trustedRemoteLookup",
      "outputs": [
        {
          "internalType": "bytes",
          "name": "",
          "type": "bytes"
        }
      ],
      "stateMutability": "view",
      "type": "function"
    },
    {
      "inputs": [
        {
          "internalType": "uint16[]",
          "name": "_chainIds",
          "type": "uint16[]"
        },
        {
          "internalType": "uint8[]",
          "name": "_types",
          "type": "uint8[]"
        },
        {
          "internalType": "uint256[]",
          "name": "_gas",
          "type": "uint256[]"
        }
      ],
      "name": "updateGasLookups",
      "outputs": [],
      "stateMutability": "nonpayable",
      "type": "function"
    },
    {
      "inputs": [
        {
          "internalType": "address",
          "name": "_router",
          "type": "address"
        }
      ],
      "name": "updateRouter",
      "outputs": [],
      "stateMutability": "nonpayable",
      "type": "function"
    },
    {
      "inputs": [
        {
          "internalType": "uint16[]",
          "name": "_remoteChainIds",
          "type": "uint16[]"
        },
        {
          "internalType": "bytes[]",
          "name": "_paths",
          "type": "bytes[]"
        }
      ],
      "name": "updateTrustedRemotes",
      "outputs": [],
      "stateMutability": "nonpayable",
      "type": "function"
    },
    {
      "inputs": [],
      "name": "useLzToken",
      "outputs": [
        {
          "internalType": "bool",
          "name": "",
          "type": "bool"
        }
      ],
      "stateMutability": "view",
      "type": "function"
    }
  ],
  "transactionHash": "0xce834c260f01c097a60c477baaf92f566f52b5ac6e9a2919bdfa7893d87d12ea",
  "args": [
    "0x6aB5Ae6822647046626e83ee6dB8187151E1d5ab"
  ],
  "numDeployments": 1,
  "solcInputHash": "6b4c17256240c5c602ef3043ce1255a3",
  "bytecode": "0x60a06040523480156200001157600080fd5b5060405162002c5738038062002c578339810160408190526200003491620000a3565b80620000403362000053565b6001600160a01b031660805250620000d5565b600080546001600160a01b038381166001600160a01b0319831681178455604051919092169283917f8be0079c531659141344cd1fd0a4f28419497f9722a3daafe3b4186f6b6457e09190a35050565b600060208284031215620000b657600080fd5b81516001600160a01b0381168114620000ce57600080fd5b9392505050565b608051612b27620001306000396000818161049b015281816105d601528181610825015281816108cd01528181610b2601528181610c9701528181611139015281816113650152818161146c01526117220152612b276000f3fe60806040526004361061018c5760003560e01c80638cfd8f5c116100d7578063c446183411610085578063c4461834146104dd578063c851cc32146104f3578063cbed8b9c14610513578063df2a5b3b14610533578063eb8d72b714610553578063f2fde38b14610573578063f5ecbdbc14610593578063f887ea40146105b357600080fd5b80638cfd8f5c146103bf5780638da5cb5b146103f7578063950c8a74146104295780639f38369a14610449578063a6c3d16514610469578063b353aaa714610489578063baf3292d146104bd57600080fd5b80633d8b38f61161013f5780633d8b38f6146102a85780633f1f4fa4146102c857806342d65a8d146102f557806350df239b1461031557806358f932631461034a57806371210d251461036a578063715018a61461037d5780637533d7881461039257600080fd5b80621d35671461019157806302422054146101b357806307e0db17146101fe5780630df374831461021e57806310ddb1371461023e57806325b04e461461025e5780632aebec3614610288575b600080fd5b34801561019d57600080fd5b506101b16101ac366004611a1c565b6105d3565b005b3480156101bf57600080fd5b506101eb6101ce366004611ac4565b600660209081526000928352604080842090915290825290205481565b6040519081526020015b60405180910390f35b34801561020a57600080fd5b506101b1610219366004611afb565b610804565b34801561022a57600080fd5b506101b1610239366004611b16565b61088d565b34801561024a57600080fd5b506101b1610259366004611afb565b6108ac565b34801561026a57600080fd5b506007546102789060ff1681565b60405190151581526020016101f5565b34801561029457600080fd5b506101b16102a3366004611b84565b610904565b3480156102b457600080fd5b506102786102c3366004611bef565b610a3b565b3480156102d457600080fd5b506101eb6102e3366004611afb565b60036020526000908152604090205481565b34801561030157600080fd5b506101b1610310366004611bef565b610b07565b34801561032157600080fd5b50610335610330366004611da4565b610b8d565b604080519283526020830191909152016101f5565b34801561035657600080fd5b506101b1610365366004611f1d565b610d26565b6101b1610378366004612015565b610e03565b34801561038957600080fd5b506101b1610e47565b34801561039e57600080fd5b506103b26103ad366004611afb565b610e5b565b6040516101f591906121a5565b3480156103cb57600080fd5b506101eb6103da3660046121b8565b600260209081526000928352604080842090915290825290205481565b34801561040357600080fd5b506000546001600160a01b03165b6040516001600160a01b0390911681526020016101f5565b34801561043557600080fd5b50600454610411906001600160a01b031681565b34801561045557600080fd5b506103b2610464366004611afb565b610ef5565b34801561047557600080fd5b506101b1610484366004611bef565b61100b565b34801561049557600080fd5b506104117f000000000000000000000000000000000000000000000000000000000000000081565b3480156104c957600080fd5b506101b16104d83660046121eb565b611094565b3480156104e957600080fd5b506101eb61271081565b3480156104ff57600080fd5b506101b161050e3660046121eb565b6110f0565b34801561051f57600080fd5b506101b161052e366004612208565b61111a565b34801561053f57600080fd5b506101b161054e366004612276565b6111af565b34801561055f57600080fd5b506101b161056e366004611bef565b611261565b34801561057f57600080fd5b506101b161058e3660046121eb565b6112bb565b34801561059f57600080fd5b506103b26105ae3660046122b2565b611334565b3480156105bf57600080fd5b50600554610411906001600160a01b031681565b337f00000000000000000000000000000000000000000000000000000000000000006001600160a01b0316146106505760405162461bcd60e51b815260206004820152601e60248201527f4c7a4170703a20696e76616c696420656e64706f696e742063616c6c6572000060448201526064015b60405180910390fd5b61ffff86166000908152600160205260408120805461066e906122ff565b80601f016020809104026020016040519081016040528092919081815260200182805461069a906122ff565b80156106e75780601f106106bc576101008083540402835291602001916106e7565b820191906000526020600020905b8154815290600101906020018083116106ca57829003601f168201915b50505050509050805186869050148015610702575060008151115b801561072a5750805160208201206040516107209088908890612339565b6040518091039020145b6107855760405162461bcd60e51b815260206004820152602660248201527f4c7a4170703a20696e76616c696420736f757263652073656e64696e6720636f6044820152651b9d1c9858dd60d21b6064820152608401610647565b6107fb8787878080601f01602080910402602001604051908101604052809392919081815260200183838082843760009201919091525050604080516020601f8a018190048102820181019092528881528a9350915088908890819084018382808284376000920191909152506113e592505050565b50505050505050565b61080c6114d4565b6040516307e0db1760e01b815261ffff821660048201527f00000000000000000000000000000000000000000000000000000000000000006001600160a01b0316906307e0db17906024015b600060405180830381600087803b15801561087257600080fd5b505af1158015610886573d6000803e3d6000fd5b5050505050565b6108956114d4565b61ffff909116600090815260036020526040902055565b6108b46114d4565b6040516310ddb13760e01b815261ffff821660048201527f00000000000000000000000000000000000000000000000000000000000000006001600160a01b0316906310ddb13790602401610858565b61090c6114d4565b82811461092b5760405162461bcd60e51b815260040161064790612349565b60005b83811015610886578282828181106109485761094861237c565b905060200281019061095a9190612392565b600160008888868181106109705761097061237c565b90506020020160208101906109859190611afb565b61ffff1681526020810191909152604001600020916109a591908361243b565b507ffa41487ad5d6728f0b19276fa1eddc16558578f5109fc39d2dc33c3230470dab8585838181106109d9576109d961237c565b90506020020160208101906109ee9190611afb565b848484818110610a0057610a0061237c565b9050602002810190610a129190612392565b604051610a219392919061251d565b60405180910390a180610a3381612551565b91505061092e565b61ffff831660009081526001602052604081208054829190610a5c906122ff565b80601f0160208091040260200160405190810160405280929190818152602001828054610a88906122ff565b8015610ad55780601f10610aaa57610100808354040283529160200191610ad5565b820191906000526020600020905b815481529060010190602001808311610ab857829003601f168201915b505050505090508383604051610aec929190612339565b60405180910390208180519060200120149150509392505050565b610b0f6114d4565b6040516342d65a8d60e01b81526001600160a01b037f000000000000000000000000000000000000000000000000000000000000000016906342d65a8d90610b5f9086908690869060040161251d565b600060405180830381600087803b158015610b7957600080fd5b505af11580156107fb573d6000803e3d6000fd5b600080606060001960ff881601610c25576040805160a08101825260018082526020808301829052828401919091528251808401845260048152634e616d6560e01b81830152606083015282518084018452600681526514de5b589bdb60d21b818301526080830152865192519192610c0e928b9285928c928c92016125c2565b604051602081830303815290604052915050610c6d565b60405162461bcd60e51b815260206004820152601d60248201527f4f43504272696467653a20696e76616c69642071756f746520747970650000006044820152606401610647565b6000610c7a89898761152e565b60075460405163040a7bb160e41b81529192506001600160a01b037f000000000000000000000000000000000000000000000000000000000000000016916340a7bb1091610cd6918d913091889160ff16908890600401612604565b6040805180830381865afa158015610cf2573d6000803e3d6000fd5b505050506040513d601f19601f82011682018060405250810190610d169190612658565b9350935050509550959350505050565b610d2e6114d4565b81518351148015610d40575080518351145b610d5c5760405162461bcd60e51b815260040161064790612349565b60005b8351811015610dfd57818181518110610d7a57610d7a61237c565b602002602001015160066000868481518110610d9857610d9861237c565b602002602001015161ffff1661ffff1681526020019081526020016000206000858481518110610dca57610dca61237c565b602002602001015160ff1660ff168152602001908152602001600020819055508080610df590612551565b915050610d5f565b50505050565b8051604051600091610e1e918791879187919060200161267c565b60405160208183030381529060405290506107fb87828830610e418c8b8961152e565b346115f9565b610e4f6114d4565b610e59600061177c565b565b60016020526000908152604090208054610e74906122ff565b80601f0160208091040260200160405190810160405280929190818152602001828054610ea0906122ff565b8015610eed5780601f10610ec257610100808354040283529160200191610eed565b820191906000526020600020905b815481529060010190602001808311610ed057829003601f168201915b505050505081565b61ffff8116600090815260016020526040812080546060929190610f18906122ff565b80601f0160208091040260200160405190810160405280929190818152602001828054610f44906122ff565b8015610f915780601f10610f6657610100808354040283529160200191610f91565b820191906000526020600020905b815481529060010190602001808311610f7457829003601f168201915b505050505090508051600003610fe95760405162461bcd60e51b815260206004820152601d60248201527f4c7a4170703a206e6f20747275737465642070617468207265636f72640000006044820152606401610647565b611004600060148351610ffc91906126bc565b8391906117cc565b9392505050565b6110136114d4565b818130604051602001611028939291906126d5565b60408051601f1981840301815291815261ffff851660009081526001602052209061105390826126fb565b507f8c0400cfe2d1199b1a725c78960bcc2a344d869b80590d0f2bd005db15a572ce8383836040516110879392919061251d565b60405180910390a1505050565b61109c6114d4565b600480546001600160a01b0319166001600160a01b0383169081179091556040519081527f5db758e995a17ec1ad84bdef7e8c3293a0bd6179bcce400dff5d4c3d87db726b9060200160405180910390a150565b6110f86114d4565b600580546001600160a01b0319166001600160a01b0392909216919091179055565b6111226114d4565b6040516332fb62e760e21b81526001600160a01b037f0000000000000000000000000000000000000000000000000000000000000000169063cbed8b9c9061117690889088908890889088906004016127b4565b600060405180830381600087803b15801561119057600080fd5b505af11580156111a4573d6000803e3d6000fd5b505050505050505050565b6111b76114d4565b600081116111ff5760405162461bcd60e51b81526020600482015260156024820152744c7a4170703a20696e76616c6964206d696e47617360581b6044820152606401610647565b61ffff83811660008181526002602090815260408083209487168084529482529182902085905581519283528201929092529081018290527f9d5c7c0b934da8fefa9c7760c98383778a12dfbfc0c3b3106518f43fb9508ac090606001611087565b6112696114d4565b61ffff8316600090815260016020526040902061128782848361243b565b507ffa41487ad5d6728f0b19276fa1eddc16558578f5109fc39d2dc33c3230470dab8383836040516110879392919061251d565b6112c36114d4565b6001600160a01b0381166113285760405162461bcd60e51b815260206004820152602660248201527f4f776e61626c653a206e6577206f776e657220697320746865207a65726f206160448201526564647265737360d01b6064820152608401610647565b6113318161177c565b50565b604051633d7b2f6f60e21b815261ffff808616600483015284166024820152306044820152606481018290526060907f00000000000000000000000000000000000000000000000000000000000000006001600160a01b03169063f5ecbdbc90608401600060405180830381865afa1580156113b4573d6000803e3d6000fd5b505050506040513d6000823e601f3d908101601f191682016040526113dc919081019061283a565b95945050505050565b600060208201519050600080600084806020019051810190611407919061286e565b93509350935050611434604051806060016040528060238152602001612acf6023913984606001516118d9565b60055460405163388027ed60e21b81526001600160a01b039091169063e2009fb490611498908b908b908b9060ff8b16600114908a907f0000000000000000000000000000000000000000000000000000000000000000908a908c9060040161296f565b600060405180830381600087803b1580156114b257600080fd5b505af11580156114c6573d6000803e3d6000fd5b505050505050505050505050565b6000546001600160a01b03163314610e595760405162461bcd60e51b815260206004820181905260248201527f4f776e61626c653a2063616c6c6572206973206e6f7420746865206f776e65726044820152606401610647565b60408082015160140151825161ffff861660009081526006602090815284822060ff88168352905292832054606093849392909161156c91906129f1565b90506000856020015111801561158a57506001600160a01b03821615155b156115c557600281866020015187604001516040516020016115af9493929190612a04565b60405160208183030381529060405292506115ee565b604051600160f01b60208201526022810182905260420160405160208183030381529060405292505b509095945050505050565b61ffff861660009081526001602052604081208054611617906122ff565b80601f0160208091040260200160405190810160405280929190818152602001828054611643906122ff565b80156116905780601f1061166557610100808354040283529160200191611690565b820191906000526020600020905b81548152906001019060200180831161167357829003601f168201915b5050505050905080516000036117015760405162461bcd60e51b815260206004820152603060248201527f4c7a4170703a2064657374696e6174696f6e20636861696e206973206e6f742060448201526f61207472757374656420736f7572636560801b6064820152608401610647565b61170c878751611922565b60405162c5803160e81b81526001600160a01b037f0000000000000000000000000000000000000000000000000000000000000000169063c5803100908490611763908b9086908c908c908c908c90600401612a42565b6000604051808303818588803b1580156114b257600080fd5b600080546001600160a01b038381166001600160a01b0319831681178455604051919092169283917f8be0079c531659141344cd1fd0a4f28419497f9722a3daafe3b4186f6b6457e09190a35050565b6060816117da81601f6129f1565b10156118195760405162461bcd60e51b815260206004820152600e60248201526d736c6963655f6f766572666c6f7760901b6044820152606401610647565b61182382846129f1565b845110156118675760405162461bcd60e51b8152602060048201526011602482015270736c6963655f6f75744f66426f756e647360781b6044820152606401610647565b60608215801561188657604051915060008252602082016040526118d0565b6040519150601f8416801560200281840101858101878315602002848b0101015b818310156118bf5780518352602092830192016118a7565b5050858452601f01601f1916604052505b50949350505050565b61191e82826040516024016118ef929190612aa9565b60408051601f198184030181529190526020810180516001600160e01b0316634b5c427760e01b179052611998565b5050565b61ffff82166000908152600360205260408120549081900361194357506127105b808211156119935760405162461bcd60e51b815260206004820181905260248201527f4c7a4170703a207061796c6f61642073697a6520697320746f6f206c617267656044820152606401610647565b505050565b6113318160006a636f6e736f6c652e6c6f679050600080835160208501845afa505050565b803561ffff811681146119cf57600080fd5b919050565b60008083601f8401126119e657600080fd5b5081356001600160401b038111156119fd57600080fd5b602083019150836020828501011115611a1557600080fd5b9250929050565b60008060008060008060808789031215611a3557600080fd5b611a3e876119bd565b955060208701356001600160401b0380821115611a5a57600080fd5b611a668a838b016119d4565b9097509550604089013591508082168214611a8057600080fd5b90935060608801359080821115611a9657600080fd5b50611aa389828a016119d4565b979a9699509497509295939492505050565b60ff8116811461133157600080fd5b60008060408385031215611ad757600080fd5b611ae0836119bd565b91506020830135611af081611ab5565b809150509250929050565b600060208284031215611b0d57600080fd5b611004826119bd565b60008060408385031215611b2957600080fd5b611b32836119bd565b946020939093013593505050565b60008083601f840112611b5257600080fd5b5081356001600160401b03811115611b6957600080fd5b6020830191508360208260051b8501011115611a1557600080fd5b60008060008060408587031215611b9a57600080fd5b84356001600160401b0380821115611bb157600080fd5b611bbd88838901611b40565b90965094506020870135915080821115611bd657600080fd5b50611be387828801611b40565b95989497509550505050565b600080600060408486031215611c0457600080fd5b611c0d846119bd565b925060208401356001600160401b03811115611c2857600080fd5b611c34868287016119d4565b9497909650939450505050565b634e487b7160e01b600052604160045260246000fd5b60405160a081016001600160401b0381118282101715611c7957611c79611c41565b60405290565b604051601f8201601f191681016001600160401b0381118282101715611ca757611ca7611c41565b604052919050565b60006001600160401b03821115611cc857611cc8611c41565b50601f01601f191660200190565b600082601f830112611ce757600080fd5b8135611cfa611cf582611caf565b611c7f565b818152846020838601011115611d0f57600080fd5b816020850160208301376000918101602001919091529392505050565b600060608284031215611d3e57600080fd5b604051606081016001600160401b038282108183111715611d6157611d61611c41565b8160405282935084358352602085013560208401526040850135915080821115611d8a57600080fd5b50611d9785828601611cd6565b6040830152505092915050565b600080600080600060808688031215611dbc57600080fd5b611dc5866119bd565b94506020860135611dd581611ab5565b935060408601356001600160401b0380821115611df157600080fd5b611dfd89838a016119d4565b90955093506060880135915080821115611e1657600080fd5b50611e2388828901611d2c565b9150509295509295909350565b60006001600160401b03821115611e4957611e49611c41565b5060051b60200190565b600082601f830112611e6457600080fd5b81356020611e74611cf583611e30565b82815260059290921b84018101918181019086841115611e9357600080fd5b8286015b84811015611eb7578035611eaa81611ab5565b8352918301918301611e97565b509695505050505050565b600082601f830112611ed357600080fd5b81356020611ee3611cf583611e30565b82815260059290921b84018101918181019086841115611f0257600080fd5b8286015b84811015611eb75780358352918301918301611f06565b600080600060608486031215611f3257600080fd5b83356001600160401b0380821115611f4957600080fd5b818601915086601f830112611f5d57600080fd5b81356020611f6d611cf583611e30565b82815260059290921b8401810191818101908a841115611f8c57600080fd5b948201945b83861015611fb157611fa2866119bd565b82529482019490820190611f91565b97505087013592505080821115611fc757600080fd5b611fd387838801611e53565b93506040860135915080821115611fe957600080fd5b50611ff686828701611ec2565b9150509250925092565b6001600160a01b038116811461133157600080fd5b60008060008060008060c0878903121561202e57600080fd5b612037876119bd565b9550602087013561204781612000565b9450604087013561205781611ab5565b935060608701356001600160401b038082111561207357600080fd5b9088019060a0828b03121561208757600080fd5b61208f611c57565b823561209a81612000565b81526020838101359082015260408301356120b481612000565b60408201526060830135828111156120cb57600080fd5b6120d78c828601611cd6565b6060830152506080830135828111156120ef57600080fd5b6120fb8c828601611cd6565b60808301525080955050608089013591508082111561211957600080fd5b6121258a838b01611cd6565b935060a089013591508082111561213b57600080fd5b5061214889828a01611d2c565b9150509295509295509295565b60005b83811015612170578181015183820152602001612158565b50506000910152565b60008151808452612191816020860160208601612155565b601f01601f19169290920160200192915050565b6020815260006110046020830184612179565b600080604083850312156121cb57600080fd5b6121d4836119bd565b91506121e2602084016119bd565b90509250929050565b6000602082840312156121fd57600080fd5b813561100481612000565b60008060008060006080868803121561222057600080fd5b612229866119bd565b9450612237602087016119bd565b93506040860135925060608601356001600160401b0381111561225957600080fd5b612265888289016119d4565b969995985093965092949392505050565b60008060006060848603121561228b57600080fd5b612294846119bd565b92506122a2602085016119bd565b9150604084013590509250925092565b600080600080608085870312156122c857600080fd5b6122d1856119bd565b93506122df602086016119bd565b925060408501356122ef81612000565b9396929550929360600135925050565b600181811c9082168061231357607f821691505b60208210810361233357634e487b7160e01b600052602260045260246000fd5b50919050565b8183823760009101908152919050565b6020808252601990820152784f43504272696467653a20696e76616c696420706172616d7360381b604082015260600190565b634e487b7160e01b600052603260045260246000fd5b6000808335601e198436030181126123a957600080fd5b8301803591506001600160401b038211156123c357600080fd5b602001915036819003821315611a1557600080fd5b601f82111561199357600081815260208120601f850160051c810160208610156123ff5750805b601f850160051c820191505b8181101561241e5782815560010161240b565b505050505050565b600019600383901b1c191660019190911b1790565b6001600160401b0383111561245257612452611c41565b6124668361246083546122ff565b836123d8565b6000601f84116001811461249457600085156124825750838201355b61248c8682612426565b845550610886565b600083815260209020601f19861690835b828110156124c557868501358255602094850194600190920191016124a5565b50868210156124e25760001960f88860031b161c19848701351681555b505060018560011b0183555050505050565b81835281816020850137506000828201602090810191909152601f909101601f19169091010190565b61ffff841681526040602082015260006113dc6040830184866124f4565b634e487b7160e01b600052601160045260246000fd5b6000600182016125635761256361253b565b5060010190565b600060018060a01b038083511684526020830151602085015280604084015116604085015250606082015160a060608501526125a960a0850182612179565b9050608083015184820360808601526113dc8282612179565b60ff861681526080602082015260006125de608083018761256a565b82810360408401526125f18186886124f4565b9150508260608301529695505050505050565b61ffff861681526001600160a01b038516602082015260a06040820181905260009061263290830186612179565b8415156060840152828103608084015261264c8185612179565b98975050505050505050565b6000806040838503121561266b57600080fd5b505080516020909101519092909150565b60ff85168152608060208201526000612698608083018661256a565b82810360408401526126aa8186612179565b91505082606083015295945050505050565b818103818111156126cf576126cf61253b565b92915050565b8284823760609190911b6bffffffffffffffffffffffff19169101908152601401919050565b81516001600160401b0381111561271457612714611c41565b6127288161272284546122ff565b846123d8565b602080601f83116001811461275757600084156127455750858301515b61274f8582612426565b86555061241e565b600085815260208120601f198616915b8281101561278657888601518255948401946001909101908401612767565b50858210156127a45787850151600019600388901b60f8161c191681555b5050505050600190811b01905550565b600061ffff8088168352808716602084015250846040830152608060608301526127e26080830184866124f4565b979650505050505050565b600082601f8301126127fe57600080fd5b815161280c611cf582611caf565b81815284602083860101111561282157600080fd5b612832826020830160208701612155565b949350505050565b60006020828403121561284c57600080fd5b81516001600160401b0381111561286257600080fd5b612832848285016127ed565b6000806000806080858703121561288457600080fd5b845161288f81611ab5565b60208601519094506001600160401b03808211156128ac57600080fd5b9086019060a082890312156128c057600080fd5b6128c8611c57565b82516128d381612000565b81526020838101519082015260408301516128ed81612000565b604082015260608301518281111561290457600080fd5b6129108a8286016127ed565b60608301525060808301518281111561292857600080fd5b6129348a8286016127ed565b608083015250604088015190955091508082111561295157600080fd5b5061295e878288016127ed565b606096909601519497939650505050565b600061010061ffff8b16835280602084015261298d8184018b612179565b90506001600160401b0389166040840152871515606084015282810360808401526129b8818861256a565b6001600160a01b03871660a085015260c0840186905283810360e085015290506129e28185612179565b9b9a5050505050505050505050565b808201808211156126cf576126cf61253b565b61ffff60f01b8560f01b16815283600282015282602282015260008251612a32816042850160208701612155565b9190910160420195945050505050565b61ffff8716815260c060208201526000612a5f60c0830188612179565b8281036040840152612a718188612179565b6001600160a01b0387811660608601528616608085015283810360a08501529050612a9c8185612179565b9998505050505050505050565b604081526000612abc6040830185612179565b82810360208401526113dc818561217956fe23205479706531205265636569766564205375632c204465706c6f7920546f6b656e3aa264697066735822122017e6feabe27e08168598626273346d8da8706b83371cfe5b4db5fdca92c30df364736f6c63430008110033",
  "devdoc": {
    "kind": "dev",
    "methods": {
      "omniMint(uint16,address,uint8,(address,uint256,address,string,string),bytes,(uint256,uint256,bytes))": {
        "details": "mint token on remote chain Requirements: - onlyRouter - _remoteChainId must be valid - _refundAddress must be valid - _type must be valid - _lzTxParams must be valid - _payload must be valid - _mintParams must be valid - _lzTxParams must be valid",
        "params": {
          "_lzTxParams": "layer zero tx params",
          "_mintParams": "mint params",
          "_payload": "user payload",
          "_refundAddress": "address to refund",
          "_remoteChainId": "remote chain id",
          "_type": "mint type"
        }
      },
      "owner()": {
        "details": "Returns the address of the current owner."
      },
      "quoteLayerZeroFee(uint16,uint8,bytes,(uint256,uint256,bytes))": {
        "details": "quote mint token on remote chain `quoteLayerZeroFee` is a helper function to estimate the fees for minting a token on a remote chain. `_type` is the type of minting operation to be performed on the remote chain. If `_type` is `TYPE_DEPLOY_AND_MINT`, then `_userPayload` is the payload to be sent to the remote chain. `_userPayload` is the payload to be sent to the remote chain. Requirements: - _remoteChainId must be valid - _type must be valid - _lzTxParams must be valid - _payload must be valid",
        "params": {
          "_lzTxParams": "layer zero tx params",
          "_remoteChainId": "remote chain id",
          "_type": "mint type",
          "_userPayload": "user payload"
        }
      },
      "renounceOwnership()": {
        "details": "Leaves the contract without owner. It will not be possible to call `onlyOwner` functions. Can only be called by the current owner. NOTE: Renouncing ownership will leave the contract without an owner, thereby disabling any functionality that is only available to the owner."
      },
      "transferOwnership(address)": {
        "details": "Transfers ownership of the contract to a new account (`newOwner`). Can only be called by the current owner."
      },
      "updateGasLookups(uint16[],uint8[],uint256[])": {
        "details": "update gas lookup `updateGasLookups` is a helper function to update the gas lookup table. `_chainIds` is the chain ids to be updated. `_types` is the types to be updated. The length of `_chainIds`, `_types` and `_gas` must be the same. Requirements: - onlyOwner - _chainIds, _types, _gas must be valid",
        "params": {
          "_chainIds": "remote chain ids",
          "_gas": "gas",
          "_types": "mint types"
        }
      },
      "updateRouter(address)": {
        "details": "update router `updateRouter` is a helper function to update the router contract. `_router` is the new router contract address. Requirements: - onlyOwner - _router must be valid",
        "params": {
          "_router": "router address"
        }
      }
    },
    "version": 1
  },
  "userdoc": {
    "kind": "user",
    "methods": {},
    "version": 1
  },
  "storageLayout": {
    "storage": [
      {
        "astId": 1079,
        "contract": "contracts/OCPBridge.sol:OCPBridge",
        "label": "_owner",
        "offset": 0,
        "slot": "0",
        "type": "t_address"
      },
      {
        "astId": 215,
        "contract": "contracts/OCPBridge.sol:OCPBridge",
        "label": "trustedRemoteLookup",
        "offset": 0,
        "slot": "1",
        "type": "t_mapping(t_uint16,t_bytes_storage)"
      },
      {
        "astId": 221,
        "contract": "contracts/OCPBridge.sol:OCPBridge",
        "label": "minDstGasLookup",
        "offset": 0,
        "slot": "2",
        "type": "t_mapping(t_uint16,t_mapping(t_uint16,t_uint256))"
      },
      {
        "astId": 225,
        "contract": "contracts/OCPBridge.sol:OCPBridge",
        "label": "payloadSizeLimitLookup",
        "offset": 0,
        "slot": "3",
        "type": "t_mapping(t_uint16,t_uint256)"
      },
      {
        "astId": 227,
        "contract": "contracts/OCPBridge.sol:OCPBridge",
        "label": "precrime",
        "offset": 0,
        "slot": "4",
        "type": "t_address"
      },
      {
        "astId": 1221,
        "contract": "contracts/OCPBridge.sol:OCPBridge",
        "label": "router",
        "offset": 0,
        "slot": "5",
        "type": "t_contract(IOCPRouter)1724"
      },
      {
        "astId": 1227,
        "contract": "contracts/OCPBridge.sol:OCPBridge",
        "label": "gasLookup",
        "offset": 0,
        "slot": "6",
        "type": "t_mapping(t_uint16,t_mapping(t_uint8,t_uint256))"
      },
      {
        "astId": 1229,
        "contract": "contracts/OCPBridge.sol:OCPBridge",
        "label": "useLzToken",
        "offset": 0,
        "slot": "7",
        "type": "t_bool"
      }
    ],
    "types": {
      "t_address": {
        "encoding": "inplace",
        "label": "address",
        "numberOfBytes": "20"
      },
      "t_bool": {
        "encoding": "inplace",
        "label": "bool",
        "numberOfBytes": "1"
      },
      "t_bytes_storage": {
        "encoding": "bytes",
        "label": "bytes",
        "numberOfBytes": "32"
      },
      "t_contract(IOCPRouter)1724": {
        "encoding": "inplace",
        "label": "contract IOCPRouter",
        "numberOfBytes": "20"
      },
      "t_mapping(t_uint16,t_bytes_storage)": {
        "encoding": "mapping",
        "key": "t_uint16",
        "label": "mapping(uint16 => bytes)",
        "numberOfBytes": "32",
        "value": "t_bytes_storage"
      },
      "t_mapping(t_uint16,t_mapping(t_uint16,t_uint256))": {
        "encoding": "mapping",
        "key": "t_uint16",
        "label": "mapping(uint16 => mapping(uint16 => uint256))",
        "numberOfBytes": "32",
        "value": "t_mapping(t_uint16,t_uint256)"
      },
      "t_mapping(t_uint16,t_mapping(t_uint8,t_uint256))": {
        "encoding": "mapping",
        "key": "t_uint16",
        "label": "mapping(uint16 => mapping(uint8 => uint256))",
        "numberOfBytes": "32",
        "value": "t_mapping(t_uint8,t_uint256)"
      },
      "t_mapping(t_uint16,t_uint256)": {
        "encoding": "mapping",
        "key": "t_uint16",
        "label": "mapping(uint16 => uint256)",
        "numberOfBytes": "32",
        "value": "t_uint256"
      },
      "t_mapping(t_uint8,t_uint256)": {
        "encoding": "mapping",
        "key": "t_uint8",
        "label": "mapping(uint8 => uint256)",
        "numberOfBytes": "32",
        "value": "t_uint256"
      },
      "t_uint16": {
        "encoding": "inplace",
        "label": "uint16",
        "numberOfBytes": "2"
      },
      "t_uint256": {
        "encoding": "inplace",
        "label": "uint256",
        "numberOfBytes": "32"
      },
      "t_uint8": {
        "encoding": "inplace",
        "label": "uint8",
        "numberOfBytes": "1"
      }
    }
  }
}