{
  "address": "0x451356a6d071a2d1921b291ef80D41C16429B7Cd",
  "abi": [
    {
      "inputs": [
        {
          "internalType": "address",
          "name": "_token",
          "type": "address"
        }
      ],
      "name": "createPool",
      "outputs": [
        {
          "internalType": "address",
          "name": "pool",
          "type": "address"
        }
      ],
      "stateMutability": "nonpayable",
      "type": "function"
    },
    {
      "inputs": [
        {
          "internalType": "address",
          "name": "",
          "type": "address"
        }
      ],
      "name": "getPool",
      "outputs": [
        {
          "internalType": "address",
          "name": "",
          "type": "address"
        }
      ],
      "stateMutability": "view",
      "type": "function"
    },
    {
      "inputs": [
        {
          "internalType": "address",
          "name": "_token",
          "type": "address"
        },
        {
          "internalType": "address",
          "name": "_receiver",
          "type": "address"
        },
        {
          "internalType": "uint256",
          "name": "_amount",
          "type": "uint256"
        }
      ],
      "name": "withdraw",
      "outputs": [],
      "stateMutability": "nonpayable",
      "type": "function"
    }
  ],
  "transactionHash": "0xa2ae6d9f25465b573eac3131b53611f716ebdcce4f5bba103128222a5f1f0302",
  "args": [],
  "numDeployments": 1,
  "solcInputHash": "a5d6d4f53027f35f8aee19d5bd52378f",
  "bytecode": "0x608060405234801561001057600080fd5b506109e0806100206000396000f3fe608060405234801561001057600080fd5b50600436106100415760003560e01c80639049f9d214610046578063bbe4f6db14610075578063d9caed121461009e575b600080fd5b6100596100543660046102f6565b6100b3565b6040516001600160a01b03909116815260200160405180910390f35b6100596100833660046102f6565b6000602081905290815260409020546001600160a01b031681565b6100b16100ac366004610318565b6101f2565b005b6001600160a01b038181166000908152602081905260408120549091161561012e5760405162461bcd60e51b815260206004820152602360248201527f4f4350506f6f6c466163746f72793a20506f6f6c20616c72656164792065786960448201526273747360e81b60648201526084015b60405180910390fd5b6040516e13d0d417d0d49150551157d413d3d3608a1b60208201526bffffffffffffffffffffffff19606084901b16602f820152600090604301604051602081830303815290604052805190602001208360405161018b906102cd565b6001600160a01b0390911681526020018190604051809103906000f59050801580156101bb573d6000803e3d6000fd5b506001600160a01b03938416600090815260208190526040902080546001600160a01b031916948216949094179093555090919050565b6001600160a01b0380841660009081526020819052604090205416806102655760405162461bcd60e51b815260206004820152602260248201527f4f43506f6f6c466163746f72793a20506f6f6c20646f6573206e6f74206578696044820152611cdd60f21b6064820152608401610125565b60405163f3fef3a360e01b81526001600160a01b0384811660048301526024820184905282169063f3fef3a390604401600060405180830381600087803b1580156102af57600080fd5b505af11580156102c3573d6000803e3d6000fd5b5050505050505050565b6106568061035583390190565b80356001600160a01b03811681146102f157600080fd5b919050565b60006020828403121561030857600080fd5b610311826102da565b9392505050565b60008060006060848603121561032d57600080fd5b610336846102da565b9250610344602085016102da565b915060408401359050925092509256fe608060405234801561001057600080fd5b5060405161065638038061065683398101604081905261002f9161005d565b600080546001600160a01b039092166001600160a01b0319928316179055600180549091163317905561008d565b60006020828403121561006f57600080fd5b81516001600160a01b038116811461008657600080fd5b9392505050565b6105ba8061009c6000396000f3fe608060405234801561001057600080fd5b50600436106100415760003560e01c8063c45a015514610046578063f3fef3a314610075578063fc0c546a1461008a575b600080fd5b600154610059906001600160a01b031681565b6040516001600160a01b03909116815260200160405180910390f35b610088610083366004610497565b61009d565b005b600054610059906001600160a01b031681565b6001546001600160a01b031633146101065760405162461bcd60e51b815260206004820152602160248201527f4f43506f6f6c3a2063616c6c6572206973206e6f742074686520666163746f726044820152607960f81b60648201526084015b60405180910390fd5b6000546040516370a0823160e01b815230600482015282916001600160a01b0316906370a0823190602401602060405180830381865afa15801561014e573d6000803e3d6000fd5b505050506040513d601f19601f8201168201806040525081019061017291906104cf565b10156101c05760405162461bcd60e51b815260206004820152601c60248201527f4f43506f6f6c3a20696e73756666696369656e742062616c616e63650000000060448201526064016100fd565b6000546101d7906001600160a01b031683836101db565b5050565b604080516001600160a01b038416602482015260448082018490528251808303909101815260649091019091526020810180516001600160e01b031663a9059cbb60e01b17905261022d908490610232565b505050565b6000610287826040518060400160405280602081526020017f5361666545524332303a206c6f772d6c6576656c2063616c6c206661696c6564815250856001600160a01b03166103079092919063ffffffff16565b90508051600014806102a85750808060200190518101906102a891906104e8565b61022d5760405162461bcd60e51b815260206004820152602a60248201527f5361666545524332303a204552433230206f7065726174696f6e20646964206e6044820152691bdd081cdd58d8d9595960b21b60648201526084016100fd565b6060610316848460008561031e565b949350505050565b60608247101561037f5760405162461bcd60e51b815260206004820152602660248201527f416464726573733a20696e73756666696369656e742062616c616e636520666f6044820152651c8818d85b1b60d21b60648201526084016100fd565b600080866001600160a01b0316858760405161039b9190610535565b60006040518083038185875af1925050503d80600081146103d8576040519150601f19603f3d011682016040523d82523d6000602084013e6103dd565b606091505b50915091506103ee878383876103f9565b979650505050505050565b60608315610468578251600003610461576001600160a01b0385163b6104615760405162461bcd60e51b815260206004820152601d60248201527f416464726573733a2063616c6c20746f206e6f6e2d636f6e747261637400000060448201526064016100fd565b5081610316565b610316838381511561047d5781518083602001fd5b8060405162461bcd60e51b81526004016100fd9190610551565b600080604083850312156104aa57600080fd5b82356001600160a01b03811681146104c157600080fd5b946020939093013593505050565b6000602082840312156104e157600080fd5b5051919050565b6000602082840312156104fa57600080fd5b8151801515811461050a57600080fd5b9392505050565b60005b8381101561052c578181015183820152602001610514565b50506000910152565b60008251610547818460208701610511565b9190910192915050565b6020815260008251806020840152610570816040850160208701610511565b601f01601f1916919091016040019291505056fea26469706673582212207d8126132a68075a35a6317fbbbe07ba50fb5d2c6d1c1d2e6e4275e0e4b0188864736f6c63430008110033a2646970667358221220a5cd9e5c0f9e58175c626000b0cb18c3f4143dcb22f53018d7a89e87e5c8cf2464736f6c63430008110033",
  "devdoc": {
    "kind": "dev",
    "methods": {
      "createPool(address)": {
        "details": "create a new pool `createPool` is a helper function to create a new pool. Emits a {PoolCreated} event. If the pool already exists, it will revert. If the pool is created successfully, it will return the pool address and be added to `getPool`. Requirements: - _token must be valid - `getPool[_token]` must be empty",
        "params": {
          "_token": "token address"
        },
        "returns": {
          "pool": "address"
        }
      }
    },
    "version": 1
  },
  "userdoc": {
    "kind": "user",
    "methods": {},
    "version": 1
  },
  "storageLayout": {
    "storage": [
      {
        "astId": 7411,
        "contract": "contracts/OCPoolFactory.sol:OCPoolFactory",
        "label": "getPool",
        "offset": 0,
        "slot": "0",
        "type": "t_mapping(t_address,t_address)"
      }
    ],
    "types": {
      "t_address": {
        "encoding": "inplace",
        "label": "address",
        "numberOfBytes": "20"
      },
      "t_mapping(t_address,t_address)": {
        "encoding": "mapping",
        "key": "t_address",
        "label": "mapping(address => address)",
        "numberOfBytes": "32",
        "value": "t_address"
      }
    }
  }
}