{
  "address": "0x8BD07E35CfF819328ae6f4DCDEb78467400ade62",
  "abi": [
    {
      "inputs": [],
      "stateMutability": "nonpayable",
      "type": "constructor"
    },
    {
      "anonymous": false,
      "inputs": [
        {
          "indexed": true,
          "internalType": "address",
          "name": "srcToken",
          "type": "address"
        },
        {
          "indexed": true,
          "internalType": "uint16",
          "name": "srcChainId",
          "type": "uint16"
        },
        {
          "indexed": true,
          "internalType": "address",
          "name": "token",
          "type": "address"
        }
      ],
      "name": "TokenCreated",
      "type": "event"
    },
    {
      "inputs": [
        {
          "internalType": "address[]",
          "name": "_omniTokens",
          "type": "address[]"
        },
        {
          "internalType": "uint16",
          "name": "_srcChainId",
          "type": "uint16"
        },
        {
          "internalType": "address[]",
          "name": "_srcTokens",
          "type": "address[]"
        }
      ],
      "name": "approveSourceTokens",
      "outputs": [],
      "stateMutability": "nonpayable",
      "type": "function"
    },
    {
      "inputs": [
        {
          "components": [
            {
              "internalType": "address",
              "name": "srcToken",
              "type": "address"
            },
            {
              "internalType": "address",
              "name": "sender",
              "type": "address"
            },
            {
              "internalType": "uint256",
              "name": "amount",
              "type": "uint256"
            },
            {
              "internalType": "address",
              "name": "to",
              "type": "address"
            },
            {
              "internalType": "string",
              "name": "name",
              "type": "string"
            },
            {
              "internalType": "string",
              "name": "symbol",
              "type": "string"
            }
          ],
          "internalType": "struct Structs.MintObj",
          "name": "_mintParams",
          "type": "tuple"
        },
        {
          "internalType": "address",
          "name": "_lzEndpoint",
          "type": "address"
        },
        {
          "internalType": "uint16",
          "name": "_srcChainId",
          "type": "uint16"
        }
      ],
      "name": "createOmniToken",
      "outputs": [
        {
          "internalType": "address",
          "name": "token",
          "type": "address"
        }
      ],
      "stateMutability": "nonpayable",
      "type": "function"
    },
    {
      "inputs": [],
      "name": "getOmniTokenList",
      "outputs": [
        {
          "internalType": "address[]",
          "name": "",
          "type": "address[]"
        }
      ],
      "stateMutability": "view",
      "type": "function"
    },
    {
      "inputs": [
        {
          "internalType": "address",
          "name": "_omniToken",
          "type": "address"
        },
        {
          "internalType": "uint256",
          "name": "_amount",
          "type": "uint256"
        },
        {
          "internalType": "address",
          "name": "_from",
          "type": "address"
        }
      ],
      "name": "omniBurn",
      "outputs": [],
      "stateMutability": "nonpayable",
      "type": "function"
    },
    {
      "inputs": [
        {
          "components": [
            {
              "internalType": "address",
              "name": "srcToken",
              "type": "address"
            },
            {
              "internalType": "address",
              "name": "sender",
              "type": "address"
            },
            {
              "internalType": "uint256",
              "name": "amount",
              "type": "uint256"
            },
            {
              "internalType": "address",
              "name": "to",
              "type": "address"
            },
            {
              "internalType": "string",
              "name": "name",
              "type": "string"
            },
            {
              "internalType": "string",
              "name": "symbol",
              "type": "string"
            }
          ],
          "internalType": "struct Structs.MintObj",
          "name": "_mintParams",
          "type": "tuple"
        },
        {
          "internalType": "uint16",
          "name": "_srcChainId",
          "type": "uint16"
        }
      ],
      "name": "omniMint",
      "outputs": [
        {
          "internalType": "address",
          "name": "token",
          "type": "address"
        }
      ],
      "stateMutability": "nonpayable",
      "type": "function"
    },
    {
      "inputs": [
        {
          "internalType": "uint256",
          "name": "",
          "type": "uint256"
        }
      ],
      "name": "omniTokenList",
      "outputs": [
        {
          "internalType": "address",
          "name": "",
          "type": "address"
        }
      ],
      "stateMutability": "view",
      "type": "function"
    },
    {
      "inputs": [
        {
          "internalType": "address",
          "name": "",
          "type": "address"
        },
        {
          "internalType": "uint16",
          "name": "",
          "type": "uint16"
        }
      ],
      "name": "omniTokens",
      "outputs": [
        {
          "internalType": "address",
          "name": "",
          "type": "address"
        }
      ],
      "stateMutability": "view",
      "type": "function"
    },
    {
      "inputs": [
        {
          "internalType": "address[]",
          "name": "_srcTokens",
          "type": "address[]"
        },
        {
          "internalType": "uint16[]",
          "name": "_srcChainIds",
          "type": "uint16[]"
        },
        {
          "internalType": "address",
          "name": "_omniToken",
          "type": "address"
        }
      ],
      "name": "requestAddSourceTokens",
      "outputs": [],
      "stateMutability": "nonpayable",
      "type": "function"
    },
    {
      "inputs": [],
      "name": "router",
      "outputs": [
        {
          "internalType": "address",
          "name": "",
          "type": "address"
        }
      ],
      "stateMutability": "view",
      "type": "function"
    },
    {
      "inputs": [
        {
          "internalType": "address",
          "name": "",
          "type": "address"
        },
        {
          "internalType": "uint16",
          "name": "",
          "type": "uint16"
        }
      ],
      "name": "sourceTokens",
      "outputs": [
        {
          "internalType": "address",
          "name": "",
          "type": "address"
        }
      ],
      "stateMutability": "view",
      "type": "function"
    },
    {
      "inputs": [],
      "name": "timeLock",
      "outputs": [
        {
          "internalType": "address",
          "name": "",
          "type": "address"
        }
      ],
      "stateMutability": "view",
      "type": "function"
    },
    {
      "inputs": [
        {
          "internalType": "address",
          "name": "_router",
          "type": "address"
        }
      ],
      "name": "updateRouter",
      "outputs": [],
      "stateMutability": "nonpayable",
      "type": "function"
    },
    {
      "inputs": [
        {
          "internalType": "address",
          "name": "_timeLock",
          "type": "address"
        }
      ],
      "name": "updateTimeLock",
      "outputs": [],
      "stateMutability": "nonpayable",
      "type": "function"
    }
  ],
  "transactionHash": "0xf4d8f069fccad87601bc0f9497f89895e979c982ba5a1ab5018b9a016340d6ce",
  "args": [],
  "numDeployments": 1,
  "solcInputHash": "a5d6d4f53027f35f8aee19d5bd52378f",
  "bytecode": "0x608060405234801561001057600080fd5b50600180546001600160a01b03191633179055614e59806100326000396000f3fe60806040523480156200001157600080fd5b5060043610620000cf5760003560e01c8063a11b9c661162000086578063a11b9c66146200019d578063a22304ed14620001b6578063c851cc3214620001cd578063d085835a14620001e4578063d157fcea14620001f8578063d2ede8df146200020f578063f887ea40146200024657600080fd5b8063076ec75c14620000d45780630ef8524914620001085780632a530ad0146200011f5780632e015f8e14620001385780633584c86e146200014f5780634f077eea1462000166575b600080fd5b620000eb620000e536600462000d54565b6200025a565b6040516001600160a01b0390911681526020015b60405180910390f35b620000eb6200011936600462000da7565b6200042b565b620001366200013036600462000e5a565b620006cd565b005b620000eb6200014936600462000ee3565b620007f6565b620001366200016036600462000efd565b62000821565b620000eb6200017736600462000f1b565b60026020908152600092835260408084209091529082529020546001600160a01b031681565b620001a762000870565b604051620000ff919062000f4a565b62000136620001c736600462000f99565b620008d4565b62000136620001de36600462000efd565b6200096a565b600154620000eb906001600160a01b031681565b620001366200020936600462000fd1565b620009b9565b620000eb6200022036600462000f1b565b60036020908152600092835260408084209091529082529020546001600160a01b031681565b600054620000eb906001600160a01b031681565b600080546001600160a01b03163314620002915760405162461bcd60e51b815260040162000288906200105d565b60405180910390fd5b5081516001600160a01b03908116600090815260026020908152604080832061ffff8616845282529182902054825180840190935260128352710119027a1a827aa269730b2323932b9b99d160751b9183019190915290911690620002f7903062000ac7565b620003386040518060400160405280601c81526020017f23204f43504f544d2e6f6d6e694d696e74203d3e20746f6b656e3a20000000008152508262000ac7565b6001600160a01b038116620003a85760405162461bcd60e51b815260206004820152602f60248201527f4f4350546f6b656e4d616e616765723a206f6d6e6920746f6b656e206973206e60448201526e1bdd0819195c1b1bde5959081e595d608a1b606482015260840162000288565b606083015160408085015190516340c10f1960e01b81526001600160a01b038416926340c10f1992620003f1926004016001600160a01b03929092168252602082015260400190565b600060405180830381600087803b1580156200040c57600080fd5b505af115801562000421573d6000803e3d6000fd5b5050505092915050565b82516001600160a01b03908116600090815260026020908152604080832061ffff861684529091529020541680620006c65783516040516000916200048a9160200160609190911b6bffffffffffffffffffffffff1916815260140190565b6040516020818303038152906040528051906020012085608001518660a001518760400151886060015188604051620004c39062000b87565b620004d3959493929190620010ee565b8190604051809103906000f5905080158015620004f4573d6000803e3d6000fd5b50905080915062000530604051806040016040528060128152602001710119027a1a827aa269730b2323932b9b99d160751b8152503062000ac7565b6200055660405180606001604052806032815260200162004da160329139865162000ac7565b6200057f60405180606001604052806029815260200162004d4e602991398461ffff1662000b14565b620005a460405180606001604052806023815260200162004dd3602391398362000ac7565b620005cd6040518060600160405280602e815260200162004df6602e9139866040015162000b14565b620005f66040518060600160405280602a815260200162004d77602a9139866060015162000ac7565b84516001600160a01b03908116600090815260026020908152604080832061ffff881680855290835281842080548689166001600160a01b031991821681179092558b5182875260038652848720848852909552838620805495881695821695909517909455600480546001810182559086527f8a35acfbc15ff81a39ae7d344fd709f28e8600b4aa8c65c6b64bfe7fe36bd19b018054909416811790935589519151929490939116917f6792e3997f0d21e021aae79214c14b0e0c997897f87804942fde7f7ce42a6ea79190a4505b9392505050565b6001546001600160a01b03163314620006fa5760405162461bcd60e51b815260040162000288906200113f565b8382146200071c5760405162461bcd60e51b815260040162000288906200118a565b60005b84811015620007ee578160036000888885818110620007425762000742620011c1565b905060200201602081019062000759919062000efd565b6001600160a01b03166001600160a01b031681526020019081526020016000206000868685818110620007905762000790620011c1565b9050602002016020810190620007a79190620011d7565b61ffff168152602081019190915260400160002080546001600160a01b0319166001600160a01b039290921691909117905580620007e581620011f5565b9150506200071f565b505050505050565b600481815481106200080757600080fd5b6000918252602090912001546001600160a01b0316905081565b6001546001600160a01b031633146200084e5760405162461bcd60e51b815260040162000288906200113f565b600180546001600160a01b0319166001600160a01b0392909216919091179055565b60606004805480602002602001604051908101604052809291908181526020018280548015620008ca57602002820191906000526020600020905b81546001600160a01b03168152600190910190602001808311620008ab575b5050505050905090565b6000546001600160a01b03163314620009015760405162461bcd60e51b815260040162000288906200105d565b604051632770a7eb60e21b81526001600160a01b03828116600483015260248201849052841690639dc29fac90604401600060405180830381600087803b1580156200094c57600080fd5b505af115801562000961573d6000803e3d6000fd5b50505050505050565b6001546001600160a01b03163314620009975760405162461bcd60e51b815260040162000288906200113f565b600080546001600160a01b0319166001600160a01b0392909216919091179055565b6001546001600160a01b03163314620009e65760405162461bcd60e51b815260040162000288906200113f565b83811462000a085760405162461bcd60e51b815260040162000288906200118a565b60005b84811015620007ee5782828281811062000a295762000a29620011c1565b905060200201602081019062000a40919062000efd565b6003600088888581811062000a595762000a59620011c1565b905060200201602081019062000a70919062000efd565b6001600160a01b0390811682526020808301939093526040918201600090812061ffff8a168252909352912080546001600160a01b031916929091169190911790558062000abe81620011f5565b91505062000a0b565b62000b10828260405160240162000ae09291906200121d565b60408051601f198184030181529190526020810180516001600160e01b031663319af33360e01b17905262000b58565b5050565b62000b10828260405160240162000b2d92919062001249565b60408051601f198184030181529190526020810180516001600160e01b0316632d839cb360e21b1790525b62000b638162000b66565b50565b60006a636f6e736f6c652e6c6f679050600080835160208501845afa505050565b613ae0806200126e83390190565b634e487b7160e01b600052604160045260246000fd5b60405160c081016001600160401b038111828210171562000bd05762000bd062000b95565b60405290565b80356001600160a01b038116811462000bee57600080fd5b919050565b600082601f83011262000c0557600080fd5b81356001600160401b038082111562000c225762000c2262000b95565b604051601f8301601f19908116603f0116810190828211818310171562000c4d5762000c4d62000b95565b8160405283815286602085880101111562000c6757600080fd5b836020870160208301376000602085830101528094505050505092915050565b600060c0828403121562000c9a57600080fd5b62000ca462000bab565b905062000cb18262000bd6565b815262000cc16020830162000bd6565b60208201526040820135604082015262000cde6060830162000bd6565b606082015260808201356001600160401b038082111562000cfe57600080fd5b62000d0c8583860162000bf3565b608084015260a084013591508082111562000d2657600080fd5b5062000d358482850162000bf3565b60a08301525092915050565b803561ffff8116811462000bee57600080fd5b6000806040838503121562000d6857600080fd5b82356001600160401b0381111562000d7f57600080fd5b62000d8d8582860162000c87565b92505062000d9e6020840162000d41565b90509250929050565b60008060006060848603121562000dbd57600080fd5b83356001600160401b0381111562000dd457600080fd5b62000de28682870162000c87565b93505062000df36020850162000bd6565b915062000e036040850162000d41565b90509250925092565b60008083601f84011262000e1f57600080fd5b5081356001600160401b0381111562000e3757600080fd5b6020830191508360208260051b850101111562000e5357600080fd5b9250929050565b60008060008060006060868803121562000e7357600080fd5b85356001600160401b038082111562000e8b57600080fd5b62000e9989838a0162000e0c565b9097509550602088013591508082111562000eb357600080fd5b5062000ec28882890162000e0c565b909450925062000ed790506040870162000bd6565b90509295509295909350565b60006020828403121562000ef657600080fd5b5035919050565b60006020828403121562000f1057600080fd5b620006c68262000bd6565b6000806040838503121562000f2f57600080fd5b62000f3a8362000bd6565b915062000d9e6020840162000d41565b6020808252825182820181905260009190848201906040850190845b8181101562000f8d5783516001600160a01b03168352928401929184019160010162000f66565b50909695505050505050565b60008060006060848603121562000faf57600080fd5b62000fba8462000bd6565b92506020840135915062000e036040850162000bd6565b60008060008060006060868803121562000fea57600080fd5b85356001600160401b03808211156200100257600080fd5b6200101089838a0162000e0c565b9097509550859150620010266020890162000d41565b945060408801359150808211156200103d57600080fd5b506200104c8882890162000e0c565b969995985093965092949392505050565b60208082526029908201527f4f4350546f6b656e4d616e616765723a2063616c6c6572206973206e6f7420746040820152683432903937baba32b960b91b606082015260800190565b6000815180845260005b81811015620010ce57602081850181015186830182015201620010b0565b506000602082860101526020601f19601f83011685010191505092915050565b60a0815260006200110360a0830188620010a6565b8281036020840152620011178188620010a6565b604084019690965250506001600160a01b039283166060820152911660809091015292915050565b6020808252602b908201527f4f4350546f6b656e4d616e616765723a2063616c6c6572206973206e6f74207460408201526a68652074696d656c6f636b60a81b606082015260800190565b6020808252601e908201527f4f4350546f6b656e4d616e616765723a20696e76616c696420696e7075740000604082015260600190565b634e487b7160e01b600052603260045260246000fd5b600060208284031215620011ea57600080fd5b620006c68262000d41565b6000600182016200121657634e487b7160e01b600052601160045260246000fd5b5060010190565b604081526000620012326040830185620010a6565b905060018060a01b03831660208301529392505050565b6040815260006200125e6040830185620010a6565b9050826020830152939250505056fe60a06040523480156200001157600080fd5b5060405162003ae038038062003ae0833981016040819052620000349162000299565b848482828282808062000047336200009a565b6001600160a01b031660805250600a9050620000648382620003c0565b50600b620000738282620003c0565b50505050505060008311156200008f576200008f8284620000ea565b5050505050620004b4565b600080546001600160a01b038381166001600160a01b0319831681178455604051919092169283917f8be0079c531659141344cd1fd0a4f28419497f9722a3daafe3b4186f6b6457e09190a35050565b6001600160a01b038216620001455760405162461bcd60e51b815260206004820152601f60248201527f45524332303a206d696e7420746f20746865207a65726f206164647265737300604482015260640160405180910390fd5b80600960008282546200015991906200048c565b90915550506001600160a01b0382166000818152600760209081526040808320805486019055518481527fddf252ad1be2c89b69c2b068fc378daa952ba7f163c4a11628f55a4df523b3ef910160405180910390a35050565b505050565b634e487b7160e01b600052604160045260246000fd5b600082601f830112620001df57600080fd5b81516001600160401b0380821115620001fc57620001fc620001b7565b604051601f8301601f19908116603f01168101908282118183101715620002275762000227620001b7565b816040528381526020925086838588010111156200024457600080fd5b600091505b8382101562000268578582018301518183018401529082019062000249565b600093810190920192909252949350505050565b80516001600160a01b03811681146200029457600080fd5b919050565b600080600080600060a08688031215620002b257600080fd5b85516001600160401b0380821115620002ca57600080fd5b620002d889838a01620001cd565b96506020880151915080821115620002ef57600080fd5b50620002fe88828901620001cd565b9450506040860151925062000316606087016200027c565b915062000326608087016200027c565b90509295509295909350565b600181811c908216806200034757607f821691505b6020821081036200036857634e487b7160e01b600052602260045260246000fd5b50919050565b601f821115620001b257600081815260208120601f850160051c81016020861015620003975750805b601f850160051c820191505b81811015620003b857828155600101620003a3565b505050505050565b81516001600160401b03811115620003dc57620003dc620001b7565b620003f481620003ed845462000332565b846200036e565b602080601f8311600181146200042c5760008415620004135750858301515b600019600386901b1c1916600185901b178555620003b8565b600085815260208120601f198616915b828110156200045d578886015182559484019460019091019084016200043c565b50858210156200047c5787850151600019600388901b60f8161c191681555b5050505050600190811b01905550565b80820180821115620004ae57634e487b7160e01b600052601160045260246000fd5b92915050565b6080516135d86200050860003960008181610752015281816108f801528181610c1701528181610cd701528181610d7501528181610f28015281816114730152818161191e015261255f01526135d86000f3fe6080604052600436106102875760003560e01c80637533d7881161015a578063baf3292d116100c1578063eab45d9c1161007a578063eab45d9c1461081d578063eb8d72b71461083d578063ed629c5c1461085d578063f2fde38b14610877578063f5ecbdbc14610897578063fc0c546a146108b757600080fd5b8063baf3292d14610774578063c446183414610794578063cbed8b9c146107aa578063d1deba1f146107ca578063dd62ed3e146107dd578063df2a5b3b146107fd57600080fd5b80639dc29fac116101135780639dc29fac146106a05780639f38369a146106c0578063a457c2d7146106e0578063a6c3d16514610700578063a9059cbb14610720578063b353aaa71461074057600080fd5b80637533d788146105cc5780638cfd8f5c146105ec5780638da5cb5b146106245780639358928b14610656578063950c8a741461066b57806395d89b411461068b57600080fd5b806339509351116101fe5780634c42899a116101b75780634c42899a146104d757806351905636146104ff5780635b8c41e61461051257806366ad5c8a1461056157806370a0823114610581578063715018a6146105b757600080fd5b806339509351146104155780633d8b38f6146104355780633f1f4fa41461045557806340c10f191461048257806342d65a8d146104a257806344770515146104c257600080fd5b80630df37483116102505780630df374831461034557806310ddb1371461036557806318160ddd1461038557806323b872dd146103a45780632a205e3d146103c4578063313ce567146103f957600080fd5b80621d35671461028c57806301ffc9a7146102ae57806306fdde03146102e357806307e0db1714610305578063095ea7b314610325575b600080fd5b34801561029857600080fd5b506102ac6102a736600461291e565b6108ca565b005b3480156102ba57600080fd5b506102ce6102c93660046129b3565b610b26565b60405190151581526020015b60405180910390f35b3480156102ef57600080fd5b506102f8610b64565b6040516102da9190612a2d565b34801561031157600080fd5b506102ac610320366004612a40565b610bf6565b34801561033157600080fd5b506102ce610340366004612a72565b610c7f565b34801561035157600080fd5b506102ac610360366004612a9e565b610c97565b34801561037157600080fd5b506102ac610380366004612a40565b610cb6565b34801561039157600080fd5b506009545b6040519081526020016102da565b3480156103b057600080fd5b506102ce6103bf366004612abc565b610d0e565b3480156103d057600080fd5b506103e46103df366004612b0d565b610d32565b604080519283526020830191909152016102da565b34801561040557600080fd5b50604051601281526020016102da565b34801561042157600080fd5b506102ce610430366004612a72565b610e05565b34801561044157600080fd5b506102ce610450366004612bac565b610e27565b34801561046157600080fd5b50610396610470366004612a40565b60036020526000908152604090205481565b34801561048e57600080fd5b506102ac61049d366004612a72565b610ef3565b3480156104ae57600080fd5b506102ac6104bd366004612bac565b610f09565b3480156104ce57600080fd5b50610396600081565b3480156104e357600080fd5b506104ec600081565b60405161ffff90911681526020016102da565b6102ac61050d366004612c00565b610f8f565b34801561051e57600080fd5b5061039661052d366004612d36565b6005602090815260009384526040808520845180860184018051928152908401958401959095209452929052825290205481565b34801561056d57600080fd5b506102ac61057c36600461291e565b611014565b34801561058d57600080fd5b5061039661059c366004612dd8565b6001600160a01b031660009081526007602052604090205490565b3480156105c357600080fd5b506102ac6110f0565b3480156105d857600080fd5b506102f86105e7366004612a40565b611104565b3480156105f857600080fd5b50610396610607366004612df5565b600260209081526000928352604080842090915290825290205481565b34801561063057600080fd5b506000546001600160a01b03165b6040516001600160a01b0390911681526020016102da565b34801561066257600080fd5b5061039661119e565b34801561067757600080fd5b5060045461063e906001600160a01b031681565b34801561069757600080fd5b506102f86111ae565b3480156106ac57600080fd5b506102ac6106bb366004612a72565b6111bd565b3480156106cc57600080fd5b506102f86106db366004612a40565b6111cf565b3480156106ec57600080fd5b506102ce6106fb366004612a72565b6112e5565b34801561070c57600080fd5b506102ac61071b366004612bac565b611360565b34801561072c57600080fd5b506102ce61073b366004612a72565b6113e9565b34801561074c57600080fd5b5061063e7f000000000000000000000000000000000000000000000000000000000000000081565b34801561078057600080fd5b506102ac61078f366004612dd8565b6113f7565b3480156107a057600080fd5b5061039661271081565b3480156107b657600080fd5b506102ac6107c5366004612e2e565b611454565b6102ac6107d836600461291e565b6114de565b3480156107e957600080fd5b506103966107f8366004612ea0565b6116f4565b34801561080957600080fd5b506102ac610818366004612ece565b61171f565b34801561082957600080fd5b506102ac610838366004612efe565b6117d1565b34801561084957600080fd5b506102ac610858366004612bac565b61181a565b34801561086957600080fd5b506006546102ce9060ff1681565b34801561088357600080fd5b506102ac610892366004612dd8565b611874565b3480156108a357600080fd5b506102f86108b2366004612f19565b6118ed565b3480156108c357600080fd5b503061063e565b6108f56040518060400160405280600a8152602001692320726563656976652160b01b81525061199e565b337f00000000000000000000000000000000000000000000000000000000000000006001600160a01b0316146109725760405162461bcd60e51b815260206004820152601e60248201527f4c7a4170703a20696e76616c696420656e64706f696e742063616c6c6572000060448201526064015b60405180910390fd5b61ffff86166000908152600160205260408120805461099090612f6a565b80601f01602080910402602001604051908101604052809291908181526020018280546109bc90612f6a565b8015610a095780601f106109de57610100808354040283529160200191610a09565b820191906000526020600020905b8154815290600101906020018083116109ec57829003601f168201915b50505050509050805186869050148015610a24575060008151115b8015610a4c575080516020820120604051610a429088908890612fa4565b6040518091039020145b610aa75760405162461bcd60e51b815260206004820152602660248201527f4c7a4170703a20696e76616c696420736f757263652073656e64696e6720636f6044820152651b9d1c9858dd60d21b6064820152608401610969565b610b1d8787878080601f01602080910402602001604051908101604052809392919081815260200183838082843760009201919091525050604080516020601f8a018190048102820181019092528881528a9350915088908890819084018382808284376000920191909152506119e192505050565b50505050505050565b60006001600160e01b031982161580610b4f57506001600160e01b031982166336372b0760e01b145b80610b5e5750610b5e82611a5a565b92915050565b6060600a8054610b7390612f6a565b80601f0160208091040260200160405190810160405280929190818152602001828054610b9f90612f6a565b8015610bec5780601f10610bc157610100808354040283529160200191610bec565b820191906000526020600020905b815481529060010190602001808311610bcf57829003601f168201915b5050505050905090565b610bfe611a8f565b6040516307e0db1760e01b815261ffff821660048201527f00000000000000000000000000000000000000000000000000000000000000006001600160a01b0316906307e0db17906024015b600060405180830381600087803b158015610c6457600080fd5b505af1158015610c78573d6000803e3d6000fd5b5050505050565b600033610c8d818585611ae9565b5060019392505050565b610c9f611a8f565b61ffff909116600090815260036020526040902055565b610cbe611a8f565b6040516310ddb13760e01b815261ffff821660048201527f00000000000000000000000000000000000000000000000000000000000000006001600160a01b0316906310ddb13790602401610c4a565b600033610d1c858285611c0e565b610d27858585611c88565b506001949350505050565b600080600080898989604051602001610d4e9493929190612fdd565b60408051601f198184030181529082905263040a7bb160e41b825291506001600160a01b037f000000000000000000000000000000000000000000000000000000000000000016906340a7bb1090610db4908d90309086908c908c908c9060040161300c565b6040805180830381865afa158015610dd0573d6000803e3d6000fd5b505050506040513d601f19601f82011682018060405250810190610df49190613062565b925092505097509795505050505050565b600033610c8d818585610e1883836116f4565b610e22919061309c565b611ae9565b61ffff831660009081526001602052604081208054829190610e4890612f6a565b80601f0160208091040260200160405190810160405280929190818152602001828054610e7490612f6a565b8015610ec15780601f10610e9657610100808354040283529160200191610ec1565b820191906000526020600020905b815481529060010190602001808311610ea457829003601f168201915b505050505090508383604051610ed8929190612fa4565b60405180910390208180519060200120149150509392505050565b610efb611a8f565b610f058282611e21565b5050565b610f11611a8f565b6040516342d65a8d60e01b81526001600160a01b037f000000000000000000000000000000000000000000000000000000000000000016906342d65a8d90610f61908690869086906004016130af565b600060405180830381600087803b158015610f7b57600080fd5b505af1158015610b1d573d6000803e3d6000fd5b611009898989898080601f01602080910402602001604051908101604052809392919081815260200183838082843760009201919091525050604080516020601f8a018190048102820181019092528881528c93508b92508a918a908a9081908401838280828437600092019190915250611ed092505050565b505050505050505050565b3330146110725760405162461bcd60e51b815260206004820152602660248201527f4e6f6e626c6f636b696e674c7a4170703a2063616c6c6572206d7573742062656044820152650204c7a4170760d41b6064820152608401610969565b6110e88686868080601f01602080910402602001604051908101604052809392919081815260200183838082843760009201919091525050604080516020601f890181900481028201810190925287815289935091508790879081908401838280828437600092019190915250611f7792505050565b505050505050565b6110f8611a8f565b6111026000611fde565b565b6001602052600090815260409020805461111d90612f6a565b80601f016020809104026020016040519081016040528092919081815260200182805461114990612f6a565b80156111965780601f1061116b57610100808354040283529160200191611196565b820191906000526020600020905b81548152906001019060200180831161117957829003601f168201915b505050505081565b60006111a960095490565b905090565b6060600b8054610b7390612f6a565b6111c5611a8f565b610f05828261202e565b61ffff81166000908152600160205260408120805460609291906111f290612f6a565b80601f016020809104026020016040519081016040528092919081815260200182805461121e90612f6a565b801561126b5780601f106112405761010080835404028352916020019161126b565b820191906000526020600020905b81548152906001019060200180831161124e57829003601f168201915b5050505050905080516000036112c35760405162461bcd60e51b815260206004820152601d60248201527f4c7a4170703a206e6f20747275737465642070617468207265636f72640000006044820152606401610969565b6112de6000601483516112d691906130cd565b83919061214d565b9392505050565b600033816112f382866116f4565b9050838110156113535760405162461bcd60e51b815260206004820152602560248201527f45524332303a2064656372656173656420616c6c6f77616e63652062656c6f77604482015264207a65726f60d81b6064820152608401610969565b610d278286868403611ae9565b611368611a8f565b81813060405160200161137d939291906130e0565b60408051601f1981840301815291815261ffff85166000908152600160205220906113a89082613161565b507f8c0400cfe2d1199b1a725c78960bcc2a344d869b80590d0f2bd005db15a572ce8383836040516113dc939291906130af565b60405180910390a1505050565b600033610c8d818585611c88565b6113ff611a8f565b600480546001600160a01b0319166001600160a01b0383169081179091556040519081527f5db758e995a17ec1ad84bdef7e8c3293a0bd6179bcce400dff5d4c3d87db726b906020015b60405180910390a150565b61145c611a8f565b6040516332fb62e760e21b81526001600160a01b037f0000000000000000000000000000000000000000000000000000000000000000169063cbed8b9c906114b0908890889088908890889060040161321a565b600060405180830381600087803b1580156114ca57600080fd5b505af1158015611009573d6000803e3d6000fd5b61ffff861660009081526005602052604080822090516115019088908890612fa4565b90815260408051602092819003830190206001600160401b038716600090815292529020549050806115815760405162461bcd60e51b815260206004820152602360248201527f4e6f6e626c6f636b696e674c7a4170703a206e6f2073746f726564206d65737360448201526261676560e81b6064820152608401610969565b808383604051611592929190612fa4565b6040518091039020146115f15760405162461bcd60e51b815260206004820152602160248201527f4e6f6e626c6f636b696e674c7a4170703a20696e76616c6964207061796c6f616044820152601960fa1b6064820152608401610969565b61ffff871660009081526005602052604080822090516116149089908990612fa4565b90815260408051602092819003830181206001600160401b038916600090815290845282902093909355601f880182900482028301820190528682526116ac918991899089908190840183828082843760009201919091525050604080516020601f8a018190048102820181019092528881528a935091508890889081908401838280828437600092019190915250611f7792505050565b7fc264d91f3adc5588250e1551f547752ca0cfa8f6b530d243b9f9f4cab10ea8e587878787856040516116e3959493929190613253565b60405180910390a150505050505050565b6001600160a01b03918216600090815260086020908152604080832093909416825291909152205490565b611727611a8f565b6000811161176f5760405162461bcd60e51b81526020600482015260156024820152744c7a4170703a20696e76616c6964206d696e47617360581b6044820152606401610969565b61ffff83811660008181526002602090815260408083209487168084529482529182902085905581519283528201929092529081018290527f9d5c7c0b934da8fefa9c7760c98383778a12dfbfc0c3b3106518f43fb9508ac0906060016113dc565b6117d9611a8f565b6006805460ff19168215159081179091556040519081527f1584ad594a70cbe1e6515592e1272a987d922b097ead875069cebe8b40c004a490602001611449565b611822611a8f565b61ffff8316600090815260016020526040902061184082848361328e565b507ffa41487ad5d6728f0b19276fa1eddc16558578f5109fc39d2dc33c3230470dab8383836040516113dc939291906130af565b61187c611a8f565b6001600160a01b0381166118e15760405162461bcd60e51b815260206004820152602660248201527f4f776e61626c653a206e6577206f776e657220697320746865207a65726f206160448201526564647265737360d01b6064820152608401610969565b6118ea81611fde565b50565b604051633d7b2f6f60e21b815261ffff808616600483015284166024820152306044820152606481018290526060907f00000000000000000000000000000000000000000000000000000000000000006001600160a01b03169063f5ecbdbc90608401600060405180830381865afa15801561196d573d6000803e3d6000fd5b505050506040513d6000823e601f3d908101601f191682016040526119959190810190613394565b95945050505050565b6118ea816040516024016119b29190612a2d565b60408051601f198184030181529190526020810180516001600160e01b031663104c13eb60e21b17905261225a565b600080611a445a60966366ad5c8a60e01b89898989604051602401611a0994939291906133c8565b60408051601f198184030181529190526020810180516001600160e01b03166001600160e01b03199093169290921790915230929190612263565b91509150816110e8576110e886868686856122ed565b60006001600160e01b03198216630a72677560e11b1480610b5e57506301ffc9a760e01b6001600160e01b0319831614610b5e565b6000546001600160a01b031633146111025760405162461bcd60e51b815260206004820181905260248201527f4f776e61626c653a2063616c6c6572206973206e6f7420746865206f776e65726044820152606401610969565b6001600160a01b038316611b4b5760405162461bcd60e51b8152602060048201526024808201527f45524332303a20617070726f76652066726f6d20746865207a65726f206164646044820152637265737360e01b6064820152608401610969565b6001600160a01b038216611bac5760405162461bcd60e51b815260206004820152602260248201527f45524332303a20617070726f766520746f20746865207a65726f206164647265604482015261737360f01b6064820152608401610969565b6001600160a01b0383811660008181526008602090815260408083209487168084529482529182902085905590518481527f8c5be1e5ebec7d5bd14f71427d1e84f3dd0314c0f7b2291e5b200ac8c7c3b92591015b60405180910390a3505050565b6000611c1a84846116f4565b90506000198114611c825781811015611c755760405162461bcd60e51b815260206004820152601d60248201527f45524332303a20696e73756666696369656e7420616c6c6f77616e63650000006044820152606401610969565b611c828484848403611ae9565b50505050565b6001600160a01b038316611cec5760405162461bcd60e51b815260206004820152602560248201527f45524332303a207472616e736665722066726f6d20746865207a65726f206164604482015264647265737360d81b6064820152608401610969565b6001600160a01b038216611d4e5760405162461bcd60e51b815260206004820152602360248201527f45524332303a207472616e7366657220746f20746865207a65726f206164647260448201526265737360e81b6064820152608401610969565b6001600160a01b03831660009081526007602052604090205481811015611dc65760405162461bcd60e51b815260206004820152602660248201527f45524332303a207472616e7366657220616d6f756e7420657863656564732062604482015265616c616e636560d01b6064820152608401610969565b6001600160a01b03808516600081815260076020526040808220868603905592861680825290839020805486019055915160008051602061358383398151915290611e149086815260200190565b60405180910390a3611c82565b6001600160a01b038216611e775760405162461bcd60e51b815260206004820152601f60248201527f45524332303a206d696e7420746f20746865207a65726f2061646472657373006044820152606401610969565b8060096000828254611e89919061309c565b90915550506001600160a01b038216600081815260076020908152604080832080548601905551848152600080516020613583833981519152910160405180910390a35050565b611ede86600083600061238a565b6000611eec88888888612404565b90506000808783604051602001611f0593929190613406565b6040516020818303038152906040529050611f24888287878734612436565b886001600160a01b03168861ffff167f39a4c66499bcf4b56d79f0dde8ed7a9d4925a0df55825206b2b8531e202be0d08985604051611f64929190613433565b60405180910390a3505050505050505050565b602081015161ffff8116611f9657611f91858585856125db565b610c78565b60405162461bcd60e51b815260206004820152601c60248201527f4f4654436f72653a20756e6b6e6f776e207061636b65742074797065000000006044820152606401610969565b600080546001600160a01b038381166001600160a01b0319831681178455604051919092169283917f8be0079c531659141344cd1fd0a4f28419497f9722a3daafe3b4186f6b6457e09190a35050565b6001600160a01b03821661208e5760405162461bcd60e51b815260206004820152602160248201527f45524332303a206275726e2066726f6d20746865207a65726f206164647265736044820152607360f81b6064820152608401610969565b6001600160a01b038216600090815260076020526040902054818110156121025760405162461bcd60e51b815260206004820152602260248201527f45524332303a206275726e20616d6f756e7420657863656564732062616c616e604482015261636560f01b6064820152608401610969565b6001600160a01b03831660008181526007602090815260408083208686039055600980548790039055518581529192916000805160206135838339815191529101611c01565b505050565b60608161215b81601f61309c565b101561219a5760405162461bcd60e51b815260206004820152600e60248201526d736c6963655f6f766572666c6f7760901b6044820152606401610969565b6121a4828461309c565b845110156121e85760405162461bcd60e51b8152602060048201526011602482015270736c6963655f6f75744f66426f756e647360781b6044820152606401610969565b6060821580156122075760405191506000825260208201604052612251565b6040519150601f8416801560200281840101858101878315602002848b0101015b81831015612240578051835260209283019201612228565b5050858452601f01601f1916604052505b50949350505050565b6118ea81612665565b6000606060008060008661ffff166001600160401b0381111561228857612288612cc9565b6040519080825280601f01601f1916602001820160405280156122b2576020820181803683370190505b50905060008087516020890160008d8df191503d9250868311156122d4578692505b828152826000602083013e909890975095505050505050565b8180519060200120600560008761ffff1661ffff1681526020019081526020016000208560405161231e9190613455565b9081526040805191829003602090810183206001600160401b0388166000908152915220919091557fe183f33de2837795525b4792ca4cd60535bd77c53b7e7030060bfcf5734d6b0c9061237b9087908790879087908790613471565b60405180910390a15050505050565b60065460ff16156123a6576123a184848484612686565b611c82565b815115611c825760405162461bcd60e51b815260206004820152602660248201527f4f4654436f72653a205f61646170746572506172616d73206d7573742062652060448201526532b6b83a3c9760d11b6064820152608401610969565b6000336001600160a01b038616811461242257612422868285611c0e565b61242c868461202e565b5090949350505050565b61ffff86166000908152600160205260408120805461245490612f6a565b80601f016020809104026020016040519081016040528092919081815260200182805461248090612f6a565b80156124cd5780601f106124a2576101008083540402835291602001916124cd565b820191906000526020600020905b8154815290600101906020018083116124b057829003601f168201915b50505050509050805160000361253e5760405162461bcd60e51b815260206004820152603060248201527f4c7a4170703a2064657374696e6174696f6e20636861696e206973206e6f742060448201526f61207472757374656420736f7572636560801b6064820152608401610969565b612549878751612765565b60405162c5803160e81b81526001600160a01b037f0000000000000000000000000000000000000000000000000000000000000000169063c58031009084906125a0908b9086908c908c908c908c906004016134cf565b6000604051808303818588803b1580156125b957600080fd5b505af11580156125cd573d6000803e3d6000fd5b505050505050505050505050565b600080828060200190518101906125f29190613529565b90935091506000905061260583826127d6565b905061261287828461283b565b9150806001600160a01b03168761ffff167fbf551ec93859b170f9b2141bd9298bf3f64322c6f7beb2543a0cb669834118bf8460405161265491815260200190565b60405180910390a350505050505050565b60006a636f6e736f6c652e6c6f679050600080835160208501845afa505050565b60006126918361284e565b61ffff8087166000908152600260209081526040808320938916835292905290812054919250906126c390849061309c565b9050600081116127155760405162461bcd60e51b815260206004820152601a60248201527f4c7a4170703a206d696e4761734c696d6974206e6f74207365740000000000006044820152606401610969565b808210156110e85760405162461bcd60e51b815260206004820152601b60248201527f4c7a4170703a20676173206c696d697420697320746f6f206c6f7700000000006044820152606401610969565b61ffff82166000908152600360205260408120549081900361278657506127105b808211156121485760405162461bcd60e51b815260206004820181905260248201527f4c7a4170703a207061796c6f61642073697a6520697320746f6f206c617267656044820152606401610969565b60006127e382601461309c565b8351101561282b5760405162461bcd60e51b8152602060048201526015602482015274746f416464726573735f6f75744f66426f756e647360581b6044820152606401610969565b500160200151600160601b900490565b60006128478383611e21565b5092915050565b60006022825110156128a25760405162461bcd60e51b815260206004820152601c60248201527f4c7a4170703a20696e76616c69642061646170746572506172616d73000000006044820152606401610969565b506022015190565b61ffff811681146118ea57600080fd5b60008083601f8401126128cc57600080fd5b5081356001600160401b038111156128e357600080fd5b6020830191508360208285010111156128fb57600080fd5b9250929050565b80356001600160401b038116811461291957600080fd5b919050565b6000806000806000806080878903121561293757600080fd5b8635612942816128aa565b955060208701356001600160401b038082111561295e57600080fd5b61296a8a838b016128ba565b909750955085915061297e60408a01612902565b9450606089013591508082111561299457600080fd5b506129a189828a016128ba565b979a9699509497509295939492505050565b6000602082840312156129c557600080fd5b81356001600160e01b0319811681146112de57600080fd5b60005b838110156129f85781810151838201526020016129e0565b50506000910152565b60008151808452612a198160208601602086016129dd565b601f01601f19169290920160200192915050565b6020815260006112de6020830184612a01565b600060208284031215612a5257600080fd5b81356112de816128aa565b6001600160a01b03811681146118ea57600080fd5b60008060408385031215612a8557600080fd5b8235612a9081612a5d565b946020939093013593505050565b60008060408385031215612ab157600080fd5b8235612a90816128aa565b600080600060608486031215612ad157600080fd5b8335612adc81612a5d565b92506020840135612aec81612a5d565b929592945050506040919091013590565b8035801515811461291957600080fd5b600080600080600080600060a0888a031215612b2857600080fd5b8735612b33816128aa565b965060208801356001600160401b0380821115612b4f57600080fd5b612b5b8b838c016128ba565b909850965060408a01359550869150612b7660608b01612afd565b945060808a0135915080821115612b8c57600080fd5b50612b998a828b016128ba565b989b979a50959850939692959293505050565b600080600060408486031215612bc157600080fd5b8335612bcc816128aa565b925060208401356001600160401b03811115612be757600080fd5b612bf3868287016128ba565b9497909650939450505050565b600080600080600080600080600060e08a8c031215612c1e57600080fd5b8935612c2981612a5d565b985060208a0135612c39816128aa565b975060408a01356001600160401b0380821115612c5557600080fd5b612c618d838e016128ba565b909950975060608c0135965060808c01359150612c7d82612a5d565b90945060a08b013590612c8f82612a5d565b90935060c08b01359080821115612ca557600080fd5b50612cb28c828d016128ba565b915080935050809150509295985092959850929598565b634e487b7160e01b600052604160045260246000fd5b604051601f8201601f191681016001600160401b0381118282101715612d0757612d07612cc9565b604052919050565b60006001600160401b03821115612d2857612d28612cc9565b50601f01601f191660200190565b600080600060608486031215612d4b57600080fd5b8335612d56816128aa565b925060208401356001600160401b03811115612d7157600080fd5b8401601f81018613612d8257600080fd5b8035612d95612d9082612d0f565b612cdf565b818152876020838501011115612daa57600080fd5b81602084016020830137600060208383010152809450505050612dcf60408501612902565b90509250925092565b600060208284031215612dea57600080fd5b81356112de81612a5d565b60008060408385031215612e0857600080fd5b8235612e13816128aa565b91506020830135612e23816128aa565b809150509250929050565b600080600080600060808688031215612e4657600080fd5b8535612e51816128aa565b94506020860135612e61816128aa565b93506040860135925060608601356001600160401b03811115612e8357600080fd5b612e8f888289016128ba565b969995985093965092949392505050565b60008060408385031215612eb357600080fd5b8235612ebe81612a5d565b91506020830135612e2381612a5d565b600080600060608486031215612ee357600080fd5b8335612eee816128aa565b92506020840135612aec816128aa565b600060208284031215612f1057600080fd5b6112de82612afd565b60008060008060808587031215612f2f57600080fd5b8435612f3a816128aa565b93506020850135612f4a816128aa565b92506040850135612f5a81612a5d565b9396929550929360600135925050565b600181811c90821680612f7e57607f821691505b602082108103612f9e57634e487b7160e01b600052602260045260246000fd5b50919050565b8183823760009101908152919050565b81835281816020850137506000828201602090810191909152601f909101601f19169091010190565b61ffff85168152606060208201526000612ffb606083018587612fb4565b905082604083015295945050505050565b61ffff871681526001600160a01b038616602082015260a06040820181905260009061303a90830187612a01565b85151560608401528281036080840152613055818587612fb4565b9998505050505050505050565b6000806040838503121561307557600080fd5b505080516020909101519092909150565b634e487b7160e01b600052601160045260246000fd5b80820180821115610b5e57610b5e613086565b61ffff84168152604060208201526000611995604083018486612fb4565b81810381811115610b5e57610b5e613086565b8284823760609190911b6bffffffffffffffffffffffff19169101908152601401919050565b601f82111561214857600081815260208120601f850160051c8101602086101561312d5750805b601f850160051c820191505b818110156110e857828155600101613139565b600019600383901b1c191660019190911b1790565b81516001600160401b0381111561317a5761317a612cc9565b61318e816131888454612f6a565b84613106565b602080601f8311600181146131bd57600084156131ab5750858301515b6131b5858261314c565b8655506110e8565b600085815260208120601f198616915b828110156131ec578886015182559484019460019091019084016131cd565b508582101561320a5787850151600019600388901b60f8161c191681555b5050505050600190811b01905550565b600061ffff808816835280871660208401525084604083015260806060830152613248608083018486612fb4565b979650505050505050565b61ffff86168152608060208201526000613271608083018688612fb4565b6001600160401b0394909416604083015250606001529392505050565b6001600160401b038311156132a5576132a5612cc9565b6132b9836132b38354612f6a565b83613106565b6000601f8411600181146132e757600085156132d55750838201355b6132df868261314c565b845550610c78565b600083815260209020601f19861690835b8281101561331857868501358255602094850194600190920191016132f8565b50868210156133355760001960f88860031b161c19848701351681555b505060018560011b0183555050505050565b600082601f83011261335857600080fd5b8151613366612d9082612d0f565b81815284602083860101111561337b57600080fd5b61338c8260208301602087016129dd565b949350505050565b6000602082840312156133a657600080fd5b81516001600160401b038111156133bc57600080fd5b61338c84828501613347565b61ffff851681526080602082015260006133e56080830186612a01565b6001600160401b038516604084015282810360608401526132488185612a01565b61ffff841681526060602082015260006134236060830185612a01565b9050826040830152949350505050565b6040815260006134466040830185612a01565b90508260208301529392505050565b600082516134678184602087016129dd565b9190910192915050565b61ffff8616815260a06020820152600061348e60a0830187612a01565b6001600160401b038616604084015282810360608401526134af8186612a01565b905082810360808401526134c38185612a01565b98975050505050505050565b61ffff8716815260c0602082015260006134ec60c0830188612a01565b82810360408401526134fe8188612a01565b6001600160a01b0387811660608601528616608085015283810360a085015290506130558185612a01565b60008060006060848603121561353e57600080fd5b8351613549816128aa565b60208501519093506001600160401b0381111561356557600080fd5b61357186828701613347565b92505060408401519050925092509256feddf252ad1be2c89b69c2b068fc378daa952ba7f163c4a11628f55a4df523b3efa2646970667358221220beb7bb428c7e08299bf3a603ca7afc319f397e582d169382124ce799c7cb123e64736f6c6343000811003323204f43504f544d2e6372656174654f6d6e69546f6b656e203d3e205f737263436861696e49643a2023204f43504f544d2e6372656174654f6d6e69546f6b656e203d3e205f6d696e74506172616d732e746f23204f43504f544d2e6372656174654f6d6e69546f6b656e203d3e205f6d696e74506172616d732e737263546f6b656e3a2023204f43504f544d2e6372656174654f6d6e69546f6b656e203d3e20746f6b656e3a2023204f43504f544d2e6372656174654f6d6e69546f6b656e203d3e205f6d696e74506172616d732e616d6f756e74a264697066735822122047fc52e223a518e80d61896680fbd27f0eb7a4bc99b48059ef36dce0246fc2d464736f6c63430008110033",
  "devdoc": {
    "author": "Muller",
    "details": "This contract is used to manage the OmniTokensIt is used by the router to create OmniTokens and mint/burn tokens",
    "kind": "dev",
    "methods": {
      "approveSourceTokens(address[],uint16,address[])": {
        "details": "Approve a source token Requirements: `_omniTokens` cannot be the zero address `_srcChainId` cannot be the zero address `_srcTokens` cannot be the zero address only the timelock can call this function",
        "params": {
          "_omniTokens": "The address of the OmniToken",
          "_srcChainId": "The source chain id",
          "_srcTokens": "The address of the source token"
        }
      },
      "createOmniToken((address,address,uint256,address,string,string),address,uint16)": {
        "details": "Create a new OmniToken Requirements: `_mintParams.srcToken` cannot be the zero address `_mintParams.srcChainId` cannot be the zero address `_mintParams.name` cannot be the zero address `_mintParams.symbol` cannot be the zero address `_mintParams.amount` cannot be the zero address `_mintParams.to` cannot be the zero address `_lzEndpoint` cannot be the zero address `_srcChainId` cannot be the zero address",
        "params": {
          "_lzEndpoint": "The endpoint of the Lazynode",
          "_mintParams": "The mint parameters",
          "_srcChainId": "The source chain id"
        },
        "returns": {
          "token": "The address of the new OmniToken"
        }
      },
      "omniBurn(address,uint256,address)": {
        "details": "Burn OmniTokens Requirements: `_omniToken` cannot be the zero address `_amount` cannot be the zero address `_from` cannot be the zero address only the router can call this function",
        "params": {
          "_amount": "The amount to burn",
          "_from": "The address to burn from",
          "_omniToken": "The address of the OmniToken"
        }
      },
      "omniMint((address,address,uint256,address,string,string),uint16)": {
        "details": "Mint OmniTokens Requirements: `srcToken` cannot be the zero address `_srcChainId` cannot be the zero `amount` cannot be the zero `to` cannot be the zero address only the router can call this function",
        "params": {
          "_mintParams": "The mint parameters",
          "_srcChainId": "The source chain id"
        },
        "returns": {
          "token": "The address of the OmniToken"
        }
      },
      "requestAddSourceTokens(address[],uint16[],address)": {
        "details": "Add a source token Requirements: `_srcToken` cannot be the zero address `_srcChainId` cannot be the zero address `_omniToken` cannot be the zero address only the timelock can call this function",
        "params": {
          "_omniToken": "The address of the OmniToken",
          "_srcChainIds": "The source chain id",
          "_srcTokens": "The address of the source token"
        }
      },
      "updateRouter(address)": {
        "details": "Update the router Requirements: `_router` cannot be the zero address only the timelock can call this function",
        "params": {
          "_router": "The address of the router"
        }
      },
      "updateTimeLock(address)": {
        "details": "Update the timelock Requirements: `_timeLock` cannot be the zero address only the timelock can call this function",
        "params": {
          "_timeLock": "The address of the timelock"
        }
      }
    },
    "title": "OCPOmniTokenManager",
    "version": 1
  },
  "userdoc": {
    "kind": "user",
    "methods": {},
    "notice": "This contract is deployed on the source chainIt is used by the router to create OmniTokens and mint/burn tokensIt is also used by the timelock to add source tokens and update the router createOmniToken: create a new OmniToken omniMint: mint OmniTokens omniBurn: burn OmniTokensthe settings can only be updated by the timelockthe timelock can call the following functions: requestAddSourceTokens: add a source token approveSourceTokens: approve a source token updateRouter: update the router updateTimeLock: update the timelock",
    "version": 1
  },
  "storageLayout": {
    "storage": [
      {
        "astId": 6098,
        "contract": "contracts/OCPOmniTokenManager.sol:OCPOmniTokenManager",
        "label": "router",
        "offset": 0,
        "slot": "0",
        "type": "t_address"
      },
      {
        "astId": 6100,
        "contract": "contracts/OCPOmniTokenManager.sol:OCPOmniTokenManager",
        "label": "timeLock",
        "offset": 0,
        "slot": "1",
        "type": "t_address"
      },
      {
        "astId": 6106,
        "contract": "contracts/OCPOmniTokenManager.sol:OCPOmniTokenManager",
        "label": "omniTokens",
        "offset": 0,
        "slot": "2",
        "type": "t_mapping(t_address,t_mapping(t_uint16,t_address))"
      },
      {
        "astId": 6112,
        "contract": "contracts/OCPOmniTokenManager.sol:OCPOmniTokenManager",
        "label": "sourceTokens",
        "offset": 0,
        "slot": "3",
        "type": "t_mapping(t_address,t_mapping(t_uint16,t_address))"
      },
      {
        "astId": 6115,
        "contract": "contracts/OCPOmniTokenManager.sol:OCPOmniTokenManager",
        "label": "omniTokenList",
        "offset": 0,
        "slot": "4",
        "type": "t_array(t_address)dyn_storage"
      }
    ],
    "types": {
      "t_address": {
        "encoding": "inplace",
        "label": "address",
        "numberOfBytes": "20"
      },
      "t_array(t_address)dyn_storage": {
        "base": "t_address",
        "encoding": "dynamic_array",
        "label": "address[]",
        "numberOfBytes": "32"
      },
      "t_mapping(t_address,t_mapping(t_uint16,t_address))": {
        "encoding": "mapping",
        "key": "t_address",
        "label": "mapping(address => mapping(uint16 => address))",
        "numberOfBytes": "32",
        "value": "t_mapping(t_uint16,t_address)"
      },
      "t_mapping(t_uint16,t_address)": {
        "encoding": "mapping",
        "key": "t_uint16",
        "label": "mapping(uint16 => address)",
        "numberOfBytes": "32",
        "value": "t_address"
      },
      "t_uint16": {
        "encoding": "inplace",
        "label": "uint16",
        "numberOfBytes": "2"
      }
    }
  }
}