{
  "address": "0xA18Eabbb0BB16F5582e878c1Fc0ead05CdbdBbfe",
  "abi": [
    {
      "inputs": [
        {
          "internalType": "address",
          "name": "_token",
          "type": "address"
        }
      ],
      "name": "createPool",
      "outputs": [
        {
          "internalType": "address",
          "name": "pool",
          "type": "address"
        }
      ],
      "stateMutability": "nonpayable",
      "type": "function"
    },
    {
      "inputs": [
        {
          "internalType": "address",
          "name": "",
          "type": "address"
        }
      ],
      "name": "getPool",
      "outputs": [
        {
          "internalType": "address",
          "name": "",
          "type": "address"
        }
      ],
      "stateMutability": "view",
      "type": "function"
    }
  ],
  "transactionHash": "0x79be2711b22a548c1a2199be0a7608570a937546545fe56c0af16277351757f2",
  "args": [],
  "numDeployments": 1,
  "solcInputHash": "3237f7a1bc1f3f789205197efd1ef264",
  "bytecode": "0x608060405234801561001057600080fd5b506103d4806100206000396000f3fe608060405234801561001057600080fd5b50600436106100365760003560e01c80639049f9d21461003b578063bbe4f6db1461006a575b600080fd5b61004e6100493660046101de565b610093565b6040516001600160a01b03909116815260200160405180910390f35b61004e6100783660046101de565b6000602081905290815260409020546001600160a01b031681565b6001600160a01b038181166000908152602081905260408120549091161561010d5760405162461bcd60e51b815260206004820152602360248201527f4f4350506f6f6c466163746f72793a20506f6f6c20616c72656164792065786960448201526273747360e81b606482015260840160405180910390fd5b6040516e13d0d417d0d49150551157d413d3d3608a1b60208201526bffffffffffffffffffffffff19606084901b16602f820152600090604301604051602081830303815290604052805190602001208360405161016a906101d1565b6001600160a01b0390911681526020018190604051809103906000f590508015801561019a573d6000803e3d6000fd5b506001600160a01b03938416600090815260208190526040902080546001600160a01b031916948216949094179093555090919050565b6101908061020f83390190565b6000602082840312156101f057600080fd5b81356001600160a01b038116811461020757600080fd5b939250505056fe608060405234801561001057600080fd5b5060405161019038038061019083398101604081905261002f91610054565b600080546001600160a01b0319166001600160a01b0392909216919091179055610084565b60006020828403121561006657600080fd5b81516001600160a01b038116811461007d57600080fd5b9392505050565b60fe806100926000396000f3fe6080604052348015600f57600080fd5b5060043610603c5760003560e01c8063f3fef3a3146041578063f887ea40146052578063fc0c546a146080575b600080fd5b6050604c3660046092565b5050565b005b6001546064906001600160a01b031681565b6040516001600160a01b03909116815260200160405180910390f35b6000546064906001600160a01b031681565b6000806040838503121560a457600080fd5b82356001600160a01b038116811460ba57600080fd5b94602093909301359350505056fea26469706673582212205b7c6dd8c94db0cfb98555310c434fb1171f7ecba88eada1f09f6e55f5e5fb7164736f6c63430008110033a2646970667358221220b6a037e4f4b00eeb094b6a849c2690cc4620bc6181d4325370edc1b90b091c8b64736f6c63430008110033",
  "devdoc": {
    "kind": "dev",
    "methods": {
      "createPool(address)": {
        "details": "create a new pool `createPool` is a helper function to create a new pool. Emits a {PoolCreated} event. If the pool already exists, it will revert. If the pool is created successfully, it will return the pool address and be added to `getPool`. Requirements: - _token must be valid - `getPool[_token]` must be empty",
        "params": {
          "_token": "token address"
        },
        "returns": {
          "pool": "address"
        }
      }
    },
    "version": 1
  },
  "userdoc": {
    "kind": "user",
    "methods": {},
    "version": 1
  },
  "storageLayout": {
    "storage": [
      {
        "astId": 6425,
        "contract": "contracts/OCPoolFactory.sol:OCPoolFactory",
        "label": "getPool",
        "offset": 0,
        "slot": "0",
        "type": "t_mapping(t_address,t_address)"
      }
    ],
    "types": {
      "t_address": {
        "encoding": "inplace",
        "label": "address",
        "numberOfBytes": "20"
      },
      "t_mapping(t_address,t_address)": {
        "encoding": "mapping",
        "key": "t_address",
        "label": "mapping(address => address)",
        "numberOfBytes": "32",
        "value": "t_address"
      }
    }
  }
}