{
  "address": "0x59700937418444d92dB6eD4962C25D92a4Aa19f4",
  "abi": [
    {
      "inputs": [
        {
          "internalType": "address",
          "name": "_poolFactory",
          "type": "address"
        },
        {
          "internalType": "address",
          "name": "_tokenManager",
          "type": "address"
        },
        {
          "internalType": "address",
          "name": "_bridge",
          "type": "address"
        },
        {
          "internalType": "address",
          "name": "_weth",
          "type": "address"
        }
      ],
      "stateMutability": "nonpayable",
      "type": "constructor"
    },
    {
      "anonymous": false,
      "inputs": [
        {
          "indexed": true,
          "internalType": "address",
          "name": "previousOwner",
          "type": "address"
        },
        {
          "indexed": true,
          "internalType": "address",
          "name": "newOwner",
          "type": "address"
        }
      ],
      "name": "OwnershipTransferred",
      "type": "event"
    },
    {
      "inputs": [],
      "name": "bridge",
      "outputs": [
        {
          "internalType": "contract IOCPBridge",
          "name": "",
          "type": "address"
        }
      ],
      "stateMutability": "view",
      "type": "function"
    },
    {
      "inputs": [
        {
          "internalType": "uint16",
          "name": "_remoteChainId",
          "type": "uint16"
        },
        {
          "internalType": "address",
          "name": "_token",
          "type": "address"
        },
        {
          "internalType": "uint256",
          "name": "_amountIn",
          "type": "uint256"
        },
        {
          "internalType": "address",
          "name": "_to",
          "type": "address"
        },
        {
          "internalType": "uint8",
          "name": "_type",
          "type": "uint8"
        },
        {
          "internalType": "address payable",
          "name": "_refundAddress",
          "type": "address"
        },
        {
          "internalType": "bytes",
          "name": "_payload",
          "type": "bytes"
        },
        {
          "components": [
            {
              "internalType": "uint256",
              "name": "dstGasForCall",
              "type": "uint256"
            },
            {
              "internalType": "uint256",
              "name": "dstNativeAmount",
              "type": "uint256"
            },
            {
              "internalType": "bytes",
              "name": "dstNativeAddr",
              "type": "bytes"
            }
          ],
          "internalType": "struct Structs.LzTxObj",
          "name": "_lzTxParams",
          "type": "tuple"
        }
      ],
      "name": "omniMint",
      "outputs": [],
      "stateMutability": "payable",
      "type": "function"
    },
    {
      "inputs": [
        {
          "internalType": "uint16",
          "name": "_srcChainId",
          "type": "uint16"
        },
        {
          "internalType": "bytes",
          "name": "_srcAddress",
          "type": "bytes"
        },
        {
          "internalType": "uint256",
          "name": "_nonce",
          "type": "uint256"
        },
        {
          "internalType": "uint8",
          "name": "_type",
          "type": "uint8"
        },
        {
          "components": [
            {
              "internalType": "address",
              "name": "srcToken",
              "type": "address"
            },
            {
              "internalType": "address",
              "name": "sender",
              "type": "address"
            },
            {
              "internalType": "uint256",
              "name": "amount",
              "type": "uint256"
            },
            {
              "internalType": "address",
              "name": "to",
              "type": "address"
            },
            {
              "internalType": "string",
              "name": "name",
              "type": "string"
            },
            {
              "internalType": "string",
              "name": "symbol",
              "type": "string"
            }
          ],
          "internalType": "struct Structs.MintObj",
          "name": "_mintParams",
          "type": "tuple"
        },
        {
          "internalType": "address",
          "name": "_lzEndpoint",
          "type": "address"
        },
        {
          "internalType": "uint256",
          "name": "_dstGasForCall",
          "type": "uint256"
        },
        {
          "internalType": "bytes",
          "name": "_payload",
          "type": "bytes"
        }
      ],
      "name": "omniMintRemote",
      "outputs": [],
      "stateMutability": "nonpayable",
      "type": "function"
    },
    {
      "inputs": [
        {
          "internalType": "uint16",
          "name": "_remoteChainId",
          "type": "uint16"
        },
        {
          "internalType": "address",
          "name": "_token",
          "type": "address"
        },
        {
          "internalType": "uint256",
          "name": "_amountIn",
          "type": "uint256"
        },
        {
          "internalType": "address",
          "name": "_to",
          "type": "address"
        },
        {
          "internalType": "address payable",
          "name": "_refundAddress",
          "type": "address"
        },
        {
          "internalType": "bytes",
          "name": "_payload",
          "type": "bytes"
        },
        {
          "components": [
            {
              "internalType": "uint256",
              "name": "dstGasForCall",
              "type": "uint256"
            },
            {
              "internalType": "uint256",
              "name": "dstNativeAmount",
              "type": "uint256"
            },
            {
              "internalType": "bytes",
              "name": "dstNativeAddr",
              "type": "bytes"
            }
          ],
          "internalType": "struct Structs.LzTxObj",
          "name": "_lzTxParams",
          "type": "tuple"
        }
      ],
      "name": "omniRedeem",
      "outputs": [],
      "stateMutability": "payable",
      "type": "function"
    },
    {
      "inputs": [
        {
          "internalType": "uint16",
          "name": "_srcChainId",
          "type": "uint16"
        },
        {
          "internalType": "bytes",
          "name": "_srcAddress",
          "type": "bytes"
        },
        {
          "internalType": "uint256",
          "name": "_nonce",
          "type": "uint256"
        },
        {
          "components": [
            {
              "internalType": "address",
              "name": "srcToken",
              "type": "address"
            },
            {
              "internalType": "address",
              "name": "sender",
              "type": "address"
            },
            {
              "internalType": "uint256",
              "name": "amount",
              "type": "uint256"
            },
            {
              "internalType": "address",
              "name": "to",
              "type": "address"
            }
          ],
          "internalType": "struct Structs.RedeemObj",
          "name": "_redeemParams",
          "type": "tuple"
        },
        {
          "internalType": "uint256",
          "name": "_dstGasForCall",
          "type": "uint256"
        },
        {
          "internalType": "bytes",
          "name": "_payload",
          "type": "bytes"
        }
      ],
      "name": "omniRedeemRemote",
      "outputs": [],
      "stateMutability": "nonpayable",
      "type": "function"
    },
    {
      "inputs": [],
      "name": "owner",
      "outputs": [
        {
          "internalType": "address",
          "name": "",
          "type": "address"
        }
      ],
      "stateMutability": "view",
      "type": "function"
    },
    {
      "inputs": [],
      "name": "poolFactory",
      "outputs": [
        {
          "internalType": "contract IOCPoolFactory",
          "name": "",
          "type": "address"
        }
      ],
      "stateMutability": "view",
      "type": "function"
    },
    {
      "inputs": [
        {
          "internalType": "uint16",
          "name": "_remoteChainId",
          "type": "uint16"
        },
        {
          "internalType": "uint8",
          "name": "_type",
          "type": "uint8"
        },
        {
          "internalType": "bytes",
          "name": "_userPayload",
          "type": "bytes"
        },
        {
          "components": [
            {
              "internalType": "uint256",
              "name": "dstGasForCall",
              "type": "uint256"
            },
            {
              "internalType": "uint256",
              "name": "dstNativeAmount",
              "type": "uint256"
            },
            {
              "internalType": "bytes",
              "name": "dstNativeAddr",
              "type": "bytes"
            }
          ],
          "internalType": "struct Structs.LzTxObj",
          "name": "_lzTxParams",
          "type": "tuple"
        }
      ],
      "name": "quoteLayerZeroFee",
      "outputs": [
        {
          "internalType": "uint256",
          "name": "",
          "type": "uint256"
        },
        {
          "internalType": "uint256",
          "name": "",
          "type": "uint256"
        }
      ],
      "stateMutability": "view",
      "type": "function"
    },
    {
      "inputs": [],
      "name": "renounceOwnership",
      "outputs": [],
      "stateMutability": "nonpayable",
      "type": "function"
    },
    {
      "inputs": [],
      "name": "tokenManager",
      "outputs": [
        {
          "internalType": "contract IOCPOmniTokenManager",
          "name": "",
          "type": "address"
        }
      ],
      "stateMutability": "view",
      "type": "function"
    },
    {
      "inputs": [
        {
          "internalType": "address",
          "name": "newOwner",
          "type": "address"
        }
      ],
      "name": "transferOwnership",
      "outputs": [],
      "stateMutability": "nonpayable",
      "type": "function"
    },
    {
      "inputs": [
        {
          "internalType": "address",
          "name": "_bridge",
          "type": "address"
        }
      ],
      "name": "updateBridge",
      "outputs": [],
      "stateMutability": "nonpayable",
      "type": "function"
    },
    {
      "inputs": [],
      "name": "weth",
      "outputs": [
        {
          "internalType": "address",
          "name": "",
          "type": "address"
        }
      ],
      "stateMutability": "view",
      "type": "function"
    }
  ],
  "transactionHash": "0x7ee6c9954d6b658387db9f7935c51a51cb8de5287d9487e853abab5eaff461cb",
  "args": [
    "0xcD071320ddd8a9B327bcCEE7903f0D32dA00dD62",
    "0xEdC5aec4623Ae86C2f392d17cE95319Fbb0F7755",
    "0x156fdB5C704266CF6F5Dd85eF8ee7cf90A74Ef24",
    "0x0000000000000000000000000000000000000000"
  ],
  "numDeployments": 1,
  "solcInputHash": "67d96822ecaa5fb295e8d06e1e9b7d72",
  "bytecode": "0x60806040523480156200001157600080fd5b506040516200235e3803806200235e833981016040819052620000349162000104565b6200003f3362000097565b60018055600280546001600160a01b039586166001600160a01b031991821617909155600380549486169482169490941790935560048054928516928416929092179091556005805491909316911617905562000161565b600080546001600160a01b038381166001600160a01b0319831681178455604051919092169283917f8be0079c531659141344cd1fd0a4f28419497f9722a3daafe3b4186f6b6457e09190a35050565b80516001600160a01b0381168114620000ff57600080fd5b919050565b600080600080608085870312156200011b57600080fd5b6200012685620000e7565b93506200013660208601620000e7565b92506200014660408601620000e7565b91506200015660608601620000e7565b905092959194509250565b6121ed80620001716000396000f3fe6080604052600436106100b25760003560e01c8063715018a61161006f578063715018a614610197578063898f3a08146101ac5780638da5cb5b146101bf578063e78cea92146101dd578063eb8092dd146101fd578063f1ff466b1461021d578063f2fde38b1461023d57600080fd5b80632a709b14146100b75780633fc8cef3146100ed5780634219dc401461010d57806350df239b1461012d5780636aadba54146101625780636eb3821214610177575b600080fd5b3480156100c357600080fd5b506003546100d7906001600160a01b031681565b6040516100e49190611426565b60405180910390f35b3480156100f957600080fd5b506005546100d7906001600160a01b031681565b34801561011957600080fd5b506002546100d7906001600160a01b031681565b34801561013957600080fd5b5061014d6101483660046115f0565b61025d565b604080519283526020830191909152016100e4565b6101756101703660046116ca565b6102e5565b005b34801561018357600080fd5b50610175610192366004611792565b610576565b3480156101a357600080fd5b506101756105a0565b6101756101ba3660046117b6565b6105b4565b3480156101cb57600080fd5b506000546001600160a01b03166100d7565b3480156101e957600080fd5b506004546100d7906001600160a01b031681565b34801561020957600080fd5b50610175610218366004611916565b6107fd565b34801561022957600080fd5b506101756102383660046119d3565b610a8d565b34801561024957600080fd5b50610175610258366004611792565b610c1d565b600480546040516350df239b60e01b815260009283926001600160a01b0316916350df239b91610297918b918b918b918b918b9101611b3f565b6040805180830381865afa1580156102b3573d6000803e3d6000fd5b505050506040513d601f19601f820116820180604052508101906102d79190611b9c565b915091509550959350505050565b60ff8416600114806102fa575060ff84166002145b6103455760405162461bcd60e51b81526020600482015260176024820152764f4350526f757465723a20696e76616c6964207479706560481b60448201526064015b60405180910390fd5b6103776040518060400160405280601081526020016f0119027a1a8291730b2323932b9b99d160851b81525030610c96565b6103b66040518060400160405280601b81526020017f23204f4350522e6f6d6e694d696e74203d3e205f746f6b656e3a20000000000081525088610c96565b6001600160a01b0387166104075760405162461bcd60e51b815260206004820152601860248201527713d0d4149bdd5d195c8e881d1bdad95b881a5b9d985b1a5960421b604482015260640161033c565b6001600160a01b03851661042d5760405162461bcd60e51b815260040161033c90611bc0565b6000861161044d5760405162461bcd60e51b815260040161033c90611bf7565b60025460405163bbe4f6db60e01b81526000916001600160a01b03169063bbe4f6db9061047e908b90600401611426565b602060405180830381865afa15801561049b573d6000803e3d6000fd5b505050506040513d601f19601f820116820180604052508101906104bf9190611c41565b90506001600160a01b03811661054557600254604051634824fce960e11b81526001600160a01b0390911690639049f9d2906104ff908b90600401611426565b6020604051808303816000875af115801561051e573d6000803e3d6000fd5b505050506040513d601f19601f820116820180604052508101906105429190611c41565b90505b61055a6001600160a01b03891633838a610cdf565b61056b888a89898989898934610d3d565b505050505050505050565b61057e610f20565b600480546001600160a01b0319166001600160a01b0392909216919091179055565b6105a8610f20565b6105b26000610f7a565b565b6001600160a01b0384166105da5760405162461bcd60e51b815260040161033c90611bc0565b600085116105fa5760405162461bcd60e51b815260040161033c90611bf7565b60408051608081018252600080825260208201819052918101829052606081019190915260035460405163d2ede8df60e01b81526001600160a01b03898116600483015261ffff8b1660248301529091169063d2ede8df90604401602060405180830381865afa158015610672573d6000803e3d6000fd5b505050506040513d601f19601f820116820180604052508101906106969190611c41565b6001600160a01b03168082526107025760405162461bcd60e51b815260206004820152602b60248201527f4f4350526f757465723a206e6f20737263546f6b656e206f6e2064657374696e60448201526a30ba34b7b71031b430b4b760a91b606482015260840161033c565b336020820181905260408083018890526001600160a01b038781166060850152600354915163a22304ed60e01b81528a82166004820152602481018a90526044810193909352169063a22304ed90606401600060405180830381600087803b15801561076d57600080fd5b505af1158015610781573d6000803e3d6000fd5b50506004805460405163b9cc4c7160e01b81526001600160a01b03909116935063b9cc4c71925034916107c1918d918a9160039189918c918c9101611c5e565b6000604051808303818588803b1580156107da57600080fd5b505af11580156107ee573d6000803e3d6000fd5b50505050505050505050505050565b6004546001600160a01b031633146108275760405162461bcd60e51b815260040161033c90611ce2565b600061085b6040518060400160405280601081526020016f0119027a1a8291730b2323932b9b99d160851b81525030610c96565b61087e6040518060600160405280602f815260200161215f602f91398651610c96565b6108c06040518060400160405280602081526020017f23204f4350522e6f6d6e694d696e7452656d6f7465203d3e205f747970653a208152508760ff16610fca565b6108e6604051806060016040528060298152602001612136602991398660600151610c96565b60001960ff87160161097057600354604051630ef8524960e01b81526001600160a01b0390911690630ef852499061092690889088908e90600401611d92565b6020604051808303816000875af1158015610945573d6000803e3d6000fd5b505050506040513d601f19601f820116820180604052508101906109699190611c41565b90506109e8565b6003546040516301dbb1d760e21b81526001600160a01b039091169063076ec75c906109a29088908d90600401611dc9565b6020604051808303816000875af11580156109c1573d6000803e3d6000fd5b505050506040513d601f19601f820116820180604052508101906109e59190611c41565b90505b81511561056b57610a106040518060600160405280602a815260200161218e602a913961100f565b84606001516001600160a01b031663cdaea7d7848b8b8b868b60400151896040518863ffffffff1660e01b8152600401610a4f96959493929190611def565b600060405180830381600088803b158015610a6957600080fd5b5087f1158015610a7d573d6000803e3d6000fd5b5050505050505050505050505050565b6004546001600160a01b03163314610ab75760405162461bcd60e51b815260040161033c90611ce2565b6000610acb84600001518560400151611052565b9050610afa6040518060400160405280600b81526020016a011902fb0b6b7bab73a1d160ad1b81525082610fca565b60025484516060860151604051636ce5768960e11b81526001600160a01b039093169263d9caed1292610b339290918690600401611e3b565b600060405180830381600087803b158015610b4d57600080fd5b505af1158015610b61573d6000803e3d6000fd5b50505050610b9b60405180604001604052806013815260200172011902fb830bcb637b0b2173632b733ba341d1606d1b8152508351610fca565b815115610c14576060840151845160405163cdaea7d760e01b81526001600160a01b039092169163cdaea7d7918691610be0918c918c918c9189908b90600401611def565b600060405180830381600088803b158015610bfa57600080fd5b5087f1158015610c0e573d6000803e3d6000fd5b50505050505b50505050505050565b610c25610f20565b6001600160a01b038116610c8a5760405162461bcd60e51b815260206004820152602660248201527f4f776e61626c653a206e6577206f776e657220697320746865207a65726f206160448201526564647265737360d01b606482015260840161033c565b610c9381610f7a565b50565b610cdb8282604051602401610cac929190611e5f565b60408051601f198184030181529190526020810180516001600160e01b031663319af33360e01b1790526110f7565b5050565b610d37846323b872dd60e01b858585604051602401610d0093929190611e3b565b60408051601f198184030181529190526020810180516001600160e01b03166001600160e01b031990931692909217909152611100565b50505050565b610d916040518060c0016040528060006001600160a01b0316815260200160006001600160a01b031681526020016000815260200160006001600160a01b0316815260200160608152602001606081525090565b6001600160a01b038a168152336020820152610dad8a896111da565b60408201526001600160a01b038716606082015260001960ff871601610ea757896001600160a01b03166306fdde036040518163ffffffff1660e01b8152600401600060405180830381865afa158015610e0b573d6000803e3d6000fd5b505050506040513d6000823e601f3d908101601f19168201604052610e339190810190611e89565b8160800181905250896001600160a01b03166395d89b416040518163ffffffff1660e01b8152600401600060405180830381865afa158015610e79573d6000803e3d6000fd5b505050506040513d6000823e601f3d908101601f19168201604052610ea19190810190611e89565b60a08201525b600480546040516382019ed560e01b81526001600160a01b03909116916382019ed5918591610ee2918e918b918d9189918d918d9101611ef6565b6000604051808303818588803b158015610efb57600080fd5b505af1158015610f0f573d6000803e3d6000fd5b505050505050505050505050505050565b6000546001600160a01b031633146105b25760405162461bcd60e51b815260206004820181905260248201527f4f776e61626c653a2063616c6c6572206973206e6f7420746865206f776e6572604482015260640161033c565b600080546001600160a01b038381166001600160a01b0319831681178455604051919092169283917f8be0079c531659141344cd1fd0a4f28419497f9722a3daafe3b4186f6b6457e09190a35050565b610cdb8282604051602401610fe0929190611f53565b60408051601f198184030181529190526020810180516001600160e01b0316632d839cb360e21b1790526110f7565b610c93816040516024016110239190611f75565b60408051601f198184030181529190526020810180516001600160e01b031663104c13eb60e21b1790526110f7565b600080836001600160a01b031663313ce5676040518163ffffffff1660e01b8152600401602060405180830381865afa158015611093573d6000803e3d6000fd5b505050506040513d601f19601f820116820180604052508101906110b79190611f88565b60ff169050806012036110cd57829150506110f1565b6110d8816012611fbb565b6110e390600a6120b2565b6110ed90846120be565b9150505b92915050565b610c9381611275565b6000611155826040518060400160405280602081526020017f5361666545524332303a206c6f772d6c6576656c2063616c6c206661696c6564815250856001600160a01b03166112969092919063ffffffff16565b905080516000148061117657508080602001905181019061117691906120e0565b6111d55760405162461bcd60e51b815260206004820152602a60248201527f5361666545524332303a204552433230206f7065726174696f6e20646964206e6044820152691bdd081cdd58d8d9595960b21b606482015260840161033c565b505050565b600080836001600160a01b031663313ce5676040518163ffffffff1660e01b8152600401602060405180830381865afa15801561121b573d6000803e3d6000fd5b505050506040513d601f19601f8201168201806040525081019061123f9190611f88565b60ff1690508060120361125557829150506110f1565b611260816012611fbb565b61126b90600a6120b2565b6110ed9084612102565b60006a636f6e736f6c652e6c6f679050600080835160208501845afa505050565b60606112a584846000856112ad565b949350505050565b60608247101561130e5760405162461bcd60e51b815260206004820152602660248201527f416464726573733a20696e73756666696369656e742062616c616e636520666f6044820152651c8818d85b1b60d21b606482015260840161033c565b600080866001600160a01b0316858760405161132a9190612119565b60006040518083038185875af1925050503d8060008114611367576040519150601f19603f3d011682016040523d82523d6000602084013e61136c565b606091505b509150915061137d87838387611388565b979650505050505050565b606083156113f75782516000036113f0576001600160a01b0385163b6113f05760405162461bcd60e51b815260206004820152601d60248201527f416464726573733a2063616c6c20746f206e6f6e2d636f6e7472616374000000604482015260640161033c565b50816112a5565b6112a5838381511561140c5781518083602001fd5b8060405162461bcd60e51b815260040161033c9190611f75565b6001600160a01b0391909116815260200190565b803561ffff8116811461144c57600080fd5b919050565b60ff81168114610c9357600080fd5b803561144c81611451565b634e487b7160e01b600052604160045260246000fd5b60405160c081016001600160401b03811182821017156114a3576114a361146b565b60405290565b604051608081016001600160401b03811182821017156114a3576114a361146b565b604051601f8201601f191681016001600160401b03811182821017156114f3576114f361146b565b604052919050565b60006001600160401b038211156115145761151461146b565b50601f01601f191660200190565b600082601f83011261153357600080fd5b8135611546611541826114fb565b6114cb565b81815284602083860101111561155b57600080fd5b816020850160208301376000918101602001919091529392505050565b60006060828403121561158a57600080fd5b604051606081016001600160401b0382821081831117156115ad576115ad61146b565b81604052829350843583526020850135602084015260408501359150808211156115d657600080fd5b506115e385828601611522565b6040830152505092915050565b60008060008060006080868803121561160857600080fd5b6116118661143a565b9450602086013561162181611451565b935060408601356001600160401b038082111561163d57600080fd5b818801915088601f83011261165157600080fd5b81358181111561166057600080fd5b89602082850101111561167257600080fd5b60208301955080945050606088013591508082111561169057600080fd5b5061169d88828901611578565b9150509295509295909350565b6001600160a01b0381168114610c9357600080fd5b803561144c816116aa565b600080600080600080600080610100898b0312156116e757600080fd5b6116f08961143a565b97506020890135611700816116aa565b9650604089013595506060890135611717816116aa565b9450608089013561172781611451565b935060a0890135611737816116aa565b925060c08901356001600160401b038082111561175357600080fd5b61175f8c838d01611522565b935060e08b013591508082111561177557600080fd5b506117828b828c01611578565b9150509295985092959890939650565b6000602082840312156117a457600080fd5b81356117af816116aa565b9392505050565b600080600080600080600060e0888a0312156117d157600080fd5b6117da8861143a565b965060208801356117ea816116aa565b9550604088013594506060880135611801816116aa565b93506080880135611811816116aa565b925060a08801356001600160401b038082111561182d57600080fd5b6118398b838c01611522565b935060c08a013591508082111561184f57600080fd5b5061185c8a828b01611578565b91505092959891949750929550565b600060c0828403121561187d57600080fd5b611885611481565b9050611890826116bf565b815261189e602083016116bf565b6020820152604082013560408201526118b9606083016116bf565b606082015260808201356001600160401b03808211156118d857600080fd5b6118e485838601611522565b608084015260a08401359150808211156118fd57600080fd5b5061190a84828501611522565b60a08301525092915050565b600080600080600080600080610100898b03121561193357600080fd5b61193c8961143a565b975060208901356001600160401b038082111561195857600080fd5b6119648c838d01611522565b985060408b0135975061197960608c01611460565b965060808b013591508082111561198f57600080fd5b61199b8c838d0161186b565b95506119a960a08c016116bf565b945060c08b0135935060e08b01359150808211156119c657600080fd5b506117828b828c01611522565b6000806000806000808688036101208112156119ee57600080fd5b6119f78861143a565b965060208801356001600160401b0380821115611a1357600080fd5b611a1f8b838c01611522565b975060408a013596506080605f1984011215611a3a57600080fd5b611a426114a9565b925060608a01359150611a54826116aa565b908252608089013590611a66826116aa565b81602084015260a08a0135604084015260c08a01359150611a86826116aa565b81606084015282955060e08a013594506101008a0135925080831115611aab57600080fd5b5050611ab989828a01611522565b9150509295509295509295565b60005b83811015611ae1578181015183820152602001611ac9565b50506000910152565b60008151808452611b02816020860160208601611ac6565b601f01601f19169290920160200192915050565b805182526020810151602083015260006040820151606060408501526110ed6060850182611aea565b61ffff8616815260ff8516602082015260806040820152826080820152828460a0830137600060a084830101526000601f19601f850116820160a0838203016060840152611b9060a0820185611b16565b98975050505050505050565b60008060408385031215611baf57600080fd5b505080516020909101519092909150565b6020808252601b908201527f4f4350526f757465723a20726563656976657220696e76616c69640000000000604082015260600190565b6020808252602a908201527f4f4350526f757465723a20616d6f756e74496e206d75737420626520677265616040820152690746572207468616e20360b41b606082015260800190565b600060208284031215611c5357600080fd5b81516117af816116aa565b600061012061ffff8916835260018060a01b03808916602085015260ff88166040850152808751166060850152806020880151166080850152604087015160a08501528060608801511660c0850152508060e0840152611cc081840186611aea565b9050828103610100840152611cd58185611b16565b9998505050505050505050565b60208082526023908201527f4f4350526f757465723a2063616c6c6572206973206e6f74207468652062726960408201526264676560e81b606082015260800190565b600060018060a01b038083511684528060208401511660208501526040830151604085015280606084015116606085015250608082015160c06080850152611d7060c0850182611aea565b905060a083015184820360a0860152611d898282611aea565b95945050505050565b606081526000611da56060830186611d25565b6001600160a01b039490941660208301525061ffff91909116604090910152919050565b604081526000611ddc6040830185611d25565b905061ffff831660208301529392505050565b61ffff8716815260c060208201526000611e0c60c0830188611aea565b604083018790526001600160a01b03861660608401526080830185905282810360a0840152611cd58185611aea565b6001600160a01b039384168152919092166020820152604081019190915260600190565b604081526000611e726040830185611aea565b905060018060a01b03831660208301529392505050565b600060208284031215611e9b57600080fd5b81516001600160401b03811115611eb157600080fd5b8201601f81018413611ec257600080fd5b8051611ed0611541826114fb565b818152856020838501011115611ee557600080fd5b611d89826020830160208601611ac6565b61ffff871681526001600160a01b038616602082015260ff8516604082015260c060608201819052600090611f2d90830186611d25565b8281036080840152611f3f8186611aea565b905082810360a0840152611cd58185611b16565b604081526000611f666040830185611aea565b90508260208301529392505050565b6020815260006117af6020830184611aea565b600060208284031215611f9a57600080fd5b81516117af81611451565b634e487b7160e01b600052601160045260246000fd5b818103818111156110f1576110f1611fa5565b600181815b80851115612009578160001904821115611fef57611fef611fa5565b80851615611ffc57918102915b93841c9390800290611fd3565b509250929050565b600082612020575060016110f1565b8161202d575060006110f1565b8160018114612043576002811461204d57612069565b60019150506110f1565b60ff84111561205e5761205e611fa5565b50506001821b6110f1565b5060208310610133831016604e8410600b841016171561208c575081810a6110f1565b6120968383611fce565b80600019048211156120aa576120aa611fa5565b029392505050565b60006117af8383612011565b6000826120db57634e487b7160e01b600052601260045260246000fd5b500490565b6000602082840312156120f257600080fd5b815180151581146117af57600080fd5b80820281158282048414176110f1576110f1611fa5565b6000825161212b818460208701611ac6565b919091019291505056fe23204f4350522e6f6d6e694d696e7452656d6f7465203d3e205f6d696e74506172616d732e746f3a2023204f4350522e6f6d6e694d696e7452656d6f7465203d3e205f6d696e74506172616d732e737263546f6b656e3a2023204f4350522e6f6d6e694d696e7452656d6f7465203d3e205f7061796c6f61642e6c656e6774683e30a26469706673582212207430c044f8c04fd509988a1269d876b90eb77b7824a54ed8ab1cabf2a7ff326064736f6c63430008110033",
  "devdoc": {
    "kind": "dev",
    "methods": {
      "constructor": {
        "details": "Initializes the contract setting the deployer as the initial owner.",
        "params": {
          "_bridge": "The address of the bridge contract.",
          "_poolFactory": "The address of the pool factory contract.",
          "_tokenManager": "The address of the token manager contract.",
          "_weth": "The address of the WETH contract."
        }
      },
      "omniMint(uint16,address,uint256,address,uint8,address,bytes,(uint256,uint256,bytes))": {
        "details": "Transfers tokens from sender to receiver on the same chain. If the `getPool` is not deployed, it will be deployed. If the `getPool` is deployed, it will be used. `_token` cannot be the zero address and it will be transferred from sender to receiver. `_omniMint` will be called to mint the token on the receiver chain. Requirements: - `_token` cannot be the zero address. - `_to` cannot be the zero address. - `_amountIn` must be greater than 0.",
        "params": {
          "_amountIn": "The amount of tokens to transfer.",
          "_lzTxParams": "The layer zero transaction parameters.",
          "_payload": "The payload to send to the receiver.",
          "_refundAddress": "The address to refund the fee to.",
          "_remoteChainId": "The chain id of the receiver.",
          "_to": "The address of the receiver.",
          "_token": "The address of the token to transfer.",
          "_type": "The type of the transaction."
        }
      },
      "omniMintRemote(uint16,bytes,uint256,uint8,(address,address,uint256,address,string,string),address,uint256,bytes)": {
        "details": "Transfers tokens from sender to receiver on the same chain. Requirements: - `_token` cannot be the zero address. - `_to` cannot be the zero address. - `_amountIn` must be greater than 0. - only the bridge can call this function.",
        "params": {
          "_dstGasForCall": "The gas for the call.",
          "_lzEndpoint": "The layer zero endpoint.",
          "_mintParams": "The mint parameters.",
          "_nonce": "The nonce of the transaction.",
          "_payload": "The payload to send to the receiver.",
          "_srcAddress": "The address of the sender.",
          "_srcChainId": "The chain id of the sender.",
          "_type": "The type of the transaction."
        }
      },
      "owner()": {
        "details": "Returns the address of the current owner."
      },
      "quoteLayerZeroFee(uint16,uint8,bytes,(uint256,uint256,bytes))": {
        "details": "Transfers tokens from sender to receiver on the same chain. Invoke the `bridge` to get quote for the fee and amount of token on the other chain.",
        "params": {
          "_lzTxParams": "The layer zero transaction parameters.",
          "_remoteChainId": "The chain id of the receiver.",
          "_type": "The type of the transaction.",
          "_userPayload": "The payload to send to the receiver."
        },
        "returns": {
          "_0": "The amount of token on the other chain and the fee to send to the bridge."
        }
      },
      "renounceOwnership()": {
        "details": "Leaves the contract without owner. It will not be possible to call `onlyOwner` functions. Can only be called by the current owner. NOTE: Renouncing ownership will leave the contract without an owner, thereby disabling any functionality that is only available to the owner."
      },
      "transferOwnership(address)": {
        "details": "Transfers ownership of the contract to a new account (`newOwner`). Can only be called by the current owner."
      },
      "updateBridge(address)": {
        "details": "update the bridge address. Requirements: - only the owner can call this function.",
        "params": {
          "_bridge": "The address of the bridge contract."
        }
      }
    },
    "version": 1
  },
  "userdoc": {
    "kind": "user",
    "methods": {},
    "version": 1
  },
  "storageLayout": {
    "storage": [
      {
        "astId": 3533,
        "contract": "contracts/OCPRouter.sol:OCPRouter",
        "label": "_owner",
        "offset": 0,
        "slot": "0",
        "type": "t_address"
      },
      {
        "astId": 3649,
        "contract": "contracts/OCPRouter.sol:OCPRouter",
        "label": "_status",
        "offset": 0,
        "slot": "1",
        "type": "t_uint256"
      },
      {
        "astId": 6529,
        "contract": "contracts/OCPRouter.sol:OCPRouter",
        "label": "poolFactory",
        "offset": 0,
        "slot": "2",
        "type": "t_contract(IOCPoolFactory)7681"
      },
      {
        "astId": 6532,
        "contract": "contracts/OCPRouter.sol:OCPRouter",
        "label": "tokenManager",
        "offset": 0,
        "slot": "3",
        "type": "t_contract(IOCPOmniTokenManager)7558"
      },
      {
        "astId": 6535,
        "contract": "contracts/OCPRouter.sol:OCPRouter",
        "label": "bridge",
        "offset": 0,
        "slot": "4",
        "type": "t_contract(IOCPBridge)7505"
      },
      {
        "astId": 6537,
        "contract": "contracts/OCPRouter.sol:OCPRouter",
        "label": "weth",
        "offset": 0,
        "slot": "5",
        "type": "t_address"
      }
    ],
    "types": {
      "t_address": {
        "encoding": "inplace",
        "label": "address",
        "numberOfBytes": "20"
      },
      "t_contract(IOCPBridge)7505": {
        "encoding": "inplace",
        "label": "contract IOCPBridge",
        "numberOfBytes": "20"
      },
      "t_contract(IOCPOmniTokenManager)7558": {
        "encoding": "inplace",
        "label": "contract IOCPOmniTokenManager",
        "numberOfBytes": "20"
      },
      "t_contract(IOCPoolFactory)7681": {
        "encoding": "inplace",
        "label": "contract IOCPoolFactory",
        "numberOfBytes": "20"
      },
      "t_uint256": {
        "encoding": "inplace",
        "label": "uint256",
        "numberOfBytes": "32"
      }
    }
  }
}