{
  "address": "0x511b23d8D3FB09ad6C98d61390E2e22Eb8349422",
  "abi": [
    {
      "inputs": [
        {
          "internalType": "address",
          "name": "_poolFactory",
          "type": "address"
        },
        {
          "internalType": "address",
          "name": "_tokenManager",
          "type": "address"
        },
        {
          "internalType": "address",
          "name": "_bridge",
          "type": "address"
        },
        {
          "internalType": "address",
          "name": "_weth",
          "type": "address"
        }
      ],
      "stateMutability": "nonpayable",
      "type": "constructor"
    },
    {
      "anonymous": false,
      "inputs": [
        {
          "indexed": true,
          "internalType": "address",
          "name": "previousOwner",
          "type": "address"
        },
        {
          "indexed": true,
          "internalType": "address",
          "name": "newOwner",
          "type": "address"
        }
      ],
      "name": "OwnershipTransferred",
      "type": "event"
    },
    {
      "inputs": [],
      "name": "bridge",
      "outputs": [
        {
          "internalType": "contract IOCPBridge",
          "name": "",
          "type": "address"
        }
      ],
      "stateMutability": "view",
      "type": "function"
    },
    {
      "inputs": [
        {
          "internalType": "uint16",
          "name": "_remoteChainId",
          "type": "uint16"
        },
        {
          "internalType": "address",
          "name": "_token",
          "type": "address"
        },
        {
          "internalType": "uint256",
          "name": "_amountIn",
          "type": "uint256"
        },
        {
          "internalType": "address",
          "name": "_to",
          "type": "address"
        },
        {
          "internalType": "uint8",
          "name": "_type",
          "type": "uint8"
        },
        {
          "internalType": "address payable",
          "name": "_refundAddress",
          "type": "address"
        },
        {
          "internalType": "bytes",
          "name": "_payload",
          "type": "bytes"
        },
        {
          "components": [
            {
              "internalType": "uint256",
              "name": "dstGasForCall",
              "type": "uint256"
            },
            {
              "internalType": "uint256",
              "name": "dstNativeAmount",
              "type": "uint256"
            },
            {
              "internalType": "bytes",
              "name": "dstNativeAddr",
              "type": "bytes"
            }
          ],
          "internalType": "struct Structs.LzTxObj",
          "name": "_lzTxParams",
          "type": "tuple"
        }
      ],
      "name": "omniMint",
      "outputs": [],
      "stateMutability": "payable",
      "type": "function"
    },
    {
      "inputs": [
        {
          "internalType": "uint16",
          "name": "_remoteChainId",
          "type": "uint16"
        },
        {
          "internalType": "uint256",
          "name": "_amountIn",
          "type": "uint256"
        },
        {
          "internalType": "address",
          "name": "_to",
          "type": "address"
        },
        {
          "internalType": "uint8",
          "name": "_type",
          "type": "uint8"
        },
        {
          "internalType": "address payable",
          "name": "_refundAddress",
          "type": "address"
        },
        {
          "internalType": "bytes",
          "name": "_payload",
          "type": "bytes"
        },
        {
          "components": [
            {
              "internalType": "uint256",
              "name": "dstGasForCall",
              "type": "uint256"
            },
            {
              "internalType": "uint256",
              "name": "dstNativeAmount",
              "type": "uint256"
            },
            {
              "internalType": "bytes",
              "name": "dstNativeAddr",
              "type": "bytes"
            }
          ],
          "internalType": "struct Structs.LzTxObj",
          "name": "_lzTxParams",
          "type": "tuple"
        }
      ],
      "name": "omniMintETH",
      "outputs": [],
      "stateMutability": "payable",
      "type": "function"
    },
    {
      "inputs": [
        {
          "internalType": "uint16",
          "name": "_srcChainId",
          "type": "uint16"
        },
        {
          "internalType": "bytes",
          "name": "_srcAddress",
          "type": "bytes"
        },
        {
          "internalType": "uint256",
          "name": "_nonce",
          "type": "uint256"
        },
        {
          "internalType": "uint8",
          "name": "_type",
          "type": "uint8"
        },
        {
          "components": [
            {
              "internalType": "address",
              "name": "srcToken",
              "type": "address"
            },
            {
              "internalType": "address",
              "name": "sender",
              "type": "address"
            },
            {
              "internalType": "uint256",
              "name": "amount",
              "type": "uint256"
            },
            {
              "internalType": "address",
              "name": "to",
              "type": "address"
            },
            {
              "internalType": "string",
              "name": "name",
              "type": "string"
            },
            {
              "internalType": "string",
              "name": "symbol",
              "type": "string"
            }
          ],
          "internalType": "struct Structs.MintObj",
          "name": "_mintParams",
          "type": "tuple"
        },
        {
          "internalType": "address",
          "name": "_lzEndpoint",
          "type": "address"
        },
        {
          "internalType": "uint256",
          "name": "_dstGasForCall",
          "type": "uint256"
        },
        {
          "internalType": "bytes",
          "name": "_payload",
          "type": "bytes"
        }
      ],
      "name": "omniMintRemote",
      "outputs": [],
      "stateMutability": "nonpayable",
      "type": "function"
    },
    {
      "inputs": [
        {
          "internalType": "uint16",
          "name": "_remoteChainId",
          "type": "uint16"
        },
        {
          "internalType": "address",
          "name": "_token",
          "type": "address"
        },
        {
          "internalType": "uint256",
          "name": "_amountIn",
          "type": "uint256"
        },
        {
          "internalType": "address",
          "name": "_to",
          "type": "address"
        },
        {
          "internalType": "address payable",
          "name": "_refundAddress",
          "type": "address"
        },
        {
          "internalType": "bytes",
          "name": "_payload",
          "type": "bytes"
        },
        {
          "components": [
            {
              "internalType": "uint256",
              "name": "dstGasForCall",
              "type": "uint256"
            },
            {
              "internalType": "uint256",
              "name": "dstNativeAmount",
              "type": "uint256"
            },
            {
              "internalType": "bytes",
              "name": "dstNativeAddr",
              "type": "bytes"
            }
          ],
          "internalType": "struct Structs.LzTxObj",
          "name": "_lzTxParams",
          "type": "tuple"
        }
      ],
      "name": "omniRedeem",
      "outputs": [],
      "stateMutability": "payable",
      "type": "function"
    },
    {
      "inputs": [
        {
          "internalType": "uint16",
          "name": "_srcChainId",
          "type": "uint16"
        },
        {
          "internalType": "bytes",
          "name": "_srcAddress",
          "type": "bytes"
        },
        {
          "internalType": "uint256",
          "name": "_nonce",
          "type": "uint256"
        },
        {
          "components": [
            {
              "internalType": "address",
              "name": "srcToken",
              "type": "address"
            },
            {
              "internalType": "address",
              "name": "sender",
              "type": "address"
            },
            {
              "internalType": "uint256",
              "name": "amount",
              "type": "uint256"
            },
            {
              "internalType": "address",
              "name": "to",
              "type": "address"
            }
          ],
          "internalType": "struct Structs.RedeemObj",
          "name": "_redeemParams",
          "type": "tuple"
        },
        {
          "internalType": "uint256",
          "name": "_dstGasForCall",
          "type": "uint256"
        },
        {
          "internalType": "bytes",
          "name": "_payload",
          "type": "bytes"
        }
      ],
      "name": "omniRedeemRemote",
      "outputs": [],
      "stateMutability": "nonpayable",
      "type": "function"
    },
    {
      "inputs": [],
      "name": "owner",
      "outputs": [
        {
          "internalType": "address",
          "name": "",
          "type": "address"
        }
      ],
      "stateMutability": "view",
      "type": "function"
    },
    {
      "inputs": [],
      "name": "poolFactory",
      "outputs": [
        {
          "internalType": "contract IOCPoolFactory",
          "name": "",
          "type": "address"
        }
      ],
      "stateMutability": "view",
      "type": "function"
    },
    {
      "inputs": [
        {
          "internalType": "uint16",
          "name": "_remoteChainId",
          "type": "uint16"
        },
        {
          "internalType": "uint8",
          "name": "_type",
          "type": "uint8"
        },
        {
          "internalType": "bytes",
          "name": "_userPayload",
          "type": "bytes"
        },
        {
          "components": [
            {
              "internalType": "uint256",
              "name": "dstGasForCall",
              "type": "uint256"
            },
            {
              "internalType": "uint256",
              "name": "dstNativeAmount",
              "type": "uint256"
            },
            {
              "internalType": "bytes",
              "name": "dstNativeAddr",
              "type": "bytes"
            }
          ],
          "internalType": "struct Structs.LzTxObj",
          "name": "_lzTxParams",
          "type": "tuple"
        }
      ],
      "name": "quoteLayerZeroFee",
      "outputs": [
        {
          "internalType": "uint256",
          "name": "",
          "type": "uint256"
        },
        {
          "internalType": "uint256",
          "name": "",
          "type": "uint256"
        }
      ],
      "stateMutability": "view",
      "type": "function"
    },
    {
      "inputs": [],
      "name": "renounceOwnership",
      "outputs": [],
      "stateMutability": "nonpayable",
      "type": "function"
    },
    {
      "inputs": [],
      "name": "tokenManager",
      "outputs": [
        {
          "internalType": "contract IOCPOmniTokenManager",
          "name": "",
          "type": "address"
        }
      ],
      "stateMutability": "view",
      "type": "function"
    },
    {
      "inputs": [
        {
          "internalType": "address",
          "name": "newOwner",
          "type": "address"
        }
      ],
      "name": "transferOwnership",
      "outputs": [],
      "stateMutability": "nonpayable",
      "type": "function"
    },
    {
      "inputs": [
        {
          "internalType": "address",
          "name": "_bridge",
          "type": "address"
        }
      ],
      "name": "updateBridge",
      "outputs": [],
      "stateMutability": "nonpayable",
      "type": "function"
    },
    {
      "inputs": [],
      "name": "weth",
      "outputs": [
        {
          "internalType": "address",
          "name": "",
          "type": "address"
        }
      ],
      "stateMutability": "view",
      "type": "function"
    },
    {
      "stateMutability": "payable",
      "type": "receive"
    }
  ],
  "transactionHash": "0xf074cd6034a4d7a8814dde802fa9cce91167bdfcb3c1fed3daba6c2daf6a0799",
  "args": [
    "0x2ab07bedb8EB5e10551A356fd09BCe717C0B7Dc1",
    "0xF1d233082B4736F34BB9b9F094528101c6799695",
    "0xe47e31CFF462f283d035D58A118f6D785F010239",
    "0xd25C8ed51e8EAC3D32468000dE4D1D8dea90D0ED"
  ],
  "numDeployments": 1,
  "solcInputHash": "0a2d82b1c8a8dff344a9048cc530ed0d",
  "bytecode": "0x60806040523480156200001157600080fd5b506040516200294d3803806200294d833981016040819052620000349162000104565b6200003f3362000097565b60018055600280546001600160a01b039586166001600160a01b031991821617909155600380549486169482169490941790935560048054928516928416929092179091556005805491909316911617905562000161565b600080546001600160a01b038381166001600160a01b0319831681178455604051919092169283917f8be0079c531659141344cd1fd0a4f28419497f9722a3daafe3b4186f6b6457e09190a35050565b80516001600160a01b0381168114620000ff57600080fd5b919050565b600080600080608085870312156200011b57600080fd5b6200012685620000e7565b93506200013660208601620000e7565b92506200014660408601620000e7565b91506200015660608601620000e7565b905092959194509250565b6127dc80620001716000396000f3fe6080604052600436106100c15760003560e01c8063715018a61161006f578063715018a6146101c0578063898f3a08146101d55780638da5cb5b146101e8578063e78cea9214610206578063eb8092dd14610226578063f1ff466b14610246578063f2fde38b1461026657600080fd5b80632a709b14146100cd5780633fc8cef3146101035780634219dc401461012357806345aece1e1461014357806350df239b146101585780636aadba541461018d5780636eb38212146101a057600080fd5b366100c857005b600080fd5b3480156100d957600080fd5b506003546100ed906001600160a01b031681565b6040516100fa91906119ca565b60405180910390f35b34801561010f57600080fd5b506005546100ed906001600160a01b031681565b34801561012f57600080fd5b506002546100ed906001600160a01b031681565b610156610151366004611bb4565b610286565b005b34801561016457600080fd5b50610178610173366004611c69565b610547565b604080519283526020830191909152016100fa565b61015661019b366004611d23565b6105cf565b3480156101ac57600080fd5b506101566101bb366004611deb565b61085b565b3480156101cc57600080fd5b50610156610885565b6101566101e3366004611e0f565b610899565b3480156101f457600080fd5b506000546001600160a01b03166100ed565b34801561021257600080fd5b506004546100ed906001600160a01b031681565b34801561023257600080fd5b50610156610241366004611f05565b610ae2565b34801561025257600080fd5b50610156610261366004611fc2565b610e78565b34801561027257600080fd5b50610156610281366004611deb565b611195565b8534116102f65760405162461bcd60e51b815260206004820152603360248201527f4f4350526f757465723a2073656e642076616c7565206d75737420626520677260448201527232b0ba32b9103a3430b71030b6b7bab73a24b760691b60648201526084015b60405180910390fd5b6005546001600160a01b031661034e5760405162461bcd60e51b815260206004820152601b60248201527f4f4350526f757465723a2077657468206e6f742073657420796574000000000060448201526064016102ed565b6001600160a01b0385166103745760405162461bcd60e51b81526004016102ed906120b5565b600086116103945760405162461bcd60e51b81526004016102ed906120ec565b600560009054906101000a90046001600160a01b03166001600160a01b031663d0e30db0876040518263ffffffff1660e01b81526004016000604051808303818588803b1580156103e457600080fd5b505af11580156103f8573d6000803e3d6000fd5b505060025460055460405163bbe4f6db60e01b8152600095506001600160a01b03928316945063bbe4f6db935061043592909116906004016119ca565b602060405180830381865afa158015610452573d6000803e3d6000fd5b505050506040513d601f19601f820116820180604052508101906104769190612136565b90506001600160a01b03811661050057600254600554604051634824fce960e11b81526001600160a01b0392831692639049f9d2926104ba929116906004016119ca565b6020604051808303816000875af11580156104d9573d6000803e3d6000fd5b505050506040513d601f19601f820116820180604052508101906104fd9190612136565b90505b600554610517906001600160a01b0316828961120e565b60055461053d906001600160a01b0316898989898989896105388634612169565b611276565b5050505050505050565b600480546040516350df239b60e01b815260009283926001600160a01b0316916350df239b91610581918b918b918b918b918b91016121f5565b6040805180830381865afa15801561059d573d6000803e3d6000fd5b505050506040513d601f19601f820116820180604052508101906105c19190612252565b915091509550959350505050565b60ff8416600114806105e4575060ff84166002145b61062a5760405162461bcd60e51b81526020600482015260176024820152764f4350526f757465723a20696e76616c6964207479706560481b60448201526064016102ed565b61065c6040518060400160405280601081526020016f0119027a1a8291730b2323932b9b99d160851b81525030611459565b61069b6040518060400160405280601b81526020017f23204f4350522e6f6d6e694d696e74203d3e205f746f6b656e3a20000000000081525088611459565b6001600160a01b0387166106ec5760405162461bcd60e51b815260206004820152601860248201527713d0d4149bdd5d195c8e881d1bdad95b881a5b9d985b1a5960421b60448201526064016102ed565b6001600160a01b0385166107125760405162461bcd60e51b81526004016102ed906120b5565b600086116107325760405162461bcd60e51b81526004016102ed906120ec565b60025460405163bbe4f6db60e01b81526000916001600160a01b03169063bbe4f6db90610763908b906004016119ca565b602060405180830381865afa158015610780573d6000803e3d6000fd5b505050506040513d601f19601f820116820180604052508101906107a49190612136565b90506001600160a01b03811661082a57600254604051634824fce960e11b81526001600160a01b0390911690639049f9d2906107e4908b906004016119ca565b6020604051808303816000875af1158015610803573d6000803e3d6000fd5b505050506040513d601f19601f820116820180604052508101906108279190612136565b90505b61083f6001600160a01b03891633838a6114a2565b610850888a89898989898934611276565b505050505050505050565b6108636114c9565b600480546001600160a01b0319166001600160a01b0392909216919091179055565b61088d6114c9565b6108976000611523565b565b6001600160a01b0384166108bf5760405162461bcd60e51b81526004016102ed906120b5565b600085116108df5760405162461bcd60e51b81526004016102ed906120ec565b60408051608081018252600080825260208201819052918101829052606081019190915260035460405163d2ede8df60e01b81526001600160a01b03898116600483015261ffff8b1660248301529091169063d2ede8df90604401602060405180830381865afa158015610957573d6000803e3d6000fd5b505050506040513d601f19601f8201168201806040525081019061097b9190612136565b6001600160a01b03168082526109e75760405162461bcd60e51b815260206004820152602b60248201527f4f4350526f757465723a206e6f20737263546f6b656e206f6e2064657374696e60448201526a30ba34b7b71031b430b4b760a91b60648201526084016102ed565b336020820181905260408083018890526001600160a01b038781166060850152600354915163a22304ed60e01b81528a82166004820152602481018a90526044810193909352169063a22304ed90606401600060405180830381600087803b158015610a5257600080fd5b505af1158015610a66573d6000803e3d6000fd5b50506004805460405163b9cc4c7160e01b81526001600160a01b03909116935063b9cc4c7192503491610aa6918d918a9160039189918c918c9101612276565b6000604051808303818588803b158015610abf57600080fd5b505af1158015610ad3573d6000803e3d6000fd5b50505050505050505050505050565b6004546001600160a01b03163314610b0c5760405162461bcd60e51b81526004016102ed906122fa565b610b3e6040518060400160405280601081526020016f0119027a1a8291730b2323932b9b99d160851b81525030611459565b610b616040518060600160405280602f815260200161274e602f91398551611459565b610ba36040518060400160405280602081526020017f23204f4350522e6f6d6e694d696e7452656d6f7465203d3e205f747970653a208152508660ff16611573565b610bc9604051806060016040528060298152602001612725602991398560600151611459565b6003548451604051632783bf7560e11b81526001600160a01b03918216600482015261ffff8b1660248201526000929190911690634f077eea90604401602060405180830381865afa158015610c23573d6000803e3d6000fd5b505050506040513d601f19601f82011682018060405250810190610c479190612136565b905060001960ff871601610d5c576001600160a01b038116610ce157600354604051630ef8524960e01b81526001600160a01b0390911690630ef8524990610c9790889088908e906004016123aa565b6020604051808303816000875af1158015610cb6573d6000803e3d6000fd5b505050506040513d601f19601f82011682018060405250810190610cda9190612136565b9050610dd3565b6003546040516301dbb1d760e21b81526001600160a01b039091169063076ec75c90610d139088908d906004016123e1565b6020604051808303816000875af1158015610d32573d6000803e3d6000fd5b505050506040513d601f19601f82011682018060405250810190610d569190612136565b50610dd3565b6003546040516301dbb1d760e21b81526001600160a01b039091169063076ec75c90610d8e9088908d906004016123e1565b6020604051808303816000875af1158015610dad573d6000803e3d6000fd5b505050506040513d601f19601f82011682018060405250810190610dd19190612136565b505b81511561085057610dfb6040518060600160405280602a815260200161277d602a91396115b8565b84606001516001600160a01b031663cdaea7d7848b8b8b868b60400151896040518863ffffffff1660e01b8152600401610e3a96959493929190612407565b600060405180830381600088803b158015610e5457600080fd5b5087f1158015610e68573d6000803e3d6000fd5b5050505050505050505050505050565b6004546001600160a01b03163314610ea25760405162461bcd60e51b81526004016102ed906122fa565b6000610eb6846000015185604001516115fb565b9050610ee56040518060400160405280600b81526020016a011902fb0b6b7bab73a1d160ad1b81525082611573565b60055484516001600160a01b03908116911614610f6c5760025484516060860151604051636ce5768960e11b81526001600160a01b039093169263d9caed1292610f359290918690600401612453565b600060405180830381600087803b158015610f4f57600080fd5b505af1158015610f63573d6000803e3d6000fd5b505050506110dd565b600254600554604051636ce5768960e11b81526001600160a01b039283169263d9caed1292610fa49291169030908690600401612453565b600060405180830381600087803b158015610fbe57600080fd5b505af1158015610fd2573d6000803e3d6000fd5b5050600554604051632e1a7d4d60e01b8152600481018590526001600160a01b039091169250632e1a7d4d9150602401600060405180830381600087803b15801561101c57600080fd5b505af1158015611030573d6000803e3d6000fd5b50505050600084606001516001600160a01b03168260405160006040518083038185875af1925050503d8060008114611085576040519150601f19603f3d011682016040523d82523d6000602084013e61108a565b606091505b50509050806110db5760405162461bcd60e51b815260206004820152601f60248201527f4f4350526f757465723a206661696c656420746f2073656e642065746865720060448201526064016102ed565b505b61111360405180604001604052806013815260200172011902fb830bcb637b0b2173632b733ba341d1606d1b8152508351611573565b81511561118c576060840151845160405163cdaea7d760e01b81526001600160a01b039092169163cdaea7d7918691611158918c918c918c9189908b90600401612407565b600060405180830381600088803b15801561117257600080fd5b5087f1158015611186573d6000803e3d6000fd5b50505050505b50505050505050565b61119d6114c9565b6001600160a01b0381166112025760405162461bcd60e51b815260206004820152602660248201527f4f776e61626c653a206e6577206f776e657220697320746865207a65726f206160448201526564647265737360d01b60648201526084016102ed565b61120b81611523565b50565b6040516001600160a01b03831660248201526044810182905261127190849063a9059cbb60e01b906064015b60408051601f198184030181529190526020810180516001600160e01b03166001600160e01b0319909316929092179091526116a0565b505050565b6112ca6040518060c0016040528060006001600160a01b0316815260200160006001600160a01b031681526020016000815260200160006001600160a01b0316815260200160608152602001606081525090565b6001600160a01b038a1681523360208201526112e68a89611775565b60408201526001600160a01b038716606082015260001960ff8716016113e057896001600160a01b03166306fdde036040518163ffffffff1660e01b8152600401600060405180830381865afa158015611344573d6000803e3d6000fd5b505050506040513d6000823e601f3d908101601f1916820160405261136c9190810190612477565b8160800181905250896001600160a01b03166395d89b416040518163ffffffff1660e01b8152600401600060405180830381865afa1580156113b2573d6000803e3d6000fd5b505050506040513d6000823e601f3d908101601f191682016040526113da9190810190612477565b60a08201525b600480546040516382019ed560e01b81526001600160a01b03909116916382019ed591859161141b918e918b918d9189918d918d91016124e4565b6000604051808303818588803b15801561143457600080fd5b505af1158015611448573d6000803e3d6000fd5b505050505050505050505050505050565b61149e828260405160240161146f929190612541565b60408051601f198184030181529190526020810180516001600160e01b031663319af33360e01b179052611810565b5050565b6114c3846323b872dd60e01b85858560405160240161123a93929190612453565b50505050565b6000546001600160a01b031633146108975760405162461bcd60e51b815260206004820181905260248201527f4f776e61626c653a2063616c6c6572206973206e6f7420746865206f776e657260448201526064016102ed565b600080546001600160a01b038381166001600160a01b0319831681178455604051919092169283917f8be0079c531659141344cd1fd0a4f28419497f9722a3daafe3b4186f6b6457e09190a35050565b61149e828260405160240161158992919061256b565b60408051601f198184030181529190526020810180516001600160e01b0316632d839cb360e21b179052611810565b61120b816040516024016115cc919061258d565b60408051601f198184030181529190526020810180516001600160e01b031663104c13eb60e21b179052611810565b600080836001600160a01b031663313ce5676040518163ffffffff1660e01b8152600401602060405180830381865afa15801561163c573d6000803e3d6000fd5b505050506040513d601f19601f8201168201806040525081019061166091906125a0565b60ff16905080601203611676578291505061169a565b611681816012612169565b61168c90600a6126a1565b61169690846126ad565b9150505b92915050565b60006116f5826040518060400160405280602081526020017f5361666545524332303a206c6f772d6c6576656c2063616c6c206661696c6564815250856001600160a01b03166118199092919063ffffffff16565b905080516000148061171657508080602001905181019061171691906126cf565b6112715760405162461bcd60e51b815260206004820152602a60248201527f5361666545524332303a204552433230206f7065726174696f6e20646964206e6044820152691bdd081cdd58d8d9595960b21b60648201526084016102ed565b600080836001600160a01b031663313ce5676040518163ffffffff1660e01b8152600401602060405180830381865afa1580156117b6573d6000803e3d6000fd5b505050506040513d601f19601f820116820180604052508101906117da91906125a0565b60ff169050806012036117f0578291505061169a565b6117fb816012612169565b61180690600a6126a1565b61169690846126f1565b61120b81611830565b60606118288484600085611851565b949350505050565b60006a636f6e736f6c652e6c6f679050600080835160208501845afa505050565b6060824710156118b25760405162461bcd60e51b815260206004820152602660248201527f416464726573733a20696e73756666696369656e742062616c616e636520666f6044820152651c8818d85b1b60d21b60648201526084016102ed565b600080866001600160a01b031685876040516118ce9190612708565b60006040518083038185875af1925050503d806000811461190b576040519150601f19603f3d011682016040523d82523d6000602084013e611910565b606091505b50915091506119218783838761192c565b979650505050505050565b6060831561199b578251600003611994576001600160a01b0385163b6119945760405162461bcd60e51b815260206004820152601d60248201527f416464726573733a2063616c6c20746f206e6f6e2d636f6e747261637400000060448201526064016102ed565b5081611828565b61182883838151156119b05781518083602001fd5b8060405162461bcd60e51b81526004016102ed919061258d565b6001600160a01b0391909116815260200190565b803561ffff811681146119f057600080fd5b919050565b6001600160a01b038116811461120b57600080fd5b80356119f0816119f5565b60ff8116811461120b57600080fd5b80356119f081611a15565b634e487b7160e01b600052604160045260246000fd5b60405160c081016001600160401b0381118282101715611a6757611a67611a2f565b60405290565b604051608081016001600160401b0381118282101715611a6757611a67611a2f565b604051601f8201601f191681016001600160401b0381118282101715611ab757611ab7611a2f565b604052919050565b60006001600160401b03821115611ad857611ad8611a2f565b50601f01601f191660200190565b600082601f830112611af757600080fd5b8135611b0a611b0582611abf565b611a8f565b818152846020838601011115611b1f57600080fd5b816020850160208301376000918101602001919091529392505050565b600060608284031215611b4e57600080fd5b604051606081016001600160401b038282108183111715611b7157611b71611a2f565b8160405282935084358352602085013560208401526040850135915080821115611b9a57600080fd5b50611ba785828601611ae6565b6040830152505092915050565b600080600080600080600060e0888a031215611bcf57600080fd5b611bd8886119de565b9650602088013595506040880135611bef816119f5565b94506060880135611bff81611a15565b93506080880135611c0f816119f5565b925060a08801356001600160401b0380821115611c2b57600080fd5b611c378b838c01611ae6565b935060c08a0135915080821115611c4d57600080fd5b50611c5a8a828b01611b3c565b91505092959891949750929550565b600080600080600060808688031215611c8157600080fd5b611c8a866119de565b94506020860135611c9a81611a15565b935060408601356001600160401b0380821115611cb657600080fd5b818801915088601f830112611cca57600080fd5b813581811115611cd957600080fd5b896020828501011115611ceb57600080fd5b602083019550809450506060880135915080821115611d0957600080fd5b50611d1688828901611b3c565b9150509295509295909350565b600080600080600080600080610100898b031215611d4057600080fd5b611d49896119de565b97506020890135611d59816119f5565b9650604089013595506060890135611d70816119f5565b94506080890135611d8081611a15565b935060a0890135611d90816119f5565b925060c08901356001600160401b0380821115611dac57600080fd5b611db88c838d01611ae6565b935060e08b0135915080821115611dce57600080fd5b50611ddb8b828c01611b3c565b9150509295985092959890939650565b600060208284031215611dfd57600080fd5b8135611e08816119f5565b9392505050565b600080600080600080600060e0888a031215611e2a57600080fd5b611e33886119de565b96506020880135611e43816119f5565b9550604088013594506060880135611bff816119f5565b600060c08284031215611e6c57600080fd5b611e74611a45565b9050611e7f82611a0a565b8152611e8d60208301611a0a565b602082015260408201356040820152611ea860608301611a0a565b606082015260808201356001600160401b0380821115611ec757600080fd5b611ed385838601611ae6565b608084015260a0840135915080821115611eec57600080fd5b50611ef984828501611ae6565b60a08301525092915050565b600080600080600080600080610100898b031215611f2257600080fd5b611f2b896119de565b975060208901356001600160401b0380821115611f4757600080fd5b611f538c838d01611ae6565b985060408b01359750611f6860608c01611a24565b965060808b0135915080821115611f7e57600080fd5b611f8a8c838d01611e5a565b9550611f9860a08c01611a0a565b945060c08b0135935060e08b0135915080821115611fb557600080fd5b50611ddb8b828c01611ae6565b600080600080600080868803610120811215611fdd57600080fd5b611fe6886119de565b965060208801356001600160401b038082111561200257600080fd5b61200e8b838c01611ae6565b975060408a013596506080605f198401121561202957600080fd5b612031611a6d565b925060608a01359150612043826119f5565b908252608089013590612055826119f5565b81602084015260a08a0135604084015260c08a01359150612075826119f5565b81606084015282955060e08a013594506101008a013592508083111561209a57600080fd5b50506120a889828a01611ae6565b9150509295509295509295565b6020808252601b908201527f4f4350526f757465723a20726563656976657220696e76616c69640000000000604082015260600190565b6020808252602a908201527f4f4350526f757465723a20616d6f756e74496e206d75737420626520677265616040820152690746572207468616e20360b41b606082015260800190565b60006020828403121561214857600080fd5b8151611e08816119f5565b634e487b7160e01b600052601160045260246000fd5b8181038181111561169a5761169a612153565b60005b8381101561219757818101518382015260200161217f565b50506000910152565b600081518084526121b881602086016020860161217c565b601f01601f19169290920160200192915050565b8051825260208101516020830152600060408201516060604085015261169660608501826121a0565b61ffff8616815260ff8516602082015260806040820152826080820152828460a0830137600060a084830101526000601f19601f850116820160a083820301606084015261224660a08201856121cc565b98975050505050505050565b6000806040838503121561226557600080fd5b505080516020909101519092909150565b600061012061ffff8916835260018060a01b03808916602085015260ff88166040850152808751166060850152806020880151166080850152604087015160a08501528060608801511660c0850152508060e08401526122d8818401866121a0565b90508281036101008401526122ed81856121cc565b9998505050505050505050565b60208082526023908201527f4f4350526f757465723a2063616c6c6572206973206e6f74207468652062726960408201526264676560e81b606082015260800190565b600060018060a01b038083511684528060208401511660208501526040830151604085015280606084015116606085015250608082015160c0608085015261238860c08501826121a0565b905060a083015184820360a08601526123a182826121a0565b95945050505050565b6060815260006123bd606083018661233d565b6001600160a01b039490941660208301525061ffff91909116604090910152919050565b6040815260006123f4604083018561233d565b905061ffff831660208301529392505050565b61ffff8716815260c06020820152600061242460c08301886121a0565b604083018790526001600160a01b03861660608401526080830185905282810360a08401526122ed81856121a0565b6001600160a01b039384168152919092166020820152604081019190915260600190565b60006020828403121561248957600080fd5b81516001600160401b0381111561249f57600080fd5b8201601f810184136124b057600080fd5b80516124be611b0582611abf565b8181528560208385010111156124d357600080fd5b6123a182602083016020860161217c565b61ffff871681526001600160a01b038616602082015260ff8516604082015260c06060820181905260009061251b9083018661233d565b828103608084015261252d81866121a0565b905082810360a08401526122ed81856121cc565b60408152600061255460408301856121a0565b905060018060a01b03831660208301529392505050565b60408152600061257e60408301856121a0565b90508260208301529392505050565b602081526000611e0860208301846121a0565b6000602082840312156125b257600080fd5b8151611e0881611a15565b600181815b808511156125f85781600019048211156125de576125de612153565b808516156125eb57918102915b93841c93908002906125c2565b509250929050565b60008261260f5750600161169a565b8161261c5750600061169a565b8160018114612632576002811461263c57612658565b600191505061169a565b60ff84111561264d5761264d612153565b50506001821b61169a565b5060208310610133831016604e8410600b841016171561267b575081810a61169a565b61268583836125bd565b806000190482111561269957612699612153565b029392505050565b6000611e088383612600565b6000826126ca57634e487b7160e01b600052601260045260246000fd5b500490565b6000602082840312156126e157600080fd5b81518015158114611e0857600080fd5b808202811582820484141761169a5761169a612153565b6000825161271a81846020870161217c565b919091019291505056fe23204f4350522e6f6d6e694d696e7452656d6f7465203d3e205f6d696e74506172616d732e746f3a2023204f4350522e6f6d6e694d696e7452656d6f7465203d3e205f6d696e74506172616d732e737263546f6b656e3a2023204f4350522e6f6d6e694d696e7452656d6f7465203d3e205f7061796c6f61642e6c656e6774683e30a264697066735822122063bc3316f5aa898c9f2ea707475b8496e22a10441d370984ec17ef0ec255a29b64736f6c63430008110033",
  "devdoc": {
    "kind": "dev",
    "methods": {
      "constructor": {
        "details": "Initializes the contract setting the deployer as the initial owner.",
        "params": {
          "_bridge": "The address of the bridge contract.",
          "_poolFactory": "The address of the pool factory contract.",
          "_tokenManager": "The address of the token manager contract.",
          "_weth": "The address of the WETH contract."
        }
      },
      "omniMint(uint16,address,uint256,address,uint8,address,bytes,(uint256,uint256,bytes))": {
        "details": "Transfers tokens from sender to receiver on the same chain. If the `getPool` is not deployed, it will be deployed. If the `getPool` is deployed, it will be used. `_token` cannot be the zero address and it will be transferred from sender to receiver. `_omniMint` will be called to mint the token on the receiver chain. Requirements: - `_token` cannot be the zero address. - `_to` cannot be the zero address. - `_amountIn` must be greater than 0.",
        "params": {
          "_amountIn": "The amount of tokens to transfer.",
          "_lzTxParams": "The layer zero transaction parameters.",
          "_payload": "The payload to send to the receiver.",
          "_refundAddress": "The address to refund the fee to.",
          "_remoteChainId": "The chain id of the receiver.",
          "_to": "The address of the receiver.",
          "_token": "The address of the token to transfer.",
          "_type": "The type of the transaction."
        }
      },
      "omniMintRemote(uint16,bytes,uint256,uint8,(address,address,uint256,address,string,string),address,uint256,bytes)": {
        "details": "Transfers tokens from sender to receiver on the same chain. Requirements: - `_token` cannot be the zero address. - `_to` cannot be the zero address. - `_amountIn` must be greater than 0. - only the bridge can call this function.",
        "params": {
          "_dstGasForCall": "The gas for the call.",
          "_lzEndpoint": "The layer zero endpoint.",
          "_mintParams": "The mint parameters.",
          "_nonce": "The nonce of the transaction.",
          "_payload": "The payload to send to the receiver.",
          "_srcAddress": "The address of the sender.",
          "_srcChainId": "The chain id of the sender.",
          "_type": "The type of the transaction."
        }
      },
      "owner()": {
        "details": "Returns the address of the current owner."
      },
      "quoteLayerZeroFee(uint16,uint8,bytes,(uint256,uint256,bytes))": {
        "details": "Transfers tokens from sender to receiver on the same chain. Invoke the `bridge` to get quote for the fee and amount of token on the other chain.",
        "params": {
          "_lzTxParams": "The layer zero transaction parameters.",
          "_remoteChainId": "The chain id of the receiver.",
          "_type": "The type of the transaction.",
          "_userPayload": "The payload to send to the receiver."
        },
        "returns": {
          "_0": "The amount of token on the other chain and the fee to send to the bridge."
        }
      },
      "renounceOwnership()": {
        "details": "Leaves the contract without owner. It will not be possible to call `onlyOwner` functions. Can only be called by the current owner. NOTE: Renouncing ownership will leave the contract without an owner, thereby disabling any functionality that is only available to the owner."
      },
      "transferOwnership(address)": {
        "details": "Transfers ownership of the contract to a new account (`newOwner`). Can only be called by the current owner."
      },
      "updateBridge(address)": {
        "details": "update the bridge address. Requirements: - only the owner can call this function.",
        "params": {
          "_bridge": "The address of the bridge contract."
        }
      }
    },
    "version": 1
  },
  "userdoc": {
    "kind": "user",
    "methods": {},
    "version": 1
  },
  "storageLayout": {
    "storage": [
      {
        "astId": 1424,
        "contract": "contracts/OCPRouter.sol:OCPRouter",
        "label": "_owner",
        "offset": 0,
        "slot": "0",
        "type": "t_address"
      },
      {
        "astId": 1540,
        "contract": "contracts/OCPRouter.sol:OCPRouter",
        "label": "_status",
        "offset": 0,
        "slot": "1",
        "type": "t_uint256"
      },
      {
        "astId": 3382,
        "contract": "contracts/OCPRouter.sol:OCPRouter",
        "label": "poolFactory",
        "offset": 0,
        "slot": "2",
        "type": "t_contract(IOCPoolFactory)4484"
      },
      {
        "astId": 3385,
        "contract": "contracts/OCPRouter.sol:OCPRouter",
        "label": "tokenManager",
        "offset": 0,
        "slot": "3",
        "type": "t_contract(IOCPOmniTokenManager)4343"
      },
      {
        "astId": 3388,
        "contract": "contracts/OCPRouter.sol:OCPRouter",
        "label": "bridge",
        "offset": 0,
        "slot": "4",
        "type": "t_contract(IOCPBridge)4290"
      },
      {
        "astId": 3390,
        "contract": "contracts/OCPRouter.sol:OCPRouter",
        "label": "weth",
        "offset": 0,
        "slot": "5",
        "type": "t_address"
      }
    ],
    "types": {
      "t_address": {
        "encoding": "inplace",
        "label": "address",
        "numberOfBytes": "20"
      },
      "t_contract(IOCPBridge)4290": {
        "encoding": "inplace",
        "label": "contract IOCPBridge",
        "numberOfBytes": "20"
      },
      "t_contract(IOCPOmniTokenManager)4343": {
        "encoding": "inplace",
        "label": "contract IOCPOmniTokenManager",
        "numberOfBytes": "20"
      },
      "t_contract(IOCPoolFactory)4484": {
        "encoding": "inplace",
        "label": "contract IOCPoolFactory",
        "numberOfBytes": "20"
      },
      "t_uint256": {
        "encoding": "inplace",
        "label": "uint256",
        "numberOfBytes": "32"
      }
    }
  }
}