{
  "address": "0xa45f96F2EE153Ea65f1136Fc7Ba6E0f32B2288e1",
  "abi": [
    {
      "inputs": [
        {
          "internalType": "address",
          "name": "_poolFactory",
          "type": "address"
        },
        {
          "internalType": "address",
          "name": "_tokenManager",
          "type": "address"
        },
        {
          "internalType": "address",
          "name": "_bridge",
          "type": "address"
        },
        {
          "internalType": "address",
          "name": "_weth",
          "type": "address"
        }
      ],
      "stateMutability": "nonpayable",
      "type": "constructor"
    },
    {
      "anonymous": false,
      "inputs": [
        {
          "indexed": false,
          "internalType": "uint16",
          "name": "chainId",
          "type": "uint16"
        },
        {
          "indexed": false,
          "internalType": "bytes",
          "name": "srcAddress",
          "type": "bytes"
        },
        {
          "indexed": false,
          "internalType": "uint256",
          "name": "nonce",
          "type": "uint256"
        },
        {
          "indexed": false,
          "internalType": "address",
          "name": "token",
          "type": "address"
        },
        {
          "indexed": false,
          "internalType": "uint256",
          "name": "amount",
          "type": "uint256"
        },
        {
          "indexed": false,
          "internalType": "address",
          "name": "to",
          "type": "address"
        },
        {
          "indexed": false,
          "internalType": "bytes",
          "name": "payload",
          "type": "bytes"
        },
        {
          "indexed": false,
          "internalType": "bytes",
          "name": "reason",
          "type": "bytes"
        }
      ],
      "name": "CachedMint",
      "type": "event"
    },
    {
      "anonymous": false,
      "inputs": [
        {
          "indexed": true,
          "internalType": "address",
          "name": "previousOwner",
          "type": "address"
        },
        {
          "indexed": true,
          "internalType": "address",
          "name": "newOwner",
          "type": "address"
        }
      ],
      "name": "OwnershipTransferred",
      "type": "event"
    },
    {
      "inputs": [],
      "name": "bridge",
      "outputs": [
        {
          "internalType": "contract IOCPBridge",
          "name": "",
          "type": "address"
        }
      ],
      "stateMutability": "view",
      "type": "function"
    },
    {
      "inputs": [
        {
          "internalType": "uint16",
          "name": "",
          "type": "uint16"
        },
        {
          "internalType": "bytes",
          "name": "",
          "type": "bytes"
        },
        {
          "internalType": "uint256",
          "name": "",
          "type": "uint256"
        }
      ],
      "name": "cachedMintLookup",
      "outputs": [
        {
          "internalType": "address",
          "name": "token",
          "type": "address"
        },
        {
          "internalType": "uint256",
          "name": "amount",
          "type": "uint256"
        },
        {
          "internalType": "address",
          "name": "to",
          "type": "address"
        },
        {
          "internalType": "bytes",
          "name": "payload",
          "type": "bytes"
        }
      ],
      "stateMutability": "view",
      "type": "function"
    },
    {
      "inputs": [
        {
          "internalType": "uint16",
          "name": "_remoteChainId",
          "type": "uint16"
        },
        {
          "internalType": "address",
          "name": "_token",
          "type": "address"
        },
        {
          "internalType": "uint256",
          "name": "_amountIn",
          "type": "uint256"
        },
        {
          "internalType": "address",
          "name": "_to",
          "type": "address"
        },
        {
          "internalType": "bool",
          "name": "_needDeploy",
          "type": "bool"
        },
        {
          "internalType": "address payable",
          "name": "_refundAddress",
          "type": "address"
        },
        {
          "internalType": "bytes",
          "name": "_payload",
          "type": "bytes"
        },
        {
          "components": [
            {
              "internalType": "uint256",
              "name": "dstGasForCall",
              "type": "uint256"
            },
            {
              "internalType": "uint256",
              "name": "dstNativeAmount",
              "type": "uint256"
            },
            {
              "internalType": "bytes",
              "name": "dstNativeAddr",
              "type": "bytes"
            }
          ],
          "internalType": "struct Structs.LzTxObj",
          "name": "_lzTxParams",
          "type": "tuple"
        }
      ],
      "name": "omniMint",
      "outputs": [],
      "stateMutability": "payable",
      "type": "function"
    },
    {
      "inputs": [
        {
          "internalType": "uint16",
          "name": "_srcChainId",
          "type": "uint16"
        },
        {
          "internalType": "bytes",
          "name": "_srcAddress",
          "type": "bytes"
        },
        {
          "internalType": "uint256",
          "name": "_nonce",
          "type": "uint256"
        },
        {
          "internalType": "bool",
          "name": "_needDeploy",
          "type": "bool"
        },
        {
          "components": [
            {
              "internalType": "address",
              "name": "srcToken",
              "type": "address"
            },
            {
              "internalType": "uint256",
              "name": "amount",
              "type": "uint256"
            },
            {
              "internalType": "address",
              "name": "to",
              "type": "address"
            },
            {
              "internalType": "string",
              "name": "name",
              "type": "string"
            },
            {
              "internalType": "string",
              "name": "symbol",
              "type": "string"
            }
          ],
          "internalType": "struct Structs.MintObj",
          "name": "_mintParams",
          "type": "tuple"
        },
        {
          "internalType": "address",
          "name": "_lzEndpoint",
          "type": "address"
        },
        {
          "internalType": "uint256",
          "name": "_dstGasForCall",
          "type": "uint256"
        },
        {
          "internalType": "bytes",
          "name": "_payload",
          "type": "bytes"
        }
      ],
      "name": "omniMintRemote",
      "outputs": [],
      "stateMutability": "nonpayable",
      "type": "function"
    },
    {
      "inputs": [],
      "name": "owner",
      "outputs": [
        {
          "internalType": "address",
          "name": "",
          "type": "address"
        }
      ],
      "stateMutability": "view",
      "type": "function"
    },
    {
      "inputs": [],
      "name": "poolFactory",
      "outputs": [
        {
          "internalType": "contract IOCPoolFactory",
          "name": "",
          "type": "address"
        }
      ],
      "stateMutability": "view",
      "type": "function"
    },
    {
      "inputs": [
        {
          "internalType": "uint16",
          "name": "_remoteChainId",
          "type": "uint16"
        },
        {
          "internalType": "uint8",
          "name": "_type",
          "type": "uint8"
        },
        {
          "internalType": "bytes",
          "name": "_userPayload",
          "type": "bytes"
        },
        {
          "components": [
            {
              "internalType": "uint256",
              "name": "dstGasForCall",
              "type": "uint256"
            },
            {
              "internalType": "uint256",
              "name": "dstNativeAmount",
              "type": "uint256"
            },
            {
              "internalType": "bytes",
              "name": "dstNativeAddr",
              "type": "bytes"
            }
          ],
          "internalType": "struct Structs.LzTxObj",
          "name": "_lzTxParams",
          "type": "tuple"
        }
      ],
      "name": "quoteLayerZeroFee",
      "outputs": [
        {
          "internalType": "uint256",
          "name": "",
          "type": "uint256"
        },
        {
          "internalType": "uint256",
          "name": "",
          "type": "uint256"
        }
      ],
      "stateMutability": "view",
      "type": "function"
    },
    {
      "inputs": [],
      "name": "renounceOwnership",
      "outputs": [],
      "stateMutability": "nonpayable",
      "type": "function"
    },
    {
      "inputs": [],
      "name": "tokenManager",
      "outputs": [
        {
          "internalType": "contract IOCPOmniTokenManager",
          "name": "",
          "type": "address"
        }
      ],
      "stateMutability": "view",
      "type": "function"
    },
    {
      "inputs": [
        {
          "internalType": "address",
          "name": "newOwner",
          "type": "address"
        }
      ],
      "name": "transferOwnership",
      "outputs": [],
      "stateMutability": "nonpayable",
      "type": "function"
    },
    {
      "inputs": [
        {
          "internalType": "address",
          "name": "_bridge",
          "type": "address"
        }
      ],
      "name": "updateBridge",
      "outputs": [],
      "stateMutability": "nonpayable",
      "type": "function"
    },
    {
      "inputs": [],
      "name": "weth",
      "outputs": [
        {
          "internalType": "address",
          "name": "",
          "type": "address"
        }
      ],
      "stateMutability": "view",
      "type": "function"
    }
  ],
  "transactionHash": "0xf12de169ba609b347887f11dcd01e53a0c208555f2cacacf3967b78d7bb9dda3",
  "args": [
    "0x7Bb4470410b69205469606405d80985459522076",
    "0x33730cDC41D8791aCFAfa7C080af63B994bf4752",
    "0x19ba7df61960ecb07a24E5ABD5227374eCA9Ce2d",
    "0x0000000000000000000000000000000000000000"
  ],
  "numDeployments": 1,
  "solcInputHash": "36b0db6fb45f8edf47de0c113adff233",
  "bytecode": "0x60806040523480156200001157600080fd5b5060405162001cdd38038062001cdd833981016040819052620000349162000104565b6200003f3362000097565b60018055600280546001600160a01b039586166001600160a01b031991821617909155600380549486169482169490941790935560048054928516928416929092179091556005805491909316911617905562000161565b600080546001600160a01b038381166001600160a01b0319831681178455604051919092169283917f8be0079c531659141344cd1fd0a4f28419497f9722a3daafe3b4186f6b6457e09190a35050565b80516001600160a01b0381168114620000ff57600080fd5b919050565b600080600080608085870312156200011b57600080fd5b6200012685620000e7565b93506200013660208601620000e7565b92506200014660408601620000e7565b91506200015660608601620000e7565b905092959194509250565b611b6c80620001716000396000f3fe6080604052600436106100a75760003560e01c80636eb38212116100645780636eb382121461019c578063715018a6146101bc5780638da5cb5b146101d1578063e2009fb4146101ef578063e78cea921461020f578063f2fde38b1461022f57600080fd5b80631701a928146100ac5780632a709b14146100e55780633fc8cef3146101125780634219dc40146101325780635027f3941461015257806350df239b14610167575b600080fd5b3480156100b857600080fd5b506100cc6100c7366004611081565b61024f565b6040516100dc9493929190611127565b60405180910390f35b3480156100f157600080fd5b50600354610105906001600160a01b031681565b6040516100dc9190611164565b34801561011e57600080fd5b50600554610105906001600160a01b031681565b34801561013e57600080fd5b50600254610105906001600160a01b031681565b610165610160366004611229565b610330565b005b34801561017357600080fd5b50610187610182366004611300565b610568565b604080519283526020830191909152016100dc565b3480156101a857600080fd5b506101656101b73660046113ba565b6105f0565b3480156101c857600080fd5b5061016561061a565b3480156101dd57600080fd5b506000546001600160a01b0316610105565b3480156101fb57600080fd5b5061016561020a36600461149d565b61062e565b34801561021b57600080fd5b50600454610105906001600160a01b031681565b34801561023b57600080fd5b5061016561024a3660046113ba565b6108eb565b6006602090815260009384526040808520845180860184018051928152908401958401959095209452929052825290208054600182015460028301546003840180546001600160a01b0394851695939490921692916102ad9061155a565b80601f01602080910402602001604051908101604052809291908181526020018280546102d99061155a565b80156103265780601f106102fb57610100808354040283529160200191610326565b820191906000526020600020905b81548152906001019060200180831161030957829003601f168201915b5050505050905084565b6001600160a01b0387166103865760405162461bcd60e51b815260206004820152601860248201527713d0d4149bdd5d195c8e881d1bdad95b881a5b9d985b1a5960421b60448201526064015b60405180910390fd5b6001600160a01b0385166103dc5760405162461bcd60e51b815260206004820152601b60248201527f4f4350526f757465723a20726563656976657220696e76616c69640000000000604482015260640161037d565b6000861161043f5760405162461bcd60e51b815260206004820152602a60248201527f4f4350526f757465723a20616d6f756e74496e206d75737420626520677265616044820152690746572207468616e20360b41b606482015260840161037d565b60025460405163bbe4f6db60e01b81526000916001600160a01b03169063bbe4f6db90610470908b90600401611164565b602060405180830381865afa15801561048d573d6000803e3d6000fd5b505050506040513d601f19601f820116820180604052508101906104b19190611594565b90506001600160a01b03811661053757600254604051634824fce960e11b81526001600160a01b0390911690639049f9d2906104f1908b90600401611164565b6020604051808303816000875af1158015610510573d6000803e3d6000fd5b505050506040513d601f19601f820116820180604052508101906105349190611594565b90505b61054c6001600160a01b03891633838a610964565b61055d888a898989898989346109c4565b505050505050505050565b600480546040516350df239b60e01b815260009283926001600160a01b0316916350df239b916105a2918b918b918b918b918b91016115da565b6040805180830381865afa1580156105be573d6000803e3d6000fd5b505050506040513d601f19601f820116820180604052508101906105e29190611637565b915091509550959350505050565b6105f8610b81565b600480546001600160a01b0319166001600160a01b0392909216919091179055565b610622610b81565b61062c6000610bdb565b565b6004546001600160a01b031633146106945760405162461bcd60e51b815260206004820152602360248201527f4f4350526f757465723a2063616c6c6572206973206e6f74207468652062726960448201526264676560e81b606482015260840161037d565b6000851561071657600354604051630eb2772760e11b81526001600160a01b0390911690631d64ee4e906106d090889088908e906004016116bc565b6020604051808303816000875af11580156106ef573d6000803e3d6000fd5b505050506040513d601f19601f820116820180604052508101906107139190611594565b90505b81511561055d5784604001516001600160a01b031663cdaea7d7848b8b8b868b60200151896040518863ffffffff1660e01b815260040161075c969594939291906116f3565b600060405180830381600088803b15801561077657600080fd5b5087f193505050508015610788575060015b61055d573d8080156107b6576040519150601f19603f3d011682016040523d82523d6000602084013e6107bb565b606091505b506107c581610c2b565b6040518060800160405280836001600160a01b031681526020018760200151815260200187604001516001600160a01b0316815260200184815250600660008c61ffff1661ffff1681526020019081526020016000208a604051610829919061174c565b908152604080516020928190038301902060008c8152908352819020835181546001600160a01b03199081166001600160a01b03928316178355938501516001830155918401516002820180549094169216919091179091556060820151600382019061089690826117b6565b505050602086015160408088015190517f7a49e81f0e907be76e103e057fde92e93849effc4f1baeba8038082fb3c09458926108dd928e928e928e9289928b908a90611875565b60405180910390a15061055d565b6108f3610b81565b6001600160a01b0381166109585760405162461bcd60e51b815260206004820152602660248201527f4f776e61626c653a206e6577206f776e657220697320746865207a65726f206160448201526564647265737360d01b606482015260840161037d565b61096181610bdb565b50565b604080516001600160a01b0385811660248301528416604482015260648082018490528251808303909101815260849091019091526020810180516001600160e01b03166323b872dd60e01b1790526109be908590610c6e565b50505050565b6040805160a08101825260006020820181905291810191909152606080820181905260808201526001600160a01b038a168152610a018a89610d48565b60208201526001600160a01b03871660408201528515610af557896001600160a01b03166306fdde036040518163ffffffff1660e01b8152600401600060405180830381865afa158015610a59573d6000803e3d6000fd5b505050506040513d6000823e601f3d908101601f19168201604052610a8191908101906118ef565b8160600181905250896001600160a01b03166395d89b416040518163ffffffff1660e01b8152600401600060405180830381865afa158015610ac7573d6000803e3d6000fd5b505050506040513d6000823e601f3d908101601f19168201604052610aef91908101906118ef565b60808201525b600086610b03576002610b06565b60015b600480546040516371210d2560e01b81529293506001600160a01b0316916371210d25918691610b42918f918c9188918a918e918e910161195c565b6000604051808303818588803b158015610b5b57600080fd5b505af1158015610b6f573d6000803e3d6000fd5b50505050505050505050505050505050565b6000546001600160a01b0316331461062c5760405162461bcd60e51b815260206004820181905260248201527f4f776e61626c653a2063616c6c6572206973206e6f7420746865206f776e6572604482015260640161037d565b600080546001600160a01b038381166001600160a01b0319831681178455604051919092169283917f8be0079c531659141344cd1fd0a4f28419497f9722a3daafe3b4186f6b6457e09190a35050565b61096181604051602401610c3f91906119b9565b60408051601f198184030181529190526020810180516001600160e01b03166305f3bfab60e11b179052610ded565b6000610cc3826040518060400160405280602081526020017f5361666545524332303a206c6f772d6c6576656c2063616c6c206661696c6564815250856001600160a01b0316610df69092919063ffffffff16565b9050805160001480610ce4575080806020019051810190610ce491906119cc565b610d435760405162461bcd60e51b815260206004820152602a60248201527f5361666545524332303a204552433230206f7065726174696f6e20646964206e6044820152691bdd081cdd58d8d9595960b21b606482015260840161037d565b505050565b600080836001600160a01b031663313ce5676040518163ffffffff1660e01b8152600401602060405180830381865afa158015610d89573d6000803e3d6000fd5b505050506040513d601f19601f82011682018060405250810190610dad91906119e9565b60ff16905080601203610dc35782915050610de7565b610dce816012611a1c565b610dd990600a611b13565b610de39084611b1f565b9150505b92915050565b61096181610e0d565b6060610e058484600085610e2e565b949350505050565b60006a636f6e736f6c652e6c6f679050600080835160208501845afa505050565b606082471015610e8f5760405162461bcd60e51b815260206004820152602660248201527f416464726573733a20696e73756666696369656e742062616c616e636520666f6044820152651c8818d85b1b60d21b606482015260840161037d565b600080866001600160a01b03168587604051610eab919061174c565b60006040518083038185875af1925050503d8060008114610ee8576040519150601f19603f3d011682016040523d82523d6000602084013e610eed565b606091505b5091509150610efe87838387610f09565b979650505050505050565b60608315610f78578251600003610f71576001600160a01b0385163b610f715760405162461bcd60e51b815260206004820152601d60248201527f416464726573733a2063616c6c20746f206e6f6e2d636f6e7472616374000000604482015260640161037d565b5081610e05565b610e058383815115610f8d5781518083602001fd5b8060405162461bcd60e51b815260040161037d91906119b9565b803561ffff81168114610fb957600080fd5b919050565b634e487b7160e01b600052604160045260246000fd5b604051601f8201601f191681016001600160401b0381118282101715610ffc57610ffc610fbe565b604052919050565b60006001600160401b0382111561101d5761101d610fbe565b50601f01601f191660200190565b600082601f83011261103c57600080fd5b813561104f61104a82611004565b610fd4565b81815284602083860101111561106457600080fd5b816020850160208301376000918101602001919091529392505050565b60008060006060848603121561109657600080fd5b61109f84610fa7565b925060208401356001600160401b038111156110ba57600080fd5b6110c68682870161102b565b925050604084013590509250925092565b60005b838110156110f25781810151838201526020016110da565b50506000910152565b600081518084526111138160208601602086016110d7565b601f01601f19169290920160200192915050565b6001600160a01b038581168252602082018590528316604082015260806060820181905260009061115a908301846110fb565b9695505050505050565b6001600160a01b0391909116815260200190565b6001600160a01b038116811461096157600080fd5b8035610fb981611178565b801515811461096157600080fd5b8035610fb981611198565b6000606082840312156111c357600080fd5b604051606081016001600160401b0382821081831117156111e6576111e6610fbe565b816040528293508435835260208501356020840152604085013591508082111561120f57600080fd5b5061121c8582860161102b565b6040830152505092915050565b600080600080600080600080610100898b03121561124657600080fd5b61124f89610fa7565b9750602089013561125f81611178565b965060408901359550606089013561127681611178565b9450608089013561128681611198565b935060a089013561129681611178565b925060c08901356001600160401b03808211156112b257600080fd5b6112be8c838d0161102b565b935060e08b01359150808211156112d457600080fd5b506112e18b828c016111b1565b9150509295985092959890939650565b60ff8116811461096157600080fd5b60008060008060006080868803121561131857600080fd5b61132186610fa7565b94506020860135611331816112f1565b935060408601356001600160401b038082111561134d57600080fd5b818801915088601f83011261136157600080fd5b81358181111561137057600080fd5b89602082850101111561138257600080fd5b6020830195508094505060608801359150808211156113a057600080fd5b506113ad888289016111b1565b9150509295509295909350565b6000602082840312156113cc57600080fd5b81356113d781611178565b9392505050565b600060a082840312156113f057600080fd5b60405160a081016001600160401b03828210818311171561141357611413610fbe565b816040528293508435915061142782611178565b818352602085013560208401526040850135915061144482611178565b816040840152606085013591508082111561145e57600080fd5b61146a8683870161102b565b6060840152608085013591508082111561148357600080fd5b506114908582860161102b565b6080830152505092915050565b600080600080600080600080610100898b0312156114ba57600080fd5b6114c389610fa7565b975060208901356001600160401b03808211156114df57600080fd5b6114eb8c838d0161102b565b985060408b0135975061150060608c016111a6565b965060808b013591508082111561151657600080fd5b6115228c838d016113de565b955061153060a08c0161118d565b945060c08b0135935060e08b013591508082111561154d57600080fd5b506112e18b828c0161102b565b600181811c9082168061156e57607f821691505b60208210810361158e57634e487b7160e01b600052602260045260246000fd5b50919050565b6000602082840312156115a657600080fd5b81516113d781611178565b80518252602081015160208301526000604082015160606040850152610de360608501826110fb565b61ffff8616815260ff8516602082015260806040820152826080820152828460a0830137600060a084830101526000601f19601f850116820160a083820301606084015261162b60a08201856115b1565b98975050505050505050565b6000806040838503121561164a57600080fd5b505080516020909101519092909150565b600060018060a01b038083511684526020830151602085015280604084015116604085015250606082015160a0606085015261169a60a08501826110fb565b9050608083015184820360808601526116b382826110fb565b95945050505050565b6060815260006116cf606083018661165b565b6001600160a01b039490941660208301525061ffff91909116604090910152919050565b61ffff8716815260c06020820152600061171060c08301886110fb565b604083018790526001600160a01b03861660608401526080830185905282810360a084015261173f81856110fb565b9998505050505050505050565b6000825161175e8184602087016110d7565b9190910192915050565b601f821115610d4357600081815260208120601f850160051c8101602086101561178f5750805b601f850160051c820191505b818110156117ae5782815560010161179b565b505050505050565b81516001600160401b038111156117cf576117cf610fbe565b6117e3816117dd845461155a565b84611768565b602080601f83116001811461181857600084156118005750858301515b600019600386901b1c1916600185901b1785556117ae565b600085815260208120601f198616915b8281101561184757888601518255948401946001909101908401611828565b50858210156118655787850151600019600388901b60f8161c191681555b5050505050600190811b01905550565b600061010061ffff8b1683528060208401526118938184018b6110fb565b604084018a90526001600160a01b03898116606086015260808501899052871660a085015283810360c085015290506118cc81866110fb565b905082810360e08401526118e081856110fb565b9b9a5050505050505050505050565b60006020828403121561190157600080fd5b81516001600160401b0381111561191757600080fd5b8201601f8101841361192857600080fd5b805161193661104a82611004565b81815285602083850101111561194b57600080fd5b6116b38260208301602086016110d7565b61ffff871681526001600160a01b038616602082015260ff8516604082015260c0606082018190526000906119939083018661165b565b82810360808401526119a581866110fb565b905082810360a084015261173f81856115b1565b6020815260006113d760208301846110fb565b6000602082840312156119de57600080fd5b81516113d781611198565b6000602082840312156119fb57600080fd5b81516113d7816112f1565b634e487b7160e01b600052601160045260246000fd5b81810381811115610de757610de7611a06565b600181815b80851115611a6a578160001904821115611a5057611a50611a06565b80851615611a5d57918102915b93841c9390800290611a34565b509250929050565b600082611a8157506001610de7565b81611a8e57506000610de7565b8160018114611aa45760028114611aae57611aca565b6001915050610de7565b60ff841115611abf57611abf611a06565b50506001821b610de7565b5060208310610133831016604e8410600b8410161715611aed575081810a610de7565b611af78383611a2f565b8060001904821115611b0b57611b0b611a06565b029392505050565b60006113d78383611a72565b8082028115828204841417610de757610de7611a0656fea2646970667358221220810f5fa4687be3ec6e11cf6dcbb07633d38c3b9e575b6f12dc1eb0a06922498664736f6c63430008110033",
  "devdoc": {
    "kind": "dev",
    "methods": {
      "owner()": {
        "details": "Returns the address of the current owner."
      },
      "renounceOwnership()": {
        "details": "Leaves the contract without owner. It will not be possible to call `onlyOwner` functions. Can only be called by the current owner. NOTE: Renouncing ownership will leave the contract without an owner, thereby disabling any functionality that is only available to the owner."
      },
      "transferOwnership(address)": {
        "details": "Transfers ownership of the contract to a new account (`newOwner`). Can only be called by the current owner."
      }
    },
    "version": 1
  },
  "userdoc": {
    "kind": "user",
    "methods": {},
    "version": 1
  },
  "storageLayout": {
    "storage": [
      {
        "astId": 3533,
        "contract": "contracts/OCPRouter.sol:OCPRouter",
        "label": "_owner",
        "offset": 0,
        "slot": "0",
        "type": "t_address"
      },
      {
        "astId": 3649,
        "contract": "contracts/OCPRouter.sol:OCPRouter",
        "label": "_status",
        "offset": 0,
        "slot": "1",
        "type": "t_uint256"
      },
      {
        "astId": 5920,
        "contract": "contracts/OCPRouter.sol:OCPRouter",
        "label": "poolFactory",
        "offset": 0,
        "slot": "2",
        "type": "t_contract(IOCPoolFactory)6706"
      },
      {
        "astId": 5923,
        "contract": "contracts/OCPRouter.sol:OCPRouter",
        "label": "tokenManager",
        "offset": 0,
        "slot": "3",
        "type": "t_contract(IOCPOmniTokenManager)6623"
      },
      {
        "astId": 5926,
        "contract": "contracts/OCPRouter.sol:OCPRouter",
        "label": "bridge",
        "offset": 0,
        "slot": "4",
        "type": "t_contract(IOCPBridge)6567"
      },
      {
        "astId": 5928,
        "contract": "contracts/OCPRouter.sol:OCPRouter",
        "label": "weth",
        "offset": 0,
        "slot": "5",
        "type": "t_address"
      },
      {
        "astId": 5937,
        "contract": "contracts/OCPRouter.sol:OCPRouter",
        "label": "cachedMintLookup",
        "offset": 0,
        "slot": "6",
        "type": "t_mapping(t_uint16,t_mapping(t_bytes_memory_ptr,t_mapping(t_uint256,t_struct(CachedMint)6778_storage)))"
      }
    ],
    "types": {
      "t_address": {
        "encoding": "inplace",
        "label": "address",
        "numberOfBytes": "20"
      },
      "t_bytes_memory_ptr": {
        "encoding": "bytes",
        "label": "bytes",
        "numberOfBytes": "32"
      },
      "t_bytes_storage": {
        "encoding": "bytes",
        "label": "bytes",
        "numberOfBytes": "32"
      },
      "t_contract(IOCPBridge)6567": {
        "encoding": "inplace",
        "label": "contract IOCPBridge",
        "numberOfBytes": "20"
      },
      "t_contract(IOCPOmniTokenManager)6623": {
        "encoding": "inplace",
        "label": "contract IOCPOmniTokenManager",
        "numberOfBytes": "20"
      },
      "t_contract(IOCPoolFactory)6706": {
        "encoding": "inplace",
        "label": "contract IOCPoolFactory",
        "numberOfBytes": "20"
      },
      "t_mapping(t_bytes_memory_ptr,t_mapping(t_uint256,t_struct(CachedMint)6778_storage))": {
        "encoding": "mapping",
        "key": "t_bytes_memory_ptr",
        "label": "mapping(bytes => mapping(uint256 => struct Structs.CachedMint))",
        "numberOfBytes": "32",
        "value": "t_mapping(t_uint256,t_struct(CachedMint)6778_storage)"
      },
      "t_mapping(t_uint16,t_mapping(t_bytes_memory_ptr,t_mapping(t_uint256,t_struct(CachedMint)6778_storage)))": {
        "encoding": "mapping",
        "key": "t_uint16",
        "label": "mapping(uint16 => mapping(bytes => mapping(uint256 => struct Structs.CachedMint)))",
        "numberOfBytes": "32",
        "value": "t_mapping(t_bytes_memory_ptr,t_mapping(t_uint256,t_struct(CachedMint)6778_storage))"
      },
      "t_mapping(t_uint256,t_struct(CachedMint)6778_storage)": {
        "encoding": "mapping",
        "key": "t_uint256",
        "label": "mapping(uint256 => struct Structs.CachedMint)",
        "numberOfBytes": "32",
        "value": "t_struct(CachedMint)6778_storage"
      },
      "t_struct(CachedMint)6778_storage": {
        "encoding": "inplace",
        "label": "struct Structs.CachedMint",
        "members": [
          {
            "astId": 6771,
            "contract": "contracts/OCPRouter.sol:OCPRouter",
            "label": "token",
            "offset": 0,
            "slot": "0",
            "type": "t_address"
          },
          {
            "astId": 6773,
            "contract": "contracts/OCPRouter.sol:OCPRouter",
            "label": "amount",
            "offset": 0,
            "slot": "1",
            "type": "t_uint256"
          },
          {
            "astId": 6775,
            "contract": "contracts/OCPRouter.sol:OCPRouter",
            "label": "to",
            "offset": 0,
            "slot": "2",
            "type": "t_address"
          },
          {
            "astId": 6777,
            "contract": "contracts/OCPRouter.sol:OCPRouter",
            "label": "payload",
            "offset": 0,
            "slot": "3",
            "type": "t_bytes_storage"
          }
        ],
        "numberOfBytes": "128"
      },
      "t_uint16": {
        "encoding": "inplace",
        "label": "uint16",
        "numberOfBytes": "2"
      },
      "t_uint256": {
        "encoding": "inplace",
        "label": "uint256",
        "numberOfBytes": "32"
      }
    }
  }
}