{
  "address": "0x3097B093204aE4EC3A798Cd6092b3eae8BFAbc35",
  "abi": [
    {
      "inputs": [
        {
          "internalType": "address",
          "name": "_lzEndpoint",
          "type": "address"
        }
      ],
      "stateMutability": "nonpayable",
      "type": "constructor"
    },
    {
      "anonymous": false,
      "inputs": [
        {
          "indexed": false,
          "internalType": "uint16",
          "name": "_srcChainId",
          "type": "uint16"
        },
        {
          "indexed": false,
          "internalType": "bytes",
          "name": "_srcAddress",
          "type": "bytes"
        },
        {
          "indexed": false,
          "internalType": "uint64",
          "name": "_nonce",
          "type": "uint64"
        },
        {
          "indexed": false,
          "internalType": "bytes",
          "name": "_payload",
          "type": "bytes"
        },
        {
          "indexed": false,
          "internalType": "bytes",
          "name": "_reason",
          "type": "bytes"
        }
      ],
      "name": "MessageFailed",
      "type": "event"
    },
    {
      "anonymous": false,
      "inputs": [
        {
          "indexed": true,
          "internalType": "address",
          "name": "previousOwner",
          "type": "address"
        },
        {
          "indexed": true,
          "internalType": "address",
          "name": "newOwner",
          "type": "address"
        }
      ],
      "name": "OwnershipTransferred",
      "type": "event"
    },
    {
      "anonymous": false,
      "inputs": [
        {
          "indexed": false,
          "internalType": "uint16",
          "name": "_srcChainId",
          "type": "uint16"
        },
        {
          "indexed": false,
          "internalType": "bytes",
          "name": "_srcAddress",
          "type": "bytes"
        },
        {
          "indexed": false,
          "internalType": "uint64",
          "name": "_nonce",
          "type": "uint64"
        },
        {
          "indexed": false,
          "internalType": "bytes32",
          "name": "_payloadHash",
          "type": "bytes32"
        }
      ],
      "name": "RetryMessageSuccess",
      "type": "event"
    },
    {
      "anonymous": false,
      "inputs": [
        {
          "indexed": false,
          "internalType": "uint16",
          "name": "_srcChainId",
          "type": "uint16"
        },
        {
          "indexed": false,
          "internalType": "bytes",
          "name": "_srcAddress",
          "type": "bytes"
        },
        {
          "indexed": false,
          "internalType": "uint64",
          "name": "_nonce",
          "type": "uint64"
        },
        {
          "indexed": false,
          "internalType": "bytes32",
          "name": "_payloadHash",
          "type": "bytes32"
        }
      ],
      "name": "RevertMessageSuccess",
      "type": "event"
    },
    {
      "anonymous": false,
      "inputs": [
        {
          "indexed": false,
          "internalType": "uint16",
          "name": "_dstChainId",
          "type": "uint16"
        },
        {
          "indexed": false,
          "internalType": "uint16",
          "name": "_type",
          "type": "uint16"
        },
        {
          "indexed": false,
          "internalType": "uint256",
          "name": "_minDstGas",
          "type": "uint256"
        }
      ],
      "name": "SetMinDstGas",
      "type": "event"
    },
    {
      "anonymous": false,
      "inputs": [
        {
          "indexed": false,
          "internalType": "address",
          "name": "precrime",
          "type": "address"
        }
      ],
      "name": "SetPrecrime",
      "type": "event"
    },
    {
      "anonymous": false,
      "inputs": [
        {
          "indexed": false,
          "internalType": "uint16",
          "name": "_remoteChainId",
          "type": "uint16"
        },
        {
          "indexed": false,
          "internalType": "bytes",
          "name": "_path",
          "type": "bytes"
        }
      ],
      "name": "SetTrustedRemote",
      "type": "event"
    },
    {
      "anonymous": false,
      "inputs": [
        {
          "indexed": false,
          "internalType": "uint16",
          "name": "_remoteChainId",
          "type": "uint16"
        },
        {
          "indexed": false,
          "internalType": "bytes",
          "name": "_remoteAddress",
          "type": "bytes"
        }
      ],
      "name": "SetTrustedRemoteAddress",
      "type": "event"
    },
    {
      "inputs": [],
      "name": "DEFAULT_PAYLOAD_SIZE_LIMIT",
      "outputs": [
        {
          "internalType": "uint256",
          "name": "",
          "type": "uint256"
        }
      ],
      "stateMutability": "view",
      "type": "function"
    },
    {
      "inputs": [
        {
          "internalType": "uint16",
          "name": "",
          "type": "uint16"
        },
        {
          "internalType": "bytes",
          "name": "",
          "type": "bytes"
        },
        {
          "internalType": "uint64",
          "name": "",
          "type": "uint64"
        }
      ],
      "name": "failedMessages",
      "outputs": [
        {
          "internalType": "bytes32",
          "name": "",
          "type": "bytes32"
        }
      ],
      "stateMutability": "view",
      "type": "function"
    },
    {
      "inputs": [
        {
          "internalType": "uint16",
          "name": "_srcChainId",
          "type": "uint16"
        },
        {
          "internalType": "bytes",
          "name": "_srcAddress",
          "type": "bytes"
        }
      ],
      "name": "forceResumeReceive",
      "outputs": [],
      "stateMutability": "nonpayable",
      "type": "function"
    },
    {
      "inputs": [
        {
          "internalType": "uint16",
          "name": "",
          "type": "uint16"
        },
        {
          "internalType": "uint8",
          "name": "",
          "type": "uint8"
        }
      ],
      "name": "gasLookup",
      "outputs": [
        {
          "internalType": "uint256",
          "name": "",
          "type": "uint256"
        }
      ],
      "stateMutability": "view",
      "type": "function"
    },
    {
      "inputs": [
        {
          "internalType": "uint16",
          "name": "_version",
          "type": "uint16"
        },
        {
          "internalType": "uint16",
          "name": "_chainId",
          "type": "uint16"
        },
        {
          "internalType": "address",
          "name": "",
          "type": "address"
        },
        {
          "internalType": "uint256",
          "name": "_configType",
          "type": "uint256"
        }
      ],
      "name": "getConfig",
      "outputs": [
        {
          "internalType": "bytes",
          "name": "",
          "type": "bytes"
        }
      ],
      "stateMutability": "view",
      "type": "function"
    },
    {
      "inputs": [
        {
          "internalType": "uint16",
          "name": "_remoteChainId",
          "type": "uint16"
        }
      ],
      "name": "getTrustedRemoteAddress",
      "outputs": [
        {
          "internalType": "bytes",
          "name": "",
          "type": "bytes"
        }
      ],
      "stateMutability": "view",
      "type": "function"
    },
    {
      "inputs": [
        {
          "internalType": "uint16",
          "name": "_srcChainId",
          "type": "uint16"
        },
        {
          "internalType": "bytes",
          "name": "_srcAddress",
          "type": "bytes"
        }
      ],
      "name": "isTrustedRemote",
      "outputs": [
        {
          "internalType": "bool",
          "name": "",
          "type": "bool"
        }
      ],
      "stateMutability": "view",
      "type": "function"
    },
    {
      "inputs": [],
      "name": "lzEndpoint",
      "outputs": [
        {
          "internalType": "contract ILayerZeroEndpoint",
          "name": "",
          "type": "address"
        }
      ],
      "stateMutability": "view",
      "type": "function"
    },
    {
      "inputs": [
        {
          "internalType": "uint16",
          "name": "_srcChainId",
          "type": "uint16"
        },
        {
          "internalType": "bytes",
          "name": "_srcAddress",
          "type": "bytes"
        },
        {
          "internalType": "uint64",
          "name": "_nonce",
          "type": "uint64"
        },
        {
          "internalType": "bytes",
          "name": "_payload",
          "type": "bytes"
        }
      ],
      "name": "lzReceive",
      "outputs": [],
      "stateMutability": "nonpayable",
      "type": "function"
    },
    {
      "inputs": [
        {
          "internalType": "uint16",
          "name": "",
          "type": "uint16"
        },
        {
          "internalType": "uint16",
          "name": "",
          "type": "uint16"
        }
      ],
      "name": "minDstGasLookup",
      "outputs": [
        {
          "internalType": "uint256",
          "name": "",
          "type": "uint256"
        }
      ],
      "stateMutability": "view",
      "type": "function"
    },
    {
      "inputs": [
        {
          "internalType": "uint16",
          "name": "_srcChainId",
          "type": "uint16"
        },
        {
          "internalType": "bytes",
          "name": "_srcAddress",
          "type": "bytes"
        },
        {
          "internalType": "uint64",
          "name": "_nonce",
          "type": "uint64"
        },
        {
          "internalType": "bytes",
          "name": "_payload",
          "type": "bytes"
        }
      ],
      "name": "nonblockingLzReceive",
      "outputs": [],
      "stateMutability": "nonpayable",
      "type": "function"
    },
    {
      "inputs": [
        {
          "internalType": "uint16",
          "name": "_remoteChainId",
          "type": "uint16"
        },
        {
          "internalType": "address payable",
          "name": "_refundAddress",
          "type": "address"
        },
        {
          "internalType": "uint8",
          "name": "_type",
          "type": "uint8"
        },
        {
          "components": [
            {
              "internalType": "address",
              "name": "srcToken",
              "type": "address"
            },
            {
              "internalType": "address",
              "name": "sender",
              "type": "address"
            },
            {
              "internalType": "uint256",
              "name": "amount",
              "type": "uint256"
            },
            {
              "internalType": "address",
              "name": "to",
              "type": "address"
            },
            {
              "internalType": "string",
              "name": "name",
              "type": "string"
            },
            {
              "internalType": "string",
              "name": "symbol",
              "type": "string"
            }
          ],
          "internalType": "struct Structs.MintObj",
          "name": "_mintParams",
          "type": "tuple"
        },
        {
          "internalType": "bytes",
          "name": "_payload",
          "type": "bytes"
        },
        {
          "components": [
            {
              "internalType": "uint256",
              "name": "dstGasForCall",
              "type": "uint256"
            },
            {
              "internalType": "uint256",
              "name": "dstNativeAmount",
              "type": "uint256"
            },
            {
              "internalType": "bytes",
              "name": "dstNativeAddr",
              "type": "bytes"
            }
          ],
          "internalType": "struct Structs.LzTxObj",
          "name": "_lzTxParams",
          "type": "tuple"
        }
      ],
      "name": "omniMint",
      "outputs": [],
      "stateMutability": "payable",
      "type": "function"
    },
    {
      "inputs": [
        {
          "internalType": "uint16",
          "name": "_remoteChainId",
          "type": "uint16"
        },
        {
          "internalType": "address payable",
          "name": "_refundAddress",
          "type": "address"
        },
        {
          "internalType": "uint8",
          "name": "_type",
          "type": "uint8"
        },
        {
          "components": [
            {
              "internalType": "address",
              "name": "srcToken",
              "type": "address"
            },
            {
              "internalType": "address",
              "name": "sender",
              "type": "address"
            },
            {
              "internalType": "uint256",
              "name": "amount",
              "type": "uint256"
            },
            {
              "internalType": "address",
              "name": "to",
              "type": "address"
            }
          ],
          "internalType": "struct Structs.RedeemObj",
          "name": "_redeemParams",
          "type": "tuple"
        },
        {
          "internalType": "bytes",
          "name": "_payload",
          "type": "bytes"
        },
        {
          "components": [
            {
              "internalType": "uint256",
              "name": "dstGasForCall",
              "type": "uint256"
            },
            {
              "internalType": "uint256",
              "name": "dstNativeAmount",
              "type": "uint256"
            },
            {
              "internalType": "bytes",
              "name": "dstNativeAddr",
              "type": "bytes"
            }
          ],
          "internalType": "struct Structs.LzTxObj",
          "name": "_lzTxParams",
          "type": "tuple"
        }
      ],
      "name": "omniRedeem",
      "outputs": [],
      "stateMutability": "payable",
      "type": "function"
    },
    {
      "inputs": [],
      "name": "owner",
      "outputs": [
        {
          "internalType": "address",
          "name": "",
          "type": "address"
        }
      ],
      "stateMutability": "view",
      "type": "function"
    },
    {
      "inputs": [
        {
          "internalType": "uint16",
          "name": "",
          "type": "uint16"
        }
      ],
      "name": "payloadSizeLimitLookup",
      "outputs": [
        {
          "internalType": "uint256",
          "name": "",
          "type": "uint256"
        }
      ],
      "stateMutability": "view",
      "type": "function"
    },
    {
      "inputs": [],
      "name": "precrime",
      "outputs": [
        {
          "internalType": "address",
          "name": "",
          "type": "address"
        }
      ],
      "stateMutability": "view",
      "type": "function"
    },
    {
      "inputs": [
        {
          "internalType": "uint16",
          "name": "_remoteChainId",
          "type": "uint16"
        },
        {
          "internalType": "uint8",
          "name": "_type",
          "type": "uint8"
        },
        {
          "internalType": "bytes",
          "name": "_userPayload",
          "type": "bytes"
        },
        {
          "components": [
            {
              "internalType": "uint256",
              "name": "dstGasForCall",
              "type": "uint256"
            },
            {
              "internalType": "uint256",
              "name": "dstNativeAmount",
              "type": "uint256"
            },
            {
              "internalType": "bytes",
              "name": "dstNativeAddr",
              "type": "bytes"
            }
          ],
          "internalType": "struct Structs.LzTxObj",
          "name": "_lzTxParams",
          "type": "tuple"
        }
      ],
      "name": "quoteLayerZeroFee",
      "outputs": [
        {
          "internalType": "uint256",
          "name": "",
          "type": "uint256"
        },
        {
          "internalType": "uint256",
          "name": "",
          "type": "uint256"
        }
      ],
      "stateMutability": "view",
      "type": "function"
    },
    {
      "inputs": [],
      "name": "renounceOwnership",
      "outputs": [],
      "stateMutability": "nonpayable",
      "type": "function"
    },
    {
      "inputs": [
        {
          "internalType": "uint16",
          "name": "_srcChainId",
          "type": "uint16"
        },
        {
          "internalType": "bytes",
          "name": "_srcAddress",
          "type": "bytes"
        },
        {
          "internalType": "uint64",
          "name": "_nonce",
          "type": "uint64"
        },
        {
          "internalType": "bytes",
          "name": "_payload",
          "type": "bytes"
        }
      ],
      "name": "retryMessage",
      "outputs": [],
      "stateMutability": "payable",
      "type": "function"
    },
    {
      "inputs": [
        {
          "internalType": "uint16",
          "name": "_srcChainId",
          "type": "uint16"
        },
        {
          "internalType": "bytes",
          "name": "_srcAddress",
          "type": "bytes"
        },
        {
          "internalType": "uint64",
          "name": "_nonce",
          "type": "uint64"
        },
        {
          "internalType": "bytes",
          "name": "_payload",
          "type": "bytes"
        }
      ],
      "name": "revertMessage",
      "outputs": [],
      "stateMutability": "payable",
      "type": "function"
    },
    {
      "inputs": [],
      "name": "router",
      "outputs": [
        {
          "internalType": "contract IOCPRouter",
          "name": "",
          "type": "address"
        }
      ],
      "stateMutability": "view",
      "type": "function"
    },
    {
      "inputs": [
        {
          "internalType": "uint16",
          "name": "_version",
          "type": "uint16"
        },
        {
          "internalType": "uint16",
          "name": "_chainId",
          "type": "uint16"
        },
        {
          "internalType": "uint256",
          "name": "_configType",
          "type": "uint256"
        },
        {
          "internalType": "bytes",
          "name": "_config",
          "type": "bytes"
        }
      ],
      "name": "setConfig",
      "outputs": [],
      "stateMutability": "nonpayable",
      "type": "function"
    },
    {
      "inputs": [
        {
          "internalType": "uint16",
          "name": "_dstChainId",
          "type": "uint16"
        },
        {
          "internalType": "uint16",
          "name": "_packetType",
          "type": "uint16"
        },
        {
          "internalType": "uint256",
          "name": "_minGas",
          "type": "uint256"
        }
      ],
      "name": "setMinDstGas",
      "outputs": [],
      "stateMutability": "nonpayable",
      "type": "function"
    },
    {
      "inputs": [
        {
          "internalType": "uint16",
          "name": "_dstChainId",
          "type": "uint16"
        },
        {
          "internalType": "uint256",
          "name": "_size",
          "type": "uint256"
        }
      ],
      "name": "setPayloadSizeLimit",
      "outputs": [],
      "stateMutability": "nonpayable",
      "type": "function"
    },
    {
      "inputs": [
        {
          "internalType": "address",
          "name": "_precrime",
          "type": "address"
        }
      ],
      "name": "setPrecrime",
      "outputs": [],
      "stateMutability": "nonpayable",
      "type": "function"
    },
    {
      "inputs": [
        {
          "internalType": "uint16",
          "name": "_version",
          "type": "uint16"
        }
      ],
      "name": "setReceiveVersion",
      "outputs": [],
      "stateMutability": "nonpayable",
      "type": "function"
    },
    {
      "inputs": [
        {
          "internalType": "uint16",
          "name": "_version",
          "type": "uint16"
        }
      ],
      "name": "setSendVersion",
      "outputs": [],
      "stateMutability": "nonpayable",
      "type": "function"
    },
    {
      "inputs": [
        {
          "internalType": "uint16",
          "name": "_remoteChainId",
          "type": "uint16"
        },
        {
          "internalType": "bytes",
          "name": "_path",
          "type": "bytes"
        }
      ],
      "name": "setTrustedRemote",
      "outputs": [],
      "stateMutability": "nonpayable",
      "type": "function"
    },
    {
      "inputs": [
        {
          "internalType": "uint16",
          "name": "_remoteChainId",
          "type": "uint16"
        },
        {
          "internalType": "bytes",
          "name": "_remoteAddress",
          "type": "bytes"
        }
      ],
      "name": "setTrustedRemoteAddress",
      "outputs": [],
      "stateMutability": "nonpayable",
      "type": "function"
    },
    {
      "inputs": [
        {
          "internalType": "address",
          "name": "newOwner",
          "type": "address"
        }
      ],
      "name": "transferOwnership",
      "outputs": [],
      "stateMutability": "nonpayable",
      "type": "function"
    },
    {
      "inputs": [
        {
          "internalType": "uint16",
          "name": "",
          "type": "uint16"
        }
      ],
      "name": "trustedRemoteLookup",
      "outputs": [
        {
          "internalType": "bytes",
          "name": "",
          "type": "bytes"
        }
      ],
      "stateMutability": "view",
      "type": "function"
    },
    {
      "inputs": [
        {
          "internalType": "uint16[]",
          "name": "_chainIds",
          "type": "uint16[]"
        },
        {
          "internalType": "uint8[]",
          "name": "_types",
          "type": "uint8[]"
        },
        {
          "internalType": "uint256[]",
          "name": "_gas",
          "type": "uint256[]"
        }
      ],
      "name": "updateGasLookups",
      "outputs": [],
      "stateMutability": "nonpayable",
      "type": "function"
    },
    {
      "inputs": [
        {
          "internalType": "address",
          "name": "_router",
          "type": "address"
        }
      ],
      "name": "updateRouter",
      "outputs": [],
      "stateMutability": "nonpayable",
      "type": "function"
    },
    {
      "inputs": [
        {
          "internalType": "uint16[]",
          "name": "_remoteChainIds",
          "type": "uint16[]"
        },
        {
          "internalType": "bytes[]",
          "name": "_paths",
          "type": "bytes[]"
        }
      ],
      "name": "updateTrustedRemotes",
      "outputs": [],
      "stateMutability": "nonpayable",
      "type": "function"
    },
    {
      "inputs": [],
      "name": "useLzToken",
      "outputs": [
        {
          "internalType": "bool",
          "name": "",
          "type": "bool"
        }
      ],
      "stateMutability": "view",
      "type": "function"
    }
  ],
  "transactionHash": "0x5a1971dc64f767b415a627448a6697e0b1f1f2ce30698dca347a02c2dc4d75e2",
  "args": [
    "0xbfD2135BFfbb0B5378b56643c2Df8a87552Bfa23"
  ],
  "numDeployments": 1,
  "solcInputHash": "67d96822ecaa5fb295e8d06e1e9b7d72",
  "bytecode": "0x60a06040523480156200001157600080fd5b5060405162003fbc38038062003fbc8339810160408190526200003491620000a6565b8080620000413362000056565b6001600160a01b031660805250620000d89050565b600080546001600160a01b038381166001600160a01b0319831681178455604051919092169283917f8be0079c531659141344cd1fd0a4f28419497f9722a3daafe3b4186f6b6457e09190a35050565b600060208284031215620000b957600080fd5b81516001600160a01b0381168114620000d157600080fd5b9392505050565b608051613e896200013360003960008181610554015281816106e00152818161092f015281816109d701528181610fa8015281816111770152818161184b01528181611c8d015281816120cd015261223a0152613e896000f3fe6080604052600436106101c35760003560e01c806382019ed5116100f8578063c446183411610090578063c4461834146105a9578063c851cc32146105bf578063cbed8b9c146105df578063d1deba1f146105ff578063df2a5b3b14610612578063eb8d72b714610632578063f2fde38b14610652578063f5ecbdbc14610672578063f887ea401461069257600080fd5b806382019ed5146104655780638cfd8f5c146104785780638da5cb5b146104b0578063950c8a74146104e25780639f38369a14610502578063a6c3d16514610522578063b353aaa714610542578063b9cc4c7114610576578063baf3292d1461058957600080fd5b80633d8b38f61161016b5780633d8b38f6146102f25780633f1f4fa41461031257806342d65a8d1461033f57806350df239b1461035f57806358f93263146103945780635b8c41e6146103b457806366ad5c8a14610403578063715018a6146104235780637533d7881461043857600080fd5b80621d3567146101c857806302422054146101ea57806307e0db17146102355780630df374831461025557806310ddb1371461027557806319d5994a1461029557806325b04e46146102a85780632aebec36146102d2575b600080fd5b3480156101d457600080fd5b506101e86101e33660046126ff565b6106b2565b005b3480156101f657600080fd5b506102226102053660046127a1565b600760209081526000928352604080842090915290825290205481565b6040519081526020015b60405180910390f35b34801561024157600080fd5b506101e86102503660046127d8565b61090e565b34801561026157600080fd5b506101e86102703660046127f3565b610997565b34801561028157600080fd5b506101e86102903660046127d8565b6109b6565b6101e86102a336600461292a565b610a0e565b3480156102b457600080fd5b506008546102c29060ff1681565b604051901515815260200161022c565b3480156102de57600080fd5b506101e86102ed3660046129f2565b610d86565b3480156102fe57600080fd5b506102c261030d366004612a5d565b610ebd565b34801561031e57600080fd5b5061022261032d3660046127d8565b60036020526000908152604090205481565b34801561034b57600080fd5b506101e861035a366004612a5d565b610f89565b34801561036b57600080fd5b5061037f61037a366004612b27565b61100f565b6040805192835260208301919091520161022c565b3480156103a057600080fd5b506101e86103af366004612ca0565b611206565b3480156103c057600080fd5b506102226103cf366004612d83565b6005602090815260009384526040808520845180860184018051928152908401958401959095209452929052825290205481565b34801561040f57600080fd5b506101e861041e3660046126ff565b6112e3565b34801561042f57600080fd5b506101e86113bf565b34801561044457600080fd5b506104586104533660046127d8565b6113d3565b60405161022c9190612e30565b6101e8610473366004612e63565b61146d565b34801561048457600080fd5b50610222610493366004612fae565b600260209081526000928352604080842090915290825290205481565b3480156104bc57600080fd5b506000546001600160a01b03165b6040516001600160a01b03909116815260200161022c565b3480156104ee57600080fd5b506004546104ca906001600160a01b031681565b34801561050e57600080fd5b5061045861051d3660046127d8565b611563565b34801561052e57600080fd5b506101e861053d366004612a5d565b611679565b34801561054e57600080fd5b506104ca7f000000000000000000000000000000000000000000000000000000000000000081565b6101e8610584366004612fe1565b611702565b34801561059557600080fd5b506101e86105a43660046130c1565b6117a6565b3480156105b557600080fd5b5061022261271081565b3480156105cb57600080fd5b506101e86105da3660046130c1565b611802565b3480156105eb57600080fd5b506101e86105fa3660046130de565b61182c565b6101e861060d3660046126ff565b6118c1565b34801561061e57600080fd5b506101e861062d36600461314c565b611ad7565b34801561063e57600080fd5b506101e861064d366004612a5d565b611b89565b34801561065e57600080fd5b506101e861066d3660046130c1565b611be3565b34801561067e57600080fd5b5061045861068d366004613188565b611c5c565b34801561069e57600080fd5b506006546104ca906001600160a01b031681565b6106dd6040518060400160405280600a8152602001692320726563656976652160b01b815250611d0d565b337f00000000000000000000000000000000000000000000000000000000000000006001600160a01b03161461075a5760405162461bcd60e51b815260206004820152601e60248201527f4c7a4170703a20696e76616c696420656e64706f696e742063616c6c6572000060448201526064015b60405180910390fd5b61ffff861660009081526001602052604081208054610778906131d5565b80601f01602080910402602001604051908101604052809291908181526020018280546107a4906131d5565b80156107f15780601f106107c6576101008083540402835291602001916107f1565b820191906000526020600020905b8154815290600101906020018083116107d457829003601f168201915b5050505050905080518686905014801561080c575060008151115b801561083457508051602082012060405161082a908890889061320f565b6040518091039020145b61088f5760405162461bcd60e51b815260206004820152602660248201527f4c7a4170703a20696e76616c696420736f757263652073656e64696e6720636f6044820152651b9d1c9858dd60d21b6064820152608401610751565b6109058787878080601f01602080910402602001604051908101604052809392919081815260200183838082843760009201919091525050604080516020601f8a018190048102820181019092528881528a935091508890889081908401838280828437600092019190915250611d5092505050565b50505050505050565b610916611dc9565b6040516307e0db1760e01b815261ffff821660048201527f00000000000000000000000000000000000000000000000000000000000000006001600160a01b0316906307e0db17906024015b600060405180830381600087803b15801561097c57600080fd5b505af1158015610990573d6000803e3d6000fd5b5050505050565b61099f611dc9565b61ffff909116600090815260036020526040902055565b6109be611dc9565b6040516310ddb13760e01b815261ffff821660048201527f00000000000000000000000000000000000000000000000000000000000000006001600160a01b0316906310ddb13790602401610962565b61ffff84166000908152600560205260408082209051610a2f90869061321f565b90815260408051602092819003830190206001600160401b03861660009081529252902054905080610aa35760405162461bcd60e51b815260206004820152601c60248201527f4f43504272696467653a206e6f2073746f726564206d657373616765000000006044820152606401610751565b815160208301208114610af85760405162461bcd60e51b815260206004820152601a60248201527f4f43504272696467653a20696e76616c6964207061796c6f61640000000000006044820152606401610751565b61ffff85166000908152600560205260408082209051610b1990879061321f565b9081526040805191829003602090810183206001600160401b03881660009081529082528290209390935584830151828201909152601882527723204272696467652e726576657274203d3e205f7479706560401b92820192909252610b829060ff8316611e23565b6000606060ff831660011480610b9b575060ff83166002145b15610c355760039150600085806020019051810190610bba9190613293565b50509150506003604051806080016040528083600001516001600160a01b0316815260200160016001600160a01b031681526020018360400151815260200183602001516001600160a01b03168152506000604051602001610c1e939291906133d2565b604051602081830303815290604052915050610cfc565b60021960ff841601610cfc5760029150600085806020019051810190610c5b9190613409565b505091505060026040518060c0016040528083600001516001600160a01b0316815260200160016001600160a01b031681526020018360400151815260200183602001516001600160a01b03168152602001604051806020016040528060008152508152602001604051806020016040528060008152508152506000604051602001610ce993929190613525565b6040516020818303038152906040529150505b610d3f88823330610d398d886040518060600160405280600081526020016000815260200160405180602001604052806000815250815250611e6c565b34611fa4565b7feb9ba8cc84a329dab55eab7aada61eb7e5b53d5fb7730e592226db106b10472288888887604051610d749493929190613565565b60405180910390a15050505050505050565b610d8e611dc9565b828114610dad5760405162461bcd60e51b81526004016107519061359e565b60005b8381101561099057828282818110610dca57610dca6135d1565b9050602002810190610ddc91906135e7565b60016000888886818110610df257610df26135d1565b9050602002016020810190610e0791906127d8565b61ffff168152602081019190915260400160002091610e27919083613688565b507ffa41487ad5d6728f0b19276fa1eddc16558578f5109fc39d2dc33c3230470dab858583818110610e5b57610e5b6135d1565b9050602002016020810190610e7091906127d8565b848484818110610e8257610e826135d1565b9050602002810190610e9491906135e7565b604051610ea39392919061376a565b60405180910390a180610eb58161379e565b915050610db0565b61ffff831660009081526001602052604081208054829190610ede906131d5565b80601f0160208091040260200160405190810160405280929190818152602001828054610f0a906131d5565b8015610f575780601f10610f2c57610100808354040283529160200191610f57565b820191906000526020600020905b815481529060010190602001808311610f3a57829003601f168201915b505050505090508383604051610f6e92919061320f565b60405180910390208180519060200120149150509392505050565b610f91611dc9565b6040516342d65a8d60e01b81526001600160a01b037f000000000000000000000000000000000000000000000000000000000000000016906342d65a8d90610fe19086908690869060040161376a565b600060405180830381600087803b158015610ffb57600080fd5b505af1158015610905573d6000803e3d6000fd5b600080606060ff871660011480611029575060ff87166002145b156110bc576040805160c0810182526001808252602080830182905282840182905260608301919091528251808401845260048152634e616d6560e01b81830152608083015282518084018452600681526514de5b589bdb60d21b8183015260a08301528651925191926110a5928b9285928c928c92016137b7565b60405160208183030381529060405291505061114d565b60021960ff88160161110557604080516080810182526001808252602080830182905282840182905260608301919091528651925191926110a5928b9285928c928c92016137f9565b60405162461bcd60e51b815260206004820152601d60248201527f4f43504272696467653a20696e76616c69642071756f746520747970650000006044820152606401610751565b600061115a898987611e6c565b60085460405163040a7bb160e41b81529192506001600160a01b037f000000000000000000000000000000000000000000000000000000000000000016916340a7bb10916111b6918d913091889160ff16908890600401613835565b6040805180830381865afa1580156111d2573d6000803e3d6000fd5b505050506040513d601f19601f820116820180604052508101906111f69190613889565b9350935050509550959350505050565b61120e611dc9565b81518351148015611220575080518351145b61123c5760405162461bcd60e51b81526004016107519061359e565b60005b83518110156112dd5781818151811061125a5761125a6135d1565b602002602001015160076000868481518110611278576112786135d1565b602002602001015161ffff1661ffff16815260200190815260200160002060008584815181106112aa576112aa6135d1565b602002602001015160ff1660ff1681526020019081526020016000208190555080806112d59061379e565b91505061123f565b50505050565b3330146113415760405162461bcd60e51b815260206004820152602660248201527f4e6f6e626c6f636b696e674c7a4170703a2063616c6c6572206d7573742062656044820152650204c7a4170760d41b6064820152608401610751565b6113b78686868080601f01602080910402602001604051908101604052809392919081815260200183838082843760009201919091525050604080516020601f89018190048102820181019092528781528993509150879087908190840183828082843760009201919091525061214992505050565b505050505050565b6113c7611dc9565b6113d16000612320565b565b600160205260009081526040902080546113ec906131d5565b80601f0160208091040260200160405190810160405280929190818152602001828054611418906131d5565b80156114655780601f1061143a57610100808354040283529160200191611465565b820191906000526020600020905b81548152906001019060200180831161144857829003601f168201915b505050505081565b805160405160009161148891879187918791906020016138ad565b60408051601f19818403018152828201909152601282527101190212924a223a29730b2323932b9b99d160751b602083015291506114c69030612370565b6114e96040518060600160405280602d8152602001613e27602d91398551612370565b61150f604051806060016040528060278152602001613d57602791398861ffff16611e23565b6115516040518060400160405280601e81526020017f23204252494447452e6f6d6e694d696e742829203d3e205f747970653a2000008152508660ff16611e23565b61090587828830610d398c8b89611e6c565b61ffff8116600090815260016020526040812080546060929190611586906131d5565b80601f01602080910402602001604051908101604052809291908181526020018280546115b2906131d5565b80156115ff5780601f106115d4576101008083540402835291602001916115ff565b820191906000526020600020905b8154815290600101906020018083116115e257829003601f168201915b5050505050905080516000036116575760405162461bcd60e51b815260206004820152601d60248201527f4c7a4170703a206e6f20747275737465642070617468207265636f72640000006044820152606401610751565b61167260006014835161166a91906138ed565b8391906123b5565b9392505050565b611681611dc9565b81813060405160200161169693929190613906565b60408051601f1981840301815291815261ffff85166000908152600160205220906116c1908261392c565b507f8c0400cfe2d1199b1a725c78960bcc2a344d869b80590d0f2bd005db15a572ce8383836040516116f59392919061376a565b60405180910390a1505050565b6006546001600160a01b031633146117685760405162461bcd60e51b815260206004820152602360248201527f4f43504272696467653a2063616c6c6572206973206e6f742074686520726f756044820152623a32b960e91b6064820152608401610751565b805160405160009161178391879187918791906020016139e5565b604051602081830303815290604052905061090587828830610d398c8b89611e6c565b6117ae611dc9565b600480546001600160a01b0319166001600160a01b0383169081179091556040519081527f5db758e995a17ec1ad84bdef7e8c3293a0bd6179bcce400dff5d4c3d87db726b9060200160405180910390a150565b61180a611dc9565b600680546001600160a01b0319166001600160a01b0392909216919091179055565b611834611dc9565b6040516332fb62e760e21b81526001600160a01b037f0000000000000000000000000000000000000000000000000000000000000000169063cbed8b9c906118889088908890889088908890600401613a1f565b600060405180830381600087803b1580156118a257600080fd5b505af11580156118b6573d6000803e3d6000fd5b505050505050505050565b61ffff861660009081526005602052604080822090516118e4908890889061320f565b90815260408051602092819003830190206001600160401b038716600090815292529020549050806119645760405162461bcd60e51b815260206004820152602360248201527f4e6f6e626c6f636b696e674c7a4170703a206e6f2073746f726564206d65737360448201526261676560e81b6064820152608401610751565b80838360405161197592919061320f565b6040518091039020146119d45760405162461bcd60e51b815260206004820152602160248201527f4e6f6e626c6f636b696e674c7a4170703a20696e76616c6964207061796c6f616044820152601960fa1b6064820152608401610751565b61ffff871660009081526005602052604080822090516119f7908990899061320f565b90815260408051602092819003830181206001600160401b038916600090815290845282902093909355601f88018290048202830182019052868252611a8f918991899089908190840183828082843760009201919091525050604080516020601f8a018190048102820181019092528881528a93509150889088908190840183828082843760009201919091525061214992505050565b7fc264d91f3adc5588250e1551f547752ca0cfa8f6b530d243b9f9f4cab10ea8e58787878785604051611ac6959493929190613a58565b60405180910390a150505050505050565b611adf611dc9565b60008111611b275760405162461bcd60e51b81526020600482015260156024820152744c7a4170703a20696e76616c6964206d696e47617360581b6044820152606401610751565b61ffff83811660008181526002602090815260408083209487168084529482529182902085905581519283528201929092529081018290527f9d5c7c0b934da8fefa9c7760c98383778a12dfbfc0c3b3106518f43fb9508ac0906060016116f5565b611b91611dc9565b61ffff83166000908152600160205260409020611baf828483613688565b507ffa41487ad5d6728f0b19276fa1eddc16558578f5109fc39d2dc33c3230470dab8383836040516116f59392919061376a565b611beb611dc9565b6001600160a01b038116611c505760405162461bcd60e51b815260206004820152602660248201527f4f776e61626c653a206e6577206f776e657220697320746865207a65726f206160448201526564647265737360d01b6064820152608401610751565b611c5981612320565b50565b604051633d7b2f6f60e21b815261ffff808616600483015284166024820152306044820152606481018290526060907f00000000000000000000000000000000000000000000000000000000000000006001600160a01b03169063f5ecbdbc90608401600060405180830381865afa158015611cdc573d6000803e3d6000fd5b505050506040513d6000823e601f3d908101601f19168201604052611d049190810190613a93565b95945050505050565b611c5981604051602401611d219190612e30565b60408051601f198184030181529190526020810180516001600160e01b031663104c13eb60e21b1790526124c2565b600080611db35a60966366ad5c8a60e01b89898989604051602401611d789493929190613ac7565b60408051601f198184030181529190526020810180516001600160e01b03166001600160e01b031990931692909217909152309291906124cb565b91509150816113b7576113b78686868685612555565b6000546001600160a01b031633146113d15760405162461bcd60e51b815260206004820181905260248201527f4f776e61626c653a2063616c6c6572206973206e6f7420746865206f776e65726044820152606401610751565b611e688282604051602401611e39929190613b05565b60408051601f198184030181529190526020810180516001600160e01b0316632d839cb360e21b1790526124c2565b5050565b60408082015160140151825161ffff861660009081526007602090815284822060ff881683529052928320546060938493929091611eaa9190613b27565b9050611ed2604051806060016040528060268152602001613d7e602691398861ffff16611e23565b611ef7604051806060016040528060238152602001613d34602391398760ff16611e23565b611f19604051806060016040528060258152602001613da46025913982611e23565b60008560200151118015611f3557506001600160a01b03821615155b15611f705760028186602001518760400151604051602001611f5a9493929190613b3a565b6040516020818303038152906040529250611f99565b604051600160f01b60208201526022810182905260420160405160208183030381529060405292505b509095945050505050565b61ffff861660009081526001602052604081208054611fc2906131d5565b80601f0160208091040260200160405190810160405280929190818152602001828054611fee906131d5565b801561203b5780601f106120105761010080835404028352916020019161203b565b820191906000526020600020905b81548152906001019060200180831161201e57829003601f168201915b5050505050905080516000036120ac5760405162461bcd60e51b815260206004820152603060248201527f4c7a4170703a2064657374696e6174696f6e20636861696e206973206e6f742060448201526f61207472757374656420736f7572636560801b6064820152608401610751565b6120b78787516125f2565b60405162c5803160e81b81526001600160a01b037f0000000000000000000000000000000000000000000000000000000000000000169063c580310090849061210e908b9086908c908c908c908c90600401613b78565b6000604051808303818588803b15801561212757600080fd5b505af115801561213b573d6000803e3d6000fd5b505050505050505050505050565b61217d6040518060400160405280601281526020017101190213934b233b29730b2323932b9b99d160751b81525030612370565b6000602082015190506121ab604051806060016040528060278152602001613e00602791398260ff16611e23565b60ff8116600114806121c0575060ff81166002145b156122a0576000806000848060200190518101906121de9190613293565b93509350935050612208604051806060016040528060378152602001613dc9603791398451612370565b60065460405163eb8092dd60e01b81526001600160a01b039091169063eb8092dd90612266908b908b908b908a908a907f0000000000000000000000000000000000000000000000000000000000000000908a908c90600401613bdf565b600060405180830381600087803b15801561228057600080fd5b505af1158015612294573d6000803e3d6000fd5b50505050505050610990565b60021960ff821601610990576000806000848060200190518101906122c59190613409565b60065460405163f1ff466b60e01b815293975091955093506001600160a01b0316915063f1ff466b90612306908b908b908b90899088908a90600401613c62565b600060405180830381600087803b15801561212757600080fd5b600080546001600160a01b038381166001600160a01b0319831681178455604051919092169283917f8be0079c531659141344cd1fd0a4f28419497f9722a3daafe3b4186f6b6457e09190a35050565b611e688282604051602401612386929190613cb7565b60408051601f198184030181529190526020810180516001600160e01b031663319af33360e01b1790526124c2565b6060816123c381601f613b27565b10156124025760405162461bcd60e51b815260206004820152600e60248201526d736c6963655f6f766572666c6f7760901b6044820152606401610751565b61240c8284613b27565b845110156124505760405162461bcd60e51b8152602060048201526011602482015270736c6963655f6f75744f66426f756e647360781b6044820152606401610751565b60608215801561246f57604051915060008252602082016040526124b9565b6040519150601f8416801560200281840101858101878315602002848b0101015b818310156124a8578051835260209283019201612490565b5050858452601f01601f1916604052505b50949350505050565b611c5981612668565b6000606060008060008661ffff166001600160401b038111156124f0576124f061281d565b6040519080825280601f01601f19166020018201604052801561251a576020820181803683370190505b50905060008087516020890160008d8df191503d92508683111561253c578692505b828152826000602083013e909890975095505050505050565b8180519060200120600560008761ffff1661ffff16815260200190815260200160002085604051612586919061321f565b9081526040805191829003602090810183206001600160401b0388166000908152915220919091557fe183f33de2837795525b4792ca4cd60535bd77c53b7e7030060bfcf5734d6b0c906125e39087908790879087908790613ce1565b60405180910390a15050505050565b61ffff82166000908152600360205260408120549081900361261357506127105b808211156126635760405162461bcd60e51b815260206004820181905260248201527f4c7a4170703a207061796c6f61642073697a6520697320746f6f206c617267656044820152606401610751565b505050565b60006a636f6e736f6c652e6c6f679050600080835160208501845afa505050565b803561ffff8116811461269b57600080fd5b919050565b60008083601f8401126126b257600080fd5b5081356001600160401b038111156126c957600080fd5b6020830191508360208285010111156126e157600080fd5b9250929050565b80356001600160401b038116811461269b57600080fd5b6000806000806000806080878903121561271857600080fd5b61272187612689565b955060208701356001600160401b038082111561273d57600080fd5b6127498a838b016126a0565b909750955085915061275d60408a016126e8565b9450606089013591508082111561277357600080fd5b5061278089828a016126a0565b979a9699509497509295939492505050565b60ff81168114611c5957600080fd5b600080604083850312156127b457600080fd5b6127bd83612689565b915060208301356127cd81612792565b809150509250929050565b6000602082840312156127ea57600080fd5b61167282612689565b6000806040838503121561280657600080fd5b61280f83612689565b946020939093013593505050565b634e487b7160e01b600052604160045260246000fd5b60405160c081016001600160401b03811182821017156128555761285561281d565b60405290565b604051608081016001600160401b03811182821017156128555761285561281d565b604051601f8201601f191681016001600160401b03811182821017156128a5576128a561281d565b604052919050565b60006001600160401b038211156128c6576128c661281d565b50601f01601f191660200190565b600082601f8301126128e557600080fd5b81356128f86128f3826128ad565b61287d565b81815284602083860101111561290d57600080fd5b816020850160208301376000918101602001919091529392505050565b6000806000806080858703121561294057600080fd5b61294985612689565b935060208501356001600160401b038082111561296557600080fd5b612971888389016128d4565b945061297f604088016126e8565b9350606087013591508082111561299557600080fd5b506129a2878288016128d4565b91505092959194509250565b60008083601f8401126129c057600080fd5b5081356001600160401b038111156129d757600080fd5b6020830191508360208260051b85010111156126e157600080fd5b60008060008060408587031215612a0857600080fd5b84356001600160401b0380821115612a1f57600080fd5b612a2b888389016129ae565b90965094506020870135915080821115612a4457600080fd5b50612a51878288016129ae565b95989497509550505050565b600080600060408486031215612a7257600080fd5b612a7b84612689565b925060208401356001600160401b03811115612a9657600080fd5b612aa2868287016126a0565b9497909650939450505050565b600060608284031215612ac157600080fd5b604051606081016001600160401b038282108183111715612ae457612ae461281d565b8160405282935084358352602085013560208401526040850135915080821115612b0d57600080fd5b50612b1a858286016128d4565b6040830152505092915050565b600080600080600060808688031215612b3f57600080fd5b612b4886612689565b94506020860135612b5881612792565b935060408601356001600160401b0380821115612b7457600080fd5b612b8089838a016126a0565b90955093506060880135915080821115612b9957600080fd5b50612ba688828901612aaf565b9150509295509295909350565b60006001600160401b03821115612bcc57612bcc61281d565b5060051b60200190565b600082601f830112612be757600080fd5b81356020612bf76128f383612bb3565b82815260059290921b84018101918181019086841115612c1657600080fd5b8286015b84811015612c3a578035612c2d81612792565b8352918301918301612c1a565b509695505050505050565b600082601f830112612c5657600080fd5b81356020612c666128f383612bb3565b82815260059290921b84018101918181019086841115612c8557600080fd5b8286015b84811015612c3a5780358352918301918301612c89565b600080600060608486031215612cb557600080fd5b83356001600160401b0380821115612ccc57600080fd5b818601915086601f830112612ce057600080fd5b81356020612cf06128f383612bb3565b82815260059290921b8401810191818101908a841115612d0f57600080fd5b948201945b83861015612d3457612d2586612689565b82529482019490820190612d14565b97505087013592505080821115612d4a57600080fd5b612d5687838801612bd6565b93506040860135915080821115612d6c57600080fd5b50612d7986828701612c45565b9150509250925092565b600080600060608486031215612d9857600080fd5b612da184612689565b925060208401356001600160401b03811115612dbc57600080fd5b612dc8868287016128d4565b925050612dd7604085016126e8565b90509250925092565b60005b83811015612dfb578181015183820152602001612de3565b50506000910152565b60008151808452612e1c816020860160208601612de0565b601f01601f19169290920160200192915050565b6020815260006116726020830184612e04565b6001600160a01b0381168114611c5957600080fd5b803561269b81612e43565b60008060008060008060c08789031215612e7c57600080fd5b612e8587612689565b95506020870135612e9581612e43565b94506040870135612ea581612792565b935060608701356001600160401b0380821115612ec157600080fd5b9088019060c0828b031215612ed557600080fd5b612edd612833565b612ee683612e58565b8152612ef460208401612e58565b602082015260408301356040820152612f0f60608401612e58565b6060820152608083013582811115612f2657600080fd5b612f328c8286016128d4565b60808301525060a083013582811115612f4a57600080fd5b612f568c8286016128d4565b60a08301525094506080890135915080821115612f7257600080fd5b612f7e8a838b016128d4565b935060a0890135915080821115612f9457600080fd5b50612fa189828a01612aaf565b9150509295509295509295565b60008060408385031215612fc157600080fd5b612fca83612689565b9150612fd860208401612689565b90509250929050565b600080600080600080868803610120811215612ffc57600080fd5b61300588612689565b9650602088013561301581612e43565b9550604088013561302581612792565b94506080605f198201121561303957600080fd5b5061304261285b565b606088013561305081612e43565b8152608088013561306081612e43565b602082015260a0880135604082015260c088013561307d81612e43565b6060820152925060e08701356001600160401b038082111561309e57600080fd5b6130aa8a838b016128d4565b9350610100890135915080821115612f9457600080fd5b6000602082840312156130d357600080fd5b813561167281612e43565b6000806000806000608086880312156130f657600080fd5b6130ff86612689565b945061310d60208701612689565b93506040860135925060608601356001600160401b0381111561312f57600080fd5b61313b888289016126a0565b969995985093965092949392505050565b60008060006060848603121561316157600080fd5b61316a84612689565b925061317860208501612689565b9150604084013590509250925092565b6000806000806080858703121561319e57600080fd5b6131a785612689565b93506131b560208601612689565b925060408501356131c581612e43565b9396929550929360600135925050565b600181811c908216806131e957607f821691505b60208210810361320957634e487b7160e01b600052602260045260246000fd5b50919050565b8183823760009101908152919050565b60008251613231818460208701612de0565b9190910192915050565b805161269b81612e43565b600082601f83011261325757600080fd5b81516132656128f3826128ad565b81815284602083860101111561327a57600080fd5b61328b826020830160208701612de0565b949350505050565b600080600080608085870312156132a957600080fd5b84516132b481612792565b60208601519094506001600160401b03808211156132d157600080fd5b9086019060c082890312156132e557600080fd5b6132ed612833565b6132f68361323b565b81526133046020840161323b565b60208201526040830151604082015261331f6060840161323b565b606082015260808301518281111561333657600080fd5b6133428a828601613246565b60808301525060a08301518281111561335a57600080fd5b6133668a828601613246565b60a083015250604088015190955091508082111561338357600080fd5b5061339087828801613246565b606096909601519497939650505050565b80516001600160a01b0390811683526020808301518216908401526040808301519084015260609182015116910152565b60ff841681526133e560208201846133a1565b60e060a0820181905260009082015260ff9190911660c08201526101000192915050565b60008060008084860360e081121561342057600080fd5b855161342b81612792565b94506080601f198201121561343f57600080fd5b5061344861285b565b602086015161345681612e43565b8152604086015161346681612e43565b602082015260608601516040820152608086015161348381612e43565b606082015260a08601519093506001600160401b038111156134a457600080fd5b6134b087828801613246565b60c096909601519497939650505050565b600060018060a01b038083511684528060208401511660208501526040830151604085015280606084015116606085015250608082015160c0608085015261350c60c0850182612e04565b905060a083015184820360a0860152611d048282612e04565b60ff8416815260806020820152600061354160808301856134c1565b8281036040840152600081526020810191505060ff83166060830152949350505050565b61ffff851681526080602082015260006135826080830186612e04565b6001600160401b03949094166040830152506060015292915050565b6020808252601990820152784f43504272696467653a20696e76616c696420706172616d7360381b604082015260600190565b634e487b7160e01b600052603260045260246000fd5b6000808335601e198436030181126135fe57600080fd5b8301803591506001600160401b0382111561361857600080fd5b6020019150368190038213156126e157600080fd5b601f82111561266357600081815260208120601f850160051c810160208610156136545750805b601f850160051c820191505b818110156113b757828155600101613660565b600019600383901b1c191660019190911b1790565b6001600160401b0383111561369f5761369f61281d565b6136b3836136ad83546131d5565b8361362d565b6000601f8411600181146136e157600085156136cf5750838201355b6136d98682613673565b845550610990565b600083815260209020601f19861690835b8281101561371257868501358255602094850194600190920191016136f2565b508682101561372f5760001960f88860031b161c19848701351681555b505060018560011b0183555050505050565b81835281816020850137506000828201602090810191909152601f909101601f19169091010190565b61ffff84168152604060208201526000611d04604083018486613741565b634e487b7160e01b600052601160045260246000fd5b6000600182016137b0576137b0613788565b5060010190565b60ff861681526080602082015260006137d360808301876134c1565b82810360408401526137e6818688613741565b9150508260608301529695505050505050565b60ff8616815261380c60208201866133a1565b60e060a0820152600061382360e083018587613741565b90508260c08301529695505050505050565b61ffff861681526001600160a01b038516602082015260a06040820181905260009061386390830186612e04565b8415156060840152828103608084015261387d8185612e04565b98975050505050505050565b6000806040838503121561389c57600080fd5b505080516020909101519092909150565b60ff851681526080602082015260006138c960808301866134c1565b82810360408401526138db8186612e04565b91505082606083015295945050505050565b8181038181111561390057613900613788565b92915050565b8284823760609190911b6bffffffffffffffffffffffff19169101908152601401919050565b81516001600160401b038111156139455761394561281d565b6139598161395384546131d5565b8461362d565b602080601f83116001811461398857600084156139765750858301515b6139808582613673565b8655506113b7565b600085815260208120601f198616915b828110156139b757888601518255948401946001909101908401613998565b50858210156139d55787850151600019600388901b60f8161c191681555b5050505050600190811b01905550565b60ff851681526139f860208201856133a1565b60e060a08201526000613a0e60e0830185612e04565b90508260c083015295945050505050565b600061ffff808816835280871660208401525084604083015260806060830152613a4d608083018486613741565b979650505050505050565b61ffff86168152608060208201526000613a76608083018688613741565b6001600160401b0394909416604083015250606001529392505050565b600060208284031215613aa557600080fd5b81516001600160401b03811115613abb57600080fd5b61328b84828501613246565b61ffff85168152608060208201526000613ae46080830186612e04565b6001600160401b03851660408401528281036060840152613a4d8185612e04565b604081526000613b186040830185612e04565b90508260208301529392505050565b8082018082111561390057613900613788565b61ffff60f01b8560f01b16815283600282015282602282015260008251613b68816042850160208701612de0565b9190910160420195945050505050565b61ffff8716815260c060208201526000613b9560c0830188612e04565b8281036040840152613ba78188612e04565b6001600160a01b0387811660608601528616608085015283810360a08501529050613bd28185612e04565b9998505050505050505050565b600061010061ffff8b168352806020840152613bfd8184018b612e04565b90506001600160401b038916604084015260ff881660608401528281036080840152613c2981886134c1565b6001600160a01b03871660a085015260c0840186905283810360e08501529050613c538185612e04565b9b9a5050505050505050505050565b600061012061ffff89168352806020840152613c8081840189612e04565b90506001600160401b0387166040840152613c9e60608401876133a1565b8460e0840152828103610100840152613bd28185612e04565b604081526000613cca6040830185612e04565b905060018060a01b03831660208301529392505050565b61ffff8616815260a060208201526000613cfe60a0830187612e04565b6001600160401b03861660408401528281036060840152613d1f8186612e04565b9050828103608084015261387d8185612e0456fe23204252494447452e5f7478506172616d4275696c646572203d3e205f747970653a2023204252494447452e6f6d6e694d696e742829203d3e205f72656d6f7465436861696e49643a2023204252494447452e5f7478506172616d4275696c646572203d3e205f636861696e49643a2023204252494447452e5f7478506172616d4275696c646572203d3e20746f74616c4761732023204272696467652e5f6e6f6e626c6f636b696e674c7a52656365697665203d3e205f6d696e74506172616d732e737263546f6b656e3a23204272696467652e5f6e6f6e626c6f636b696e674c7a52656365697665203d3e205f7479706523204252494447452e6f6d6e694d696e742829203d3e205f6d696e74506172616d732e737263546f6b656e3a20a26469706673582212205a8bfd7c4b0ddd716e6f414a0969e76ebe2fcc60994b309c652fb1f5b3cc93de64736f6c63430008110033",
  "devdoc": {
    "kind": "dev",
    "methods": {
      "omniMint(uint16,address,uint8,(address,address,uint256,address,string,string),bytes,(uint256,uint256,bytes))": {
        "details": "mint token on remote chain Requirements: - onlyRouter - _remoteChainId must be valid - _refundAddress must be valid - _type must be valid - _lzTxParams must be valid - _payload must be valid - _mintParams must be valid - _lzTxParams must be valid",
        "params": {
          "_lzTxParams": "layer zero tx params",
          "_mintParams": "mint params",
          "_payload": "user payload",
          "_refundAddress": "address to refund",
          "_remoteChainId": "remote chain id",
          "_type": "mint type"
        }
      },
      "owner()": {
        "details": "Returns the address of the current owner."
      },
      "quoteLayerZeroFee(uint16,uint8,bytes,(uint256,uint256,bytes))": {
        "details": "quote mint token on remote chain `quoteLayerZeroFee` is a helper function to estimate the fees for minting a token on a remote chain. `_type` is the type of minting operation to be performed on the remote chain. If `_type` is `TYPE_DEPLOY_AND_MINT`, then `_userPayload` is the payload to be sent to the remote chain. `_userPayload` is the payload to be sent to the remote chain. Requirements: - _remoteChainId must be valid - _type must be valid - _lzTxParams must be valid - _payload must be valid",
        "params": {
          "_lzTxParams": "layer zero tx params",
          "_remoteChainId": "remote chain id",
          "_type": "mint type",
          "_userPayload": "user payload"
        }
      },
      "renounceOwnership()": {
        "details": "Leaves the contract without owner. It will not be possible to call `onlyOwner` functions. Can only be called by the current owner. NOTE: Renouncing ownership will leave the contract without an owner, thereby disabling any functionality that is only available to the owner."
      },
      "transferOwnership(address)": {
        "details": "Transfers ownership of the contract to a new account (`newOwner`). Can only be called by the current owner."
      },
      "updateGasLookups(uint16[],uint8[],uint256[])": {
        "details": "update gas lookup `updateGasLookups` is a helper function to update the gas lookup table. `_chainIds` is the chain ids to be updated. `_types` is the types to be updated. The length of `_chainIds`, `_types` and `_gas` must be the same. Requirements: - onlyOwner - _chainIds, _types, _gas must be valid",
        "params": {
          "_chainIds": "remote chain ids",
          "_gas": "gas",
          "_types": "mint types"
        }
      },
      "updateRouter(address)": {
        "details": "update router `updateRouter` is a helper function to update the router contract. `_router` is the new router contract address. Requirements: - onlyOwner - _router must be valid",
        "params": {
          "_router": "router address"
        }
      }
    },
    "version": 1
  },
  "userdoc": {
    "kind": "user",
    "methods": {},
    "version": 1
  },
  "storageLayout": {
    "storage": [
      {
        "astId": 3533,
        "contract": "contracts/OCPBridge.sol:OCPBridge",
        "label": "_owner",
        "offset": 0,
        "slot": "0",
        "type": "t_address"
      },
      {
        "astId": 441,
        "contract": "contracts/OCPBridge.sol:OCPBridge",
        "label": "trustedRemoteLookup",
        "offset": 0,
        "slot": "1",
        "type": "t_mapping(t_uint16,t_bytes_storage)"
      },
      {
        "astId": 447,
        "contract": "contracts/OCPBridge.sol:OCPBridge",
        "label": "minDstGasLookup",
        "offset": 0,
        "slot": "2",
        "type": "t_mapping(t_uint16,t_mapping(t_uint16,t_uint256))"
      },
      {
        "astId": 451,
        "contract": "contracts/OCPBridge.sol:OCPBridge",
        "label": "payloadSizeLimitLookup",
        "offset": 0,
        "slot": "3",
        "type": "t_mapping(t_uint16,t_uint256)"
      },
      {
        "astId": 453,
        "contract": "contracts/OCPBridge.sol:OCPBridge",
        "label": "precrime",
        "offset": 0,
        "slot": "4",
        "type": "t_address"
      },
      {
        "astId": 996,
        "contract": "contracts/OCPBridge.sol:OCPBridge",
        "label": "failedMessages",
        "offset": 0,
        "slot": "5",
        "type": "t_mapping(t_uint16,t_mapping(t_bytes_memory_ptr,t_mapping(t_uint64,t_bytes32)))"
      },
      {
        "astId": 5208,
        "contract": "contracts/OCPBridge.sol:OCPBridge",
        "label": "router",
        "offset": 0,
        "slot": "6",
        "type": "t_contract(IOCPRouter)7654"
      },
      {
        "astId": 5214,
        "contract": "contracts/OCPBridge.sol:OCPBridge",
        "label": "gasLookup",
        "offset": 0,
        "slot": "7",
        "type": "t_mapping(t_uint16,t_mapping(t_uint8,t_uint256))"
      },
      {
        "astId": 5216,
        "contract": "contracts/OCPBridge.sol:OCPBridge",
        "label": "useLzToken",
        "offset": 0,
        "slot": "8",
        "type": "t_bool"
      }
    ],
    "types": {
      "t_address": {
        "encoding": "inplace",
        "label": "address",
        "numberOfBytes": "20"
      },
      "t_bool": {
        "encoding": "inplace",
        "label": "bool",
        "numberOfBytes": "1"
      },
      "t_bytes32": {
        "encoding": "inplace",
        "label": "bytes32",
        "numberOfBytes": "32"
      },
      "t_bytes_memory_ptr": {
        "encoding": "bytes",
        "label": "bytes",
        "numberOfBytes": "32"
      },
      "t_bytes_storage": {
        "encoding": "bytes",
        "label": "bytes",
        "numberOfBytes": "32"
      },
      "t_contract(IOCPRouter)7654": {
        "encoding": "inplace",
        "label": "contract IOCPRouter",
        "numberOfBytes": "20"
      },
      "t_mapping(t_bytes_memory_ptr,t_mapping(t_uint64,t_bytes32))": {
        "encoding": "mapping",
        "key": "t_bytes_memory_ptr",
        "label": "mapping(bytes => mapping(uint64 => bytes32))",
        "numberOfBytes": "32",
        "value": "t_mapping(t_uint64,t_bytes32)"
      },
      "t_mapping(t_uint16,t_bytes_storage)": {
        "encoding": "mapping",
        "key": "t_uint16",
        "label": "mapping(uint16 => bytes)",
        "numberOfBytes": "32",
        "value": "t_bytes_storage"
      },
      "t_mapping(t_uint16,t_mapping(t_bytes_memory_ptr,t_mapping(t_uint64,t_bytes32)))": {
        "encoding": "mapping",
        "key": "t_uint16",
        "label": "mapping(uint16 => mapping(bytes => mapping(uint64 => bytes32)))",
        "numberOfBytes": "32",
        "value": "t_mapping(t_bytes_memory_ptr,t_mapping(t_uint64,t_bytes32))"
      },
      "t_mapping(t_uint16,t_mapping(t_uint16,t_uint256))": {
        "encoding": "mapping",
        "key": "t_uint16",
        "label": "mapping(uint16 => mapping(uint16 => uint256))",
        "numberOfBytes": "32",
        "value": "t_mapping(t_uint16,t_uint256)"
      },
      "t_mapping(t_uint16,t_mapping(t_uint8,t_uint256))": {
        "encoding": "mapping",
        "key": "t_uint16",
        "label": "mapping(uint16 => mapping(uint8 => uint256))",
        "numberOfBytes": "32",
        "value": "t_mapping(t_uint8,t_uint256)"
      },
      "t_mapping(t_uint16,t_uint256)": {
        "encoding": "mapping",
        "key": "t_uint16",
        "label": "mapping(uint16 => uint256)",
        "numberOfBytes": "32",
        "value": "t_uint256"
      },
      "t_mapping(t_uint64,t_bytes32)": {
        "encoding": "mapping",
        "key": "t_uint64",
        "label": "mapping(uint64 => bytes32)",
        "numberOfBytes": "32",
        "value": "t_bytes32"
      },
      "t_mapping(t_uint8,t_uint256)": {
        "encoding": "mapping",
        "key": "t_uint8",
        "label": "mapping(uint8 => uint256)",
        "numberOfBytes": "32",
        "value": "t_uint256"
      },
      "t_uint16": {
        "encoding": "inplace",
        "label": "uint16",
        "numberOfBytes": "2"
      },
      "t_uint256": {
        "encoding": "inplace",
        "label": "uint256",
        "numberOfBytes": "32"
      },
      "t_uint64": {
        "encoding": "inplace",
        "label": "uint64",
        "numberOfBytes": "8"
      },
      "t_uint8": {
        "encoding": "inplace",
        "label": "uint8",
        "numberOfBytes": "1"
      }
    }
  }
}