{
  "address": "0x98dbee8d9604BbE004B70224271F4c58a95B704c",
  "abi": [
    {
      "inputs": [
        {
          "internalType": "address",
          "name": "_token",
          "type": "address"
        }
      ],
      "name": "createPool",
      "outputs": [
        {
          "internalType": "address",
          "name": "pool",
          "type": "address"
        }
      ],
      "stateMutability": "nonpayable",
      "type": "function"
    },
    {
      "inputs": [
        {
          "internalType": "address",
          "name": "",
          "type": "address"
        }
      ],
      "name": "getPool",
      "outputs": [
        {
          "internalType": "address",
          "name": "",
          "type": "address"
        }
      ],
      "stateMutability": "view",
      "type": "function"
    }
  ],
  "transactionHash": "0x54e0268e36c2d6e7832da9b484395888c761d7623bf158610316f9c5a3aeb2ee",
  "args": [],
  "numDeployments": 1,
  "solcInputHash": "36b0db6fb45f8edf47de0c113adff233",
  "bytecode": "0x608060405234801561001057600080fd5b506103d4806100206000396000f3fe608060405234801561001057600080fd5b50600436106100365760003560e01c80639049f9d21461003b578063bbe4f6db1461006a575b600080fd5b61004e6100493660046101de565b610093565b6040516001600160a01b03909116815260200160405180910390f35b61004e6100783660046101de565b6000602081905290815260409020546001600160a01b031681565b6001600160a01b038181166000908152602081905260408120549091161561010d5760405162461bcd60e51b815260206004820152602360248201527f4f4350506f6f6c466163746f72793a20506f6f6c20616c72656164792065786960448201526273747360e81b606482015260840160405180910390fd5b6040516e13d0d417d0d49150551157d413d3d3608a1b60208201526bffffffffffffffffffffffff19606084901b16602f820152600090604301604051602081830303815290604052805190602001208360405161016a906101d1565b6001600160a01b0390911681526020018190604051809103906000f590508015801561019a573d6000803e3d6000fd5b506001600160a01b03938416600090815260208190526040902080546001600160a01b031916948216949094179093555090919050565b6101908061020f83390190565b6000602082840312156101f057600080fd5b81356001600160a01b038116811461020757600080fd5b939250505056fe608060405234801561001057600080fd5b5060405161019038038061019083398101604081905261002f91610054565b600080546001600160a01b0319166001600160a01b0392909216919091179055610084565b60006020828403121561006657600080fd5b81516001600160a01b038116811461007d57600080fd5b9392505050565b60fe806100926000396000f3fe6080604052348015600f57600080fd5b5060043610603c5760003560e01c8063f3fef3a3146041578063f887ea40146052578063fc0c546a146080575b600080fd5b6050604c3660046092565b5050565b005b6001546064906001600160a01b031681565b6040516001600160a01b03909116815260200160405180910390f35b6000546064906001600160a01b031681565b6000806040838503121560a457600080fd5b82356001600160a01b038116811460ba57600080fd5b94602093909301359350505056fea2646970667358221220a62891e5554c1dbdfabda6fd4908d1e0b7b827b3d0711d99bb830e80fa8d424864736f6c63430008110033a264697066735822122059171bbd7a6445a75458033c163dcf5272710b7bef0ff546b77b9321255f8d4f64736f6c63430008110033",
  "devdoc": {
    "kind": "dev",
    "methods": {},
    "version": 1
  },
  "userdoc": {
    "kind": "user",
    "methods": {},
    "version": 1
  },
  "storageLayout": {
    "storage": [
      {
        "astId": 6380,
        "contract": "contracts/OCPoolFactory.sol:OCPoolFactory",
        "label": "getPool",
        "offset": 0,
        "slot": "0",
        "type": "t_mapping(t_address,t_address)"
      }
    ],
    "types": {
      "t_address": {
        "encoding": "inplace",
        "label": "address",
        "numberOfBytes": "20"
      },
      "t_mapping(t_address,t_address)": {
        "encoding": "mapping",
        "key": "t_address",
        "label": "mapping(address => address)",
        "numberOfBytes": "32",
        "value": "t_address"
      }
    }
  }
}