{
  "address": "0xE5FEA9A2286bb3A93D746A4653D583760f806B12",
  "abi": [
    {
      "inputs": [],
      "stateMutability": "nonpayable",
      "type": "constructor"
    },
    {
      "anonymous": false,
      "inputs": [
        {
          "indexed": true,
          "internalType": "address",
          "name": "srcToken",
          "type": "address"
        },
        {
          "indexed": true,
          "internalType": "uint16",
          "name": "srcChainId",
          "type": "uint16"
        },
        {
          "indexed": true,
          "internalType": "address",
          "name": "token",
          "type": "address"
        }
      ],
      "name": "TokenCreated",
      "type": "event"
    },
    {
      "inputs": [
        {
          "internalType": "address[]",
          "name": "_omniTokens",
          "type": "address[]"
        },
        {
          "internalType": "uint16",
          "name": "_srcChainId",
          "type": "uint16"
        },
        {
          "internalType": "address[]",
          "name": "_srcTokens",
          "type": "address[]"
        }
      ],
      "name": "approveSourceTokens",
      "outputs": [],
      "stateMutability": "nonpayable",
      "type": "function"
    },
    {
      "inputs": [
        {
          "components": [
            {
              "internalType": "address",
              "name": "srcToken",
              "type": "address"
            },
            {
              "internalType": "uint256",
              "name": "amount",
              "type": "uint256"
            },
            {
              "internalType": "address",
              "name": "to",
              "type": "address"
            },
            {
              "internalType": "string",
              "name": "name",
              "type": "string"
            },
            {
              "internalType": "string",
              "name": "symbol",
              "type": "string"
            }
          ],
          "internalType": "struct Structs.MintObj",
          "name": "_mintParams",
          "type": "tuple"
        },
        {
          "internalType": "address",
          "name": "_lzEndpoint",
          "type": "address"
        },
        {
          "internalType": "uint16",
          "name": "_srcChainId",
          "type": "uint16"
        }
      ],
      "name": "createOmniToken",
      "outputs": [
        {
          "internalType": "address",
          "name": "token",
          "type": "address"
        }
      ],
      "stateMutability": "nonpayable",
      "type": "function"
    },
    {
      "inputs": [
        {
          "internalType": "address",
          "name": "_omniToken",
          "type": "address"
        },
        {
          "internalType": "uint256",
          "name": "_amount",
          "type": "uint256"
        },
        {
          "internalType": "address",
          "name": "_from",
          "type": "address"
        }
      ],
      "name": "omniBurn",
      "outputs": [],
      "stateMutability": "nonpayable",
      "type": "function"
    },
    {
      "inputs": [
        {
          "internalType": "address",
          "name": "_srcToken",
          "type": "address"
        },
        {
          "internalType": "uint16",
          "name": "_dstChainId",
          "type": "uint16"
        },
        {
          "internalType": "uint256",
          "name": "_amount",
          "type": "uint256"
        },
        {
          "internalType": "address",
          "name": "_to",
          "type": "address"
        }
      ],
      "name": "omniMint",
      "outputs": [
        {
          "internalType": "address",
          "name": "token",
          "type": "address"
        }
      ],
      "stateMutability": "nonpayable",
      "type": "function"
    },
    {
      "inputs": [
        {
          "internalType": "address",
          "name": "",
          "type": "address"
        },
        {
          "internalType": "uint16",
          "name": "",
          "type": "uint16"
        }
      ],
      "name": "omniTokens",
      "outputs": [
        {
          "internalType": "address",
          "name": "",
          "type": "address"
        }
      ],
      "stateMutability": "view",
      "type": "function"
    },
    {
      "inputs": [
        {
          "internalType": "address[]",
          "name": "_srcTokens",
          "type": "address[]"
        },
        {
          "internalType": "uint16[]",
          "name": "_srcChainIds",
          "type": "uint16[]"
        },
        {
          "internalType": "address",
          "name": "_omniToken",
          "type": "address"
        }
      ],
      "name": "requestAddSourceTokens",
      "outputs": [],
      "stateMutability": "nonpayable",
      "type": "function"
    },
    {
      "inputs": [],
      "name": "router",
      "outputs": [
        {
          "internalType": "address",
          "name": "",
          "type": "address"
        }
      ],
      "stateMutability": "view",
      "type": "function"
    },
    {
      "inputs": [
        {
          "internalType": "address",
          "name": "",
          "type": "address"
        },
        {
          "internalType": "uint16",
          "name": "",
          "type": "uint16"
        }
      ],
      "name": "sourceTokens",
      "outputs": [
        {
          "internalType": "address",
          "name": "",
          "type": "address"
        }
      ],
      "stateMutability": "view",
      "type": "function"
    },
    {
      "inputs": [],
      "name": "timeLock",
      "outputs": [
        {
          "internalType": "address",
          "name": "",
          "type": "address"
        }
      ],
      "stateMutability": "view",
      "type": "function"
    },
    {
      "inputs": [
        {
          "internalType": "address",
          "name": "_router",
          "type": "address"
        }
      ],
      "name": "updateRouter",
      "outputs": [],
      "stateMutability": "nonpayable",
      "type": "function"
    },
    {
      "inputs": [
        {
          "internalType": "address",
          "name": "_timeLock",
          "type": "address"
        }
      ],
      "name": "updateTimeLock",
      "outputs": [],
      "stateMutability": "nonpayable",
      "type": "function"
    }
  ],
  "transactionHash": "0x3693083283bb619ebb7e8eaa34d160788df4e35f6b257ec26b11ae73b607b361",
  "args": [],
  "numDeployments": 1,
  "solcInputHash": "36b0db6fb45f8edf47de0c113adff233",
  "bytecode": "0x608060405234801561001057600080fd5b50600180546001600160a01b03191633179055614754806100326000396000f3fe60806040523480156200001157600080fd5b5060043610620000b75760003560e01c8063c851cc32116200007a578063c851cc32146200016d578063d085835a1462000184578063d157fcea1462000198578063d2ede8df14620001af578063eb56f96014620001e6578063f887ea4014620001fd57600080fd5b80631d64ee4e14620000bc5780632a530ad014620000ef5780633584c86e14620001085780634f077eea146200011f578063a22304ed1462000156575b600080fd5b620000d3620000cd366004620007dc565b62000211565b6040516001600160a01b03909116815260200160405180910390f35b62000106620001003660046200091d565b6200037e565b005b6200010662000119366004620009a7565b620004b0565b620000d362000130366004620009c5565b60026020908152600092835260408084209091529082529020546001600160a01b031681565b6200010662000167366004620009fd565b620004ff565b620001066200017e366004620009a7565b62000531565b600154620000d3906001600160a01b031681565b62000106620001a936600462000a35565b62000580565b620000d3620001c0366004620009c5565b60036020908152600092835260408084209091529082529020546001600160a01b031681565b620000d3620001f736600462000ac2565b6200068e565b600054620000d3906001600160a01b031681565b82516001600160a01b03908116600090815260026020908152604080832061ffff86168452909152902054168062000377578351604051600091620002709160200160609190911b6bffffffffffffffffffffffff1916815260140190565b60405160208183030381529060405280519060200120856060015186608001518760200151886040015188604051620002a990620006c7565b620002b995949392919062000b5e565b8190604051809103906000f5905080158015620002da573d6000803e3d6000fd5b5085516001600160a01b03908116600090815260026020908152604080832061ffff891680855290835281842080548688166001600160a01b031991821681179092558c5182875260038652848720848852909552838620805495881695909116949094179093558a5191519597508796509194919316917f6792e3997f0d21e021aae79214c14b0e0c997897f87804942fde7f7ce42a6ea791a4505b9392505050565b6001546001600160a01b03163314620003b45760405162461bcd60e51b8152600401620003ab9062000baf565b60405180910390fd5b838214620003d65760405162461bcd60e51b8152600401620003ab9062000bfa565b60005b84811015620004a8578160036000888885818110620003fc57620003fc62000c31565b9050602002016020810190620004139190620009a7565b6001600160a01b03166001600160a01b0316815260200190815260200160002060008686858181106200044a576200044a62000c31565b905060200201602081019062000461919062000c47565b61ffff168152602081019190915260400160002080546001600160a01b0319166001600160a01b0392909216919091179055806200049f8162000c65565b915050620003d9565b505050505050565b6001546001600160a01b03163314620004dd5760405162461bcd60e51b8152600401620003ab9062000baf565b600180546001600160a01b0319166001600160a01b0392909216919091179055565b6000546001600160a01b031633146200052c5760405162461bcd60e51b8152600401620003ab9062000c8d565b505050565b6001546001600160a01b031633146200055e5760405162461bcd60e51b8152600401620003ab9062000baf565b600080546001600160a01b0319166001600160a01b0392909216919091179055565b6001546001600160a01b03163314620005ad5760405162461bcd60e51b8152600401620003ab9062000baf565b838114620005cf5760405162461bcd60e51b8152600401620003ab9062000bfa565b60005b84811015620004a857828282818110620005f057620005f062000c31565b9050602002016020810190620006079190620009a7565b6003600088888581811062000620576200062062000c31565b9050602002016020810190620006379190620009a7565b6001600160a01b0390811682526020808301939093526040918201600090812061ffff8a168252909352912080546001600160a01b0319169290911691909117905580620006858162000c65565b915050620005d2565b600080546001600160a01b03163314620006bc5760405162461bcd60e51b8152600401620003ab9062000c8d565b506000949350505050565b613a488062000cd783390190565b634e487b7160e01b600052604160045260246000fd5b60405160a0810167ffffffffffffffff81118282101715620007115762000711620006d5565b60405290565b80356001600160a01b03811681146200072f57600080fd5b919050565b600082601f8301126200074657600080fd5b813567ffffffffffffffff80821115620007645762000764620006d5565b604051601f8301601f19908116603f011681019082821181831017156200078f576200078f620006d5565b81604052838152866020858801011115620007a957600080fd5b836020870160208301376000602085830101528094505050505092915050565b803561ffff811681146200072f57600080fd5b600080600060608486031215620007f257600080fd5b833567ffffffffffffffff808211156200080b57600080fd5b9085019060a082880312156200082057600080fd5b6200082a620006eb565b620008358362000717565b8152602083013560208201526200084f6040840162000717565b60408201526060830135828111156200086757600080fd5b620008758982860162000734565b6060830152506080830135828111156200088e57600080fd5b6200089c8982860162000734565b6080830152509450620008b59150506020850162000717565b9150620008c560408501620007c9565b90509250925092565b60008083601f840112620008e157600080fd5b50813567ffffffffffffffff811115620008fa57600080fd5b6020830191508360208260051b85010111156200091657600080fd5b9250929050565b6000806000806000606086880312156200093657600080fd5b853567ffffffffffffffff808211156200094f57600080fd5b6200095d89838a01620008ce565b909750955060208801359150808211156200097757600080fd5b506200098688828901620008ce565b90945092506200099b90506040870162000717565b90509295509295909350565b600060208284031215620009ba57600080fd5b620003778262000717565b60008060408385031215620009d957600080fd5b620009e48362000717565b9150620009f460208401620007c9565b90509250929050565b60008060006060848603121562000a1357600080fd5b62000a1e8462000717565b925060208401359150620008c56040850162000717565b60008060008060006060868803121562000a4e57600080fd5b853567ffffffffffffffff8082111562000a6757600080fd5b62000a7589838a01620008ce565b909750955085915062000a8b60208901620007c9565b9450604088013591508082111562000aa257600080fd5b5062000ab188828901620008ce565b969995985093965092949392505050565b6000806000806080858703121562000ad957600080fd5b62000ae48562000717565b935062000af460208601620007c9565b92506040850135915062000b0b6060860162000717565b905092959194509250565b6000815180845260005b8181101562000b3e5760208185018101518683018201520162000b20565b506000602082860101526020601f19601f83011685010191505092915050565b60a08152600062000b7360a083018862000b16565b828103602084015262000b87818862000b16565b604084019690965250506001600160a01b039283166060820152911660809091015292915050565b6020808252602b908201527f4f4350546f6b656e4d616e616765723a2063616c6c6572206973206e6f74207460408201526a68652074696d656c6f636b60a81b606082015260800190565b6020808252601e908201527f4f4350546f6b656e4d616e616765723a20696e76616c696420696e7075740000604082015260600190565b634e487b7160e01b600052603260045260246000fd5b60006020828403121562000c5a57600080fd5b6200037782620007c9565b60006001820162000c8657634e487b7160e01b600052601160045260246000fd5b5060010190565b60208082526029908201527f4f4350546f6b656e4d616e616765723a2063616c6c6572206973206e6f7420746040820152683432903937baba32b960b91b60608201526080019056fe60a06040523480156200001157600080fd5b5060405162003a4838038062003a48833981016040819052620000349162000299565b848482828282808062000047336200009a565b6001600160a01b031660805250600a9050620000648382620003c0565b50600b620000738282620003c0565b50505050505060008311156200008f576200008f8284620000ea565b5050505050620004b4565b600080546001600160a01b038381166001600160a01b0319831681178455604051919092169283917f8be0079c531659141344cd1fd0a4f28419497f9722a3daafe3b4186f6b6457e09190a35050565b6001600160a01b038216620001455760405162461bcd60e51b815260206004820152601f60248201527f45524332303a206d696e7420746f20746865207a65726f206164647265737300604482015260640160405180910390fd5b80600960008282546200015991906200048c565b90915550506001600160a01b0382166000818152600760209081526040808320805486019055518481527fddf252ad1be2c89b69c2b068fc378daa952ba7f163c4a11628f55a4df523b3ef910160405180910390a35050565b505050565b634e487b7160e01b600052604160045260246000fd5b600082601f830112620001df57600080fd5b81516001600160401b0380821115620001fc57620001fc620001b7565b604051601f8301601f19908116603f01168101908282118183101715620002275762000227620001b7565b816040528381526020925086838588010111156200024457600080fd5b600091505b8382101562000268578582018301518183018401529082019062000249565b600093810190920192909252949350505050565b80516001600160a01b03811681146200029457600080fd5b919050565b600080600080600060a08688031215620002b257600080fd5b85516001600160401b0380821115620002ca57600080fd5b620002d889838a01620001cd565b96506020880151915080821115620002ef57600080fd5b50620002fe88828901620001cd565b9450506040860151925062000316606087016200027c565b915062000326608087016200027c565b90509295509295909350565b600181811c908216806200034757607f821691505b6020821081036200036857634e487b7160e01b600052602260045260246000fd5b50919050565b601f821115620001b257600081815260208120601f850160051c81016020861015620003975750805b601f850160051c820191505b81811015620003b857828155600101620003a3565b505050505050565b81516001600160401b03811115620003dc57620003dc620001b7565b620003f481620003ed845462000332565b846200036e565b602080601f8311600181146200042c5760008415620004135750858301515b600019600386901b1c1916600185901b178555620003b8565b600085815260208120601f198616915b828110156200045d578886015182559484019460019091019084016200043c565b50858210156200047c5787850151600019600388901b60f8161c191681555b5050505050600190811b01905550565b80820180821115620004ae57634e487b7160e01b600052601160045260246000fd5b92915050565b6080516135406200050860003960008181610752015281816108cd01528181610bec01528181610cac01528181610d4a01528181610efd01528181611448015281816118f301526124e801526135406000f3fe6080604052600436106102875760003560e01c80637533d7881161015a578063baf3292d116100c1578063eab45d9c1161007a578063eab45d9c1461081d578063eb8d72b71461083d578063ed629c5c1461085d578063f2fde38b14610877578063f5ecbdbc14610897578063fc0c546a146108b757600080fd5b8063baf3292d14610774578063c446183414610794578063cbed8b9c146107aa578063d1deba1f146107ca578063dd62ed3e146107dd578063df2a5b3b146107fd57600080fd5b80639dc29fac116101135780639dc29fac146106a05780639f38369a146106c0578063a457c2d7146106e0578063a6c3d16514610700578063a9059cbb14610720578063b353aaa71461074057600080fd5b80637533d788146105cc5780638cfd8f5c146105ec5780638da5cb5b146106245780639358928b14610656578063950c8a741461066b57806395d89b411461068b57600080fd5b806339509351116101fe5780634c42899a116101b75780634c42899a146104d757806351905636146104ff5780635b8c41e61461051257806366ad5c8a1461056157806370a0823114610581578063715018a6146105b757600080fd5b806339509351146104155780633d8b38f6146104355780633f1f4fa41461045557806340c10f191461048257806342d65a8d146104a257806344770515146104c257600080fd5b80630df37483116102505780630df374831461034557806310ddb1371461036557806318160ddd1461038557806323b872dd146103a45780632a205e3d146103c4578063313ce567146103f957600080fd5b80621d35671461028c57806301ffc9a7146102ae57806306fdde03146102e357806307e0db1714610305578063095ea7b314610325575b600080fd5b34801561029857600080fd5b506102ac6102a7366004612886565b6108ca565b005b3480156102ba57600080fd5b506102ce6102c936600461291b565b610afb565b60405190151581526020015b60405180910390f35b3480156102ef57600080fd5b506102f8610b39565b6040516102da9190612995565b34801561031157600080fd5b506102ac6103203660046129a8565b610bcb565b34801561033157600080fd5b506102ce6103403660046129da565b610c54565b34801561035157600080fd5b506102ac610360366004612a06565b610c6c565b34801561037157600080fd5b506102ac6103803660046129a8565b610c8b565b34801561039157600080fd5b506009545b6040519081526020016102da565b3480156103b057600080fd5b506102ce6103bf366004612a24565b610ce3565b3480156103d057600080fd5b506103e46103df366004612a75565b610d07565b604080519283526020830191909152016102da565b34801561040557600080fd5b50604051601281526020016102da565b34801561042157600080fd5b506102ce6104303660046129da565b610dda565b34801561044157600080fd5b506102ce610450366004612b14565b610dfc565b34801561046157600080fd5b506103966104703660046129a8565b60036020526000908152604090205481565b34801561048e57600080fd5b506102ac61049d3660046129da565b610ec8565b3480156104ae57600080fd5b506102ac6104bd366004612b14565b610ede565b3480156104ce57600080fd5b50610396600081565b3480156104e357600080fd5b506104ec600081565b60405161ffff90911681526020016102da565b6102ac61050d366004612b68565b610f64565b34801561051e57600080fd5b5061039661052d366004612c9e565b6005602090815260009384526040808520845180860184018051928152908401958401959095209452929052825290205481565b34801561056d57600080fd5b506102ac61057c366004612886565b610fe9565b34801561058d57600080fd5b5061039661059c366004612d40565b6001600160a01b031660009081526007602052604090205490565b3480156105c357600080fd5b506102ac6110c5565b3480156105d857600080fd5b506102f86105e73660046129a8565b6110d9565b3480156105f857600080fd5b50610396610607366004612d5d565b600260209081526000928352604080842090915290825290205481565b34801561063057600080fd5b506000546001600160a01b03165b6040516001600160a01b0390911681526020016102da565b34801561066257600080fd5b50610396611173565b34801561067757600080fd5b5060045461063e906001600160a01b031681565b34801561069757600080fd5b506102f8611183565b3480156106ac57600080fd5b506102ac6106bb3660046129da565b611192565b3480156106cc57600080fd5b506102f86106db3660046129a8565b6111a4565b3480156106ec57600080fd5b506102ce6106fb3660046129da565b6112ba565b34801561070c57600080fd5b506102ac61071b366004612b14565b611335565b34801561072c57600080fd5b506102ce61073b3660046129da565b6113be565b34801561074c57600080fd5b5061063e7f000000000000000000000000000000000000000000000000000000000000000081565b34801561078057600080fd5b506102ac61078f366004612d40565b6113cc565b3480156107a057600080fd5b5061039661271081565b3480156107b657600080fd5b506102ac6107c5366004612d96565b611429565b6102ac6107d8366004612886565b6114b3565b3480156107e957600080fd5b506103966107f8366004612e08565b6116c9565b34801561080957600080fd5b506102ac610818366004612e36565b6116f4565b34801561082957600080fd5b506102ac610838366004612e66565b6117a6565b34801561084957600080fd5b506102ac610858366004612b14565b6117ef565b34801561086957600080fd5b506006546102ce9060ff1681565b34801561088357600080fd5b506102ac610892366004612d40565b611849565b3480156108a357600080fd5b506102f86108b2366004612e81565b6118c2565b3480156108c357600080fd5b503061063e565b337f00000000000000000000000000000000000000000000000000000000000000006001600160a01b0316146109475760405162461bcd60e51b815260206004820152601e60248201527f4c7a4170703a20696e76616c696420656e64706f696e742063616c6c6572000060448201526064015b60405180910390fd5b61ffff86166000908152600160205260408120805461096590612ed2565b80601f016020809104026020016040519081016040528092919081815260200182805461099190612ed2565b80156109de5780601f106109b3576101008083540402835291602001916109de565b820191906000526020600020905b8154815290600101906020018083116109c157829003601f168201915b505050505090508051868690501480156109f9575060008151115b8015610a21575080516020820120604051610a179088908890612f0c565b6040518091039020145b610a7c5760405162461bcd60e51b815260206004820152602660248201527f4c7a4170703a20696e76616c696420736f757263652073656e64696e6720636f6044820152651b9d1c9858dd60d21b606482015260840161093e565b610af28787878080601f01602080910402602001604051908101604052809392919081815260200183838082843760009201919091525050604080516020601f8a018190048102820181019092528881528a93509150889088908190840183828082843760009201919091525061197392505050565b50505050505050565b60006001600160e01b031982161580610b2457506001600160e01b031982166336372b0760e01b145b80610b335750610b33826119ec565b92915050565b6060600a8054610b4890612ed2565b80601f0160208091040260200160405190810160405280929190818152602001828054610b7490612ed2565b8015610bc15780601f10610b9657610100808354040283529160200191610bc1565b820191906000526020600020905b815481529060010190602001808311610ba457829003601f168201915b5050505050905090565b610bd3611a21565b6040516307e0db1760e01b815261ffff821660048201527f00000000000000000000000000000000000000000000000000000000000000006001600160a01b0316906307e0db17906024015b600060405180830381600087803b158015610c3957600080fd5b505af1158015610c4d573d6000803e3d6000fd5b5050505050565b600033610c62818585611a7b565b5060019392505050565b610c74611a21565b61ffff909116600090815260036020526040902055565b610c93611a21565b6040516310ddb13760e01b815261ffff821660048201527f00000000000000000000000000000000000000000000000000000000000000006001600160a01b0316906310ddb13790602401610c1f565b600033610cf1858285611ba0565b610cfc858585611c1a565b506001949350505050565b600080600080898989604051602001610d239493929190612f45565b60408051601f198184030181529082905263040a7bb160e41b825291506001600160a01b037f000000000000000000000000000000000000000000000000000000000000000016906340a7bb1090610d89908d90309086908c908c908c90600401612f74565b6040805180830381865afa158015610da5573d6000803e3d6000fd5b505050506040513d601f19601f82011682018060405250810190610dc99190612fca565b925092505097509795505050505050565b600033610c62818585610ded83836116c9565b610df79190613004565b611a7b565b61ffff831660009081526001602052604081208054829190610e1d90612ed2565b80601f0160208091040260200160405190810160405280929190818152602001828054610e4990612ed2565b8015610e965780601f10610e6b57610100808354040283529160200191610e96565b820191906000526020600020905b815481529060010190602001808311610e7957829003601f168201915b505050505090508383604051610ead929190612f0c565b60405180910390208180519060200120149150509392505050565b610ed0611a21565b610eda8282611db3565b5050565b610ee6611a21565b6040516342d65a8d60e01b81526001600160a01b037f000000000000000000000000000000000000000000000000000000000000000016906342d65a8d90610f3690869086908690600401613017565b600060405180830381600087803b158015610f5057600080fd5b505af1158015610af2573d6000803e3d6000fd5b610fde898989898080601f01602080910402602001604051908101604052809392919081815260200183838082843760009201919091525050604080516020601f8a018190048102820181019092528881528c93508b92508a918a908a9081908401838280828437600092019190915250611e6292505050565b505050505050505050565b3330146110475760405162461bcd60e51b815260206004820152602660248201527f4e6f6e626c6f636b696e674c7a4170703a2063616c6c6572206d7573742062656044820152650204c7a4170760d41b606482015260840161093e565b6110bd8686868080601f01602080910402602001604051908101604052809392919081815260200183838082843760009201919091525050604080516020601f890181900481028201810190925287815289935091508790879081908401838280828437600092019190915250611f0992505050565b505050505050565b6110cd611a21565b6110d76000611f70565b565b600160205260009081526040902080546110f290612ed2565b80601f016020809104026020016040519081016040528092919081815260200182805461111e90612ed2565b801561116b5780601f106111405761010080835404028352916020019161116b565b820191906000526020600020905b81548152906001019060200180831161114e57829003601f168201915b505050505081565b600061117e60095490565b905090565b6060600b8054610b4890612ed2565b61119a611a21565b610eda8282611fc0565b61ffff81166000908152600160205260408120805460609291906111c790612ed2565b80601f01602080910402602001604051908101604052809291908181526020018280546111f390612ed2565b80156112405780601f1061121557610100808354040283529160200191611240565b820191906000526020600020905b81548152906001019060200180831161122357829003601f168201915b5050505050905080516000036112985760405162461bcd60e51b815260206004820152601d60248201527f4c7a4170703a206e6f20747275737465642070617468207265636f7264000000604482015260640161093e565b6112b36000601483516112ab9190613035565b8391906120df565b9392505050565b600033816112c882866116c9565b9050838110156113285760405162461bcd60e51b815260206004820152602560248201527f45524332303a2064656372656173656420616c6c6f77616e63652062656c6f77604482015264207a65726f60d81b606482015260840161093e565b610cfc8286868403611a7b565b61133d611a21565b81813060405160200161135293929190613048565b60408051601f1981840301815291815261ffff851660009081526001602052209061137d90826130c9565b507f8c0400cfe2d1199b1a725c78960bcc2a344d869b80590d0f2bd005db15a572ce8383836040516113b193929190613017565b60405180910390a1505050565b600033610c62818585611c1a565b6113d4611a21565b600480546001600160a01b0319166001600160a01b0383169081179091556040519081527f5db758e995a17ec1ad84bdef7e8c3293a0bd6179bcce400dff5d4c3d87db726b906020015b60405180910390a150565b611431611a21565b6040516332fb62e760e21b81526001600160a01b037f0000000000000000000000000000000000000000000000000000000000000000169063cbed8b9c906114859088908890889088908890600401613182565b600060405180830381600087803b15801561149f57600080fd5b505af1158015610fde573d6000803e3d6000fd5b61ffff861660009081526005602052604080822090516114d69088908890612f0c565b90815260408051602092819003830190206001600160401b038716600090815292529020549050806115565760405162461bcd60e51b815260206004820152602360248201527f4e6f6e626c6f636b696e674c7a4170703a206e6f2073746f726564206d65737360448201526261676560e81b606482015260840161093e565b808383604051611567929190612f0c565b6040518091039020146115c65760405162461bcd60e51b815260206004820152602160248201527f4e6f6e626c6f636b696e674c7a4170703a20696e76616c6964207061796c6f616044820152601960fa1b606482015260840161093e565b61ffff871660009081526005602052604080822090516115e99089908990612f0c565b90815260408051602092819003830181206001600160401b038916600090815290845282902093909355601f88018290048202830182019052868252611681918991899089908190840183828082843760009201919091525050604080516020601f8a018190048102820181019092528881528a935091508890889081908401838280828437600092019190915250611f0992505050565b7fc264d91f3adc5588250e1551f547752ca0cfa8f6b530d243b9f9f4cab10ea8e587878787856040516116b89594939291906131bb565b60405180910390a150505050505050565b6001600160a01b03918216600090815260086020908152604080832093909416825291909152205490565b6116fc611a21565b600081116117445760405162461bcd60e51b81526020600482015260156024820152744c7a4170703a20696e76616c6964206d696e47617360581b604482015260640161093e565b61ffff83811660008181526002602090815260408083209487168084529482529182902085905581519283528201929092529081018290527f9d5c7c0b934da8fefa9c7760c98383778a12dfbfc0c3b3106518f43fb9508ac0906060016113b1565b6117ae611a21565b6006805460ff19168215159081179091556040519081527f1584ad594a70cbe1e6515592e1272a987d922b097ead875069cebe8b40c004a49060200161141e565b6117f7611a21565b61ffff831660009081526001602052604090206118158284836131f6565b507ffa41487ad5d6728f0b19276fa1eddc16558578f5109fc39d2dc33c3230470dab8383836040516113b193929190613017565b611851611a21565b6001600160a01b0381166118b65760405162461bcd60e51b815260206004820152602660248201527f4f776e61626c653a206e6577206f776e657220697320746865207a65726f206160448201526564647265737360d01b606482015260840161093e565b6118bf81611f70565b50565b604051633d7b2f6f60e21b815261ffff808616600483015284166024820152306044820152606481018290526060907f00000000000000000000000000000000000000000000000000000000000000006001600160a01b03169063f5ecbdbc90608401600060405180830381865afa158015611942573d6000803e3d6000fd5b505050506040513d6000823e601f3d908101601f1916820160405261196a91908101906132fc565b95945050505050565b6000806119d65a60966366ad5c8a60e01b8989898960405160240161199b9493929190613330565b60408051601f198184030181529190526020810180516001600160e01b03166001600160e01b031990931692909217909152309291906121ec565b91509150816110bd576110bd8686868685612276565b60006001600160e01b03198216630a72677560e11b1480610b3357506301ffc9a760e01b6001600160e01b0319831614610b33565b6000546001600160a01b031633146110d75760405162461bcd60e51b815260206004820181905260248201527f4f776e61626c653a2063616c6c6572206973206e6f7420746865206f776e6572604482015260640161093e565b6001600160a01b038316611add5760405162461bcd60e51b8152602060048201526024808201527f45524332303a20617070726f76652066726f6d20746865207a65726f206164646044820152637265737360e01b606482015260840161093e565b6001600160a01b038216611b3e5760405162461bcd60e51b815260206004820152602260248201527f45524332303a20617070726f766520746f20746865207a65726f206164647265604482015261737360f01b606482015260840161093e565b6001600160a01b0383811660008181526008602090815260408083209487168084529482529182902085905590518481527f8c5be1e5ebec7d5bd14f71427d1e84f3dd0314c0f7b2291e5b200ac8c7c3b92591015b60405180910390a3505050565b6000611bac84846116c9565b90506000198114611c145781811015611c075760405162461bcd60e51b815260206004820152601d60248201527f45524332303a20696e73756666696369656e7420616c6c6f77616e6365000000604482015260640161093e565b611c148484848403611a7b565b50505050565b6001600160a01b038316611c7e5760405162461bcd60e51b815260206004820152602560248201527f45524332303a207472616e736665722066726f6d20746865207a65726f206164604482015264647265737360d81b606482015260840161093e565b6001600160a01b038216611ce05760405162461bcd60e51b815260206004820152602360248201527f45524332303a207472616e7366657220746f20746865207a65726f206164647260448201526265737360e81b606482015260840161093e565b6001600160a01b03831660009081526007602052604090205481811015611d585760405162461bcd60e51b815260206004820152602660248201527f45524332303a207472616e7366657220616d6f756e7420657863656564732062604482015265616c616e636560d01b606482015260840161093e565b6001600160a01b0380851660008181526007602052604080822086860390559286168082529083902080548601905591516000805160206134eb83398151915290611da69086815260200190565b60405180910390a3611c14565b6001600160a01b038216611e095760405162461bcd60e51b815260206004820152601f60248201527f45524332303a206d696e7420746f20746865207a65726f206164647265737300604482015260640161093e565b8060096000828254611e1b9190613004565b90915550506001600160a01b0382166000818152600760209081526040808320805486019055518481526000805160206134eb833981519152910160405180910390a35050565b611e70866000836000612313565b6000611e7e8888888861238d565b90506000808783604051602001611e979392919061336e565b6040516020818303038152906040529050611eb68882878787346123bf565b886001600160a01b03168861ffff167f39a4c66499bcf4b56d79f0dde8ed7a9d4925a0df55825206b2b8531e202be0d08985604051611ef692919061339b565b60405180910390a3505050505050505050565b602081015161ffff8116611f2857611f2385858585612564565b610c4d565b60405162461bcd60e51b815260206004820152601c60248201527f4f4654436f72653a20756e6b6e6f776e207061636b6574207479706500000000604482015260640161093e565b600080546001600160a01b038381166001600160a01b0319831681178455604051919092169283917f8be0079c531659141344cd1fd0a4f28419497f9722a3daafe3b4186f6b6457e09190a35050565b6001600160a01b0382166120205760405162461bcd60e51b815260206004820152602160248201527f45524332303a206275726e2066726f6d20746865207a65726f206164647265736044820152607360f81b606482015260840161093e565b6001600160a01b038216600090815260076020526040902054818110156120945760405162461bcd60e51b815260206004820152602260248201527f45524332303a206275726e20616d6f756e7420657863656564732062616c616e604482015261636560f01b606482015260840161093e565b6001600160a01b03831660008181526007602090815260408083208686039055600980548790039055518581529192916000805160206134eb8339815191529101611b93565b505050565b6060816120ed81601f613004565b101561212c5760405162461bcd60e51b815260206004820152600e60248201526d736c6963655f6f766572666c6f7760901b604482015260640161093e565b6121368284613004565b8451101561217a5760405162461bcd60e51b8152602060048201526011602482015270736c6963655f6f75744f66426f756e647360781b604482015260640161093e565b60608215801561219957604051915060008252602082016040526121e3565b6040519150601f8416801560200281840101858101878315602002848b0101015b818310156121d25780518352602092830192016121ba565b5050858452601f01601f1916604052505b50949350505050565b6000606060008060008661ffff166001600160401b0381111561221157612211612c31565b6040519080825280601f01601f19166020018201604052801561223b576020820181803683370190505b50905060008087516020890160008d8df191503d92508683111561225d578692505b828152826000602083013e909890975095505050505050565b8180519060200120600560008761ffff1661ffff168152602001908152602001600020856040516122a791906133bd565b9081526040805191829003602090810183206001600160401b0388166000908152915220919091557fe183f33de2837795525b4792ca4cd60535bd77c53b7e7030060bfcf5734d6b0c9061230490879087908790879087906133d9565b60405180910390a15050505050565b60065460ff161561232f5761232a848484846125ee565b611c14565b815115611c145760405162461bcd60e51b815260206004820152602660248201527f4f4654436f72653a205f61646170746572506172616d73206d7573742062652060448201526532b6b83a3c9760d11b606482015260840161093e565b6000336001600160a01b03861681146123ab576123ab868285611ba0565b6123b58684611fc0565b5090949350505050565b61ffff8616600090815260016020526040812080546123dd90612ed2565b80601f016020809104026020016040519081016040528092919081815260200182805461240990612ed2565b80156124565780601f1061242b57610100808354040283529160200191612456565b820191906000526020600020905b81548152906001019060200180831161243957829003601f168201915b5050505050905080516000036124c75760405162461bcd60e51b815260206004820152603060248201527f4c7a4170703a2064657374696e6174696f6e20636861696e206973206e6f742060448201526f61207472757374656420736f7572636560801b606482015260840161093e565b6124d28787516126cd565b60405162c5803160e81b81526001600160a01b037f0000000000000000000000000000000000000000000000000000000000000000169063c5803100908490612529908b9086908c908c908c908c90600401613437565b6000604051808303818588803b15801561254257600080fd5b505af1158015612556573d6000803e3d6000fd5b505050505050505050505050565b6000808280602001905181019061257b9190613491565b90935091506000905061258e838261273e565b905061259b8782846127a3565b9150806001600160a01b03168761ffff167fbf551ec93859b170f9b2141bd9298bf3f64322c6f7beb2543a0cb669834118bf846040516125dd91815260200190565b60405180910390a350505050505050565b60006125f9836127b6565b61ffff80871660009081526002602090815260408083209389168352929052908120549192509061262b908490613004565b90506000811161267d5760405162461bcd60e51b815260206004820152601a60248201527f4c7a4170703a206d696e4761734c696d6974206e6f7420736574000000000000604482015260640161093e565b808210156110bd5760405162461bcd60e51b815260206004820152601b60248201527f4c7a4170703a20676173206c696d697420697320746f6f206c6f770000000000604482015260640161093e565b61ffff8216600090815260036020526040812054908190036126ee57506127105b808211156120da5760405162461bcd60e51b815260206004820181905260248201527f4c7a4170703a207061796c6f61642073697a6520697320746f6f206c61726765604482015260640161093e565b600061274b826014613004565b835110156127935760405162461bcd60e51b8152602060048201526015602482015274746f416464726573735f6f75744f66426f756e647360581b604482015260640161093e565b500160200151600160601b900490565b60006127af8383611db3565b5092915050565b600060228251101561280a5760405162461bcd60e51b815260206004820152601c60248201527f4c7a4170703a20696e76616c69642061646170746572506172616d7300000000604482015260640161093e565b506022015190565b61ffff811681146118bf57600080fd5b60008083601f84011261283457600080fd5b5081356001600160401b0381111561284b57600080fd5b60208301915083602082850101111561286357600080fd5b9250929050565b80356001600160401b038116811461288157600080fd5b919050565b6000806000806000806080878903121561289f57600080fd5b86356128aa81612812565b955060208701356001600160401b03808211156128c657600080fd5b6128d28a838b01612822565b90975095508591506128e660408a0161286a565b945060608901359150808211156128fc57600080fd5b5061290989828a01612822565b979a9699509497509295939492505050565b60006020828403121561292d57600080fd5b81356001600160e01b0319811681146112b357600080fd5b60005b83811015612960578181015183820152602001612948565b50506000910152565b60008151808452612981816020860160208601612945565b601f01601f19169290920160200192915050565b6020815260006112b36020830184612969565b6000602082840312156129ba57600080fd5b81356112b381612812565b6001600160a01b03811681146118bf57600080fd5b600080604083850312156129ed57600080fd5b82356129f8816129c5565b946020939093013593505050565b60008060408385031215612a1957600080fd5b82356129f881612812565b600080600060608486031215612a3957600080fd5b8335612a44816129c5565b92506020840135612a54816129c5565b929592945050506040919091013590565b8035801515811461288157600080fd5b600080600080600080600060a0888a031215612a9057600080fd5b8735612a9b81612812565b965060208801356001600160401b0380821115612ab757600080fd5b612ac38b838c01612822565b909850965060408a01359550869150612ade60608b01612a65565b945060808a0135915080821115612af457600080fd5b50612b018a828b01612822565b989b979a50959850939692959293505050565b600080600060408486031215612b2957600080fd5b8335612b3481612812565b925060208401356001600160401b03811115612b4f57600080fd5b612b5b86828701612822565b9497909650939450505050565b600080600080600080600080600060e08a8c031215612b8657600080fd5b8935612b91816129c5565b985060208a0135612ba181612812565b975060408a01356001600160401b0380821115612bbd57600080fd5b612bc98d838e01612822565b909950975060608c0135965060808c01359150612be5826129c5565b90945060a08b013590612bf7826129c5565b90935060c08b01359080821115612c0d57600080fd5b50612c1a8c828d01612822565b915080935050809150509295985092959850929598565b634e487b7160e01b600052604160045260246000fd5b604051601f8201601f191681016001600160401b0381118282101715612c6f57612c6f612c31565b604052919050565b60006001600160401b03821115612c9057612c90612c31565b50601f01601f191660200190565b600080600060608486031215612cb357600080fd5b8335612cbe81612812565b925060208401356001600160401b03811115612cd957600080fd5b8401601f81018613612cea57600080fd5b8035612cfd612cf882612c77565b612c47565b818152876020838501011115612d1257600080fd5b81602084016020830137600060208383010152809450505050612d376040850161286a565b90509250925092565b600060208284031215612d5257600080fd5b81356112b3816129c5565b60008060408385031215612d7057600080fd5b8235612d7b81612812565b91506020830135612d8b81612812565b809150509250929050565b600080600080600060808688031215612dae57600080fd5b8535612db981612812565b94506020860135612dc981612812565b93506040860135925060608601356001600160401b03811115612deb57600080fd5b612df788828901612822565b969995985093965092949392505050565b60008060408385031215612e1b57600080fd5b8235612e26816129c5565b91506020830135612d8b816129c5565b600080600060608486031215612e4b57600080fd5b8335612e5681612812565b92506020840135612a5481612812565b600060208284031215612e7857600080fd5b6112b382612a65565b60008060008060808587031215612e9757600080fd5b8435612ea281612812565b93506020850135612eb281612812565b92506040850135612ec2816129c5565b9396929550929360600135925050565b600181811c90821680612ee657607f821691505b602082108103612f0657634e487b7160e01b600052602260045260246000fd5b50919050565b8183823760009101908152919050565b81835281816020850137506000828201602090810191909152601f909101601f19169091010190565b61ffff85168152606060208201526000612f63606083018587612f1c565b905082604083015295945050505050565b61ffff871681526001600160a01b038616602082015260a060408201819052600090612fa290830187612969565b85151560608401528281036080840152612fbd818587612f1c565b9998505050505050505050565b60008060408385031215612fdd57600080fd5b505080516020909101519092909150565b634e487b7160e01b600052601160045260246000fd5b80820180821115610b3357610b33612fee565b61ffff8416815260406020820152600061196a604083018486612f1c565b81810381811115610b3357610b33612fee565b8284823760609190911b6bffffffffffffffffffffffff19169101908152601401919050565b601f8211156120da57600081815260208120601f850160051c810160208610156130955750805b601f850160051c820191505b818110156110bd578281556001016130a1565b600019600383901b1c191660019190911b1790565b81516001600160401b038111156130e2576130e2612c31565b6130f6816130f08454612ed2565b8461306e565b602080601f83116001811461312557600084156131135750858301515b61311d85826130b4565b8655506110bd565b600085815260208120601f198616915b8281101561315457888601518255948401946001909101908401613135565b50858210156131725787850151600019600388901b60f8161c191681555b5050505050600190811b01905550565b600061ffff8088168352808716602084015250846040830152608060608301526131b0608083018486612f1c565b979650505050505050565b61ffff861681526080602082015260006131d9608083018688612f1c565b6001600160401b0394909416604083015250606001529392505050565b6001600160401b0383111561320d5761320d612c31565b6132218361321b8354612ed2565b8361306e565b6000601f84116001811461324f576000851561323d5750838201355b61324786826130b4565b845550610c4d565b600083815260209020601f19861690835b828110156132805786850135825560209485019460019092019101613260565b508682101561329d5760001960f88860031b161c19848701351681555b505060018560011b0183555050505050565b600082601f8301126132c057600080fd5b81516132ce612cf882612c77565b8181528460208386010111156132e357600080fd5b6132f4826020830160208701612945565b949350505050565b60006020828403121561330e57600080fd5b81516001600160401b0381111561332457600080fd5b6132f4848285016132af565b61ffff8516815260806020820152600061334d6080830186612969565b6001600160401b038516604084015282810360608401526131b08185612969565b61ffff8416815260606020820152600061338b6060830185612969565b9050826040830152949350505050565b6040815260006133ae6040830185612969565b90508260208301529392505050565b600082516133cf818460208701612945565b9190910192915050565b61ffff8616815260a0602082015260006133f660a0830187612969565b6001600160401b038616604084015282810360608401526134178186612969565b9050828103608084015261342b8185612969565b98975050505050505050565b61ffff8716815260c06020820152600061345460c0830188612969565b82810360408401526134668188612969565b6001600160a01b0387811660608601528616608085015283810360a08501529050612fbd8185612969565b6000806000606084860312156134a657600080fd5b83516134b181612812565b60208501519093506001600160401b038111156134cd57600080fd5b6134d9868287016132af565b92505060408401519050925092509256feddf252ad1be2c89b69c2b068fc378daa952ba7f163c4a11628f55a4df523b3efa264697066735822122000af738f4f0dbd5a092769879e972bd02031f95837cd4364f0b8711c72e3e15664736f6c63430008110033a26469706673582212200c81dbc1ffaddec181cc194bec601c93a4a7768037931055a5df75e834051c1a64736f6c63430008110033",
  "devdoc": {
    "author": "Muller",
    "details": "This contract is used to manage the OmniTokensIt is used by the router to create OmniTokens and mint/burn tokens",
    "kind": "dev",
    "methods": {
      "createOmniToken((address,uint256,address,string,string),address,uint16)": {
        "details": "Create a new OmniToken Requirements: `_mintParams.srcToken` cannot be the zero address `_mintParams.srcChainId` cannot be the zero address `_mintParams.name` cannot be the zero address `_mintParams.symbol` cannot be the zero address `_mintParams.amount` cannot be the zero address `_mintParams.to` cannot be the zero address `_lzEndpoint` cannot be the zero address `_srcChainId` cannot be the zero address",
        "params": {
          "_lzEndpoint": "The endpoint of the Lazynode",
          "_mintParams": "The mint parameters",
          "_srcChainId": "The source chain id"
        },
        "returns": {
          "token": "The address of the new OmniToken"
        }
      }
    },
    "title": "OCPOmniTokenManager",
    "version": 1
  },
  "userdoc": {
    "kind": "user",
    "methods": {},
    "version": 1
  },
  "storageLayout": {
    "storage": [
      {
        "astId": 5592,
        "contract": "contracts/OCPOmniTokenManager.sol:OCPOmniTokenManager",
        "label": "router",
        "offset": 0,
        "slot": "0",
        "type": "t_address"
      },
      {
        "astId": 5594,
        "contract": "contracts/OCPOmniTokenManager.sol:OCPOmniTokenManager",
        "label": "timeLock",
        "offset": 0,
        "slot": "1",
        "type": "t_address"
      },
      {
        "astId": 5609,
        "contract": "contracts/OCPOmniTokenManager.sol:OCPOmniTokenManager",
        "label": "omniTokens",
        "offset": 0,
        "slot": "2",
        "type": "t_mapping(t_address,t_mapping(t_uint16,t_address))"
      },
      {
        "astId": 5615,
        "contract": "contracts/OCPOmniTokenManager.sol:OCPOmniTokenManager",
        "label": "sourceTokens",
        "offset": 0,
        "slot": "3",
        "type": "t_mapping(t_address,t_mapping(t_uint16,t_address))"
      }
    ],
    "types": {
      "t_address": {
        "encoding": "inplace",
        "label": "address",
        "numberOfBytes": "20"
      },
      "t_mapping(t_address,t_mapping(t_uint16,t_address))": {
        "encoding": "mapping",
        "key": "t_address",
        "label": "mapping(address => mapping(uint16 => address))",
        "numberOfBytes": "32",
        "value": "t_mapping(t_uint16,t_address)"
      },
      "t_mapping(t_uint16,t_address)": {
        "encoding": "mapping",
        "key": "t_uint16",
        "label": "mapping(uint16 => address)",
        "numberOfBytes": "32",
        "value": "t_address"
      },
      "t_uint16": {
        "encoding": "inplace",
        "label": "uint16",
        "numberOfBytes": "2"
      }
    }
  }
}